{
	"contracts/GMMCArcade.sol": {
		"GMMCArcade": {
			"abi": [
				{
					"inputs": [
						{
							"internalType": "address",
							"name": "_gmmcToken",
							"type": "address"
						},
						{
							"internalType": "address",
							"name": "_treasury",
							"type": "address"
						}
					],
					"stateMutability": "nonpayable",
					"type": "constructor"
				},
				{
					"inputs": [
						{
							"internalType": "address",
							"name": "owner",
							"type": "address"
						}
					],
					"name": "OwnableInvalidOwner",
					"type": "error"
				},
				{
					"inputs": [
						{
							"internalType": "address",
							"name": "account",
							"type": "address"
						}
					],
					"name": "OwnableUnauthorizedAccount",
					"type": "error"
				},
				{
					"inputs": [],
					"name": "ReentrancyGuardReentrantCall",
					"type": "error"
				},
				{
					"anonymous": false,
					"inputs": [
						{
							"indexed": false,
							"internalType": "uint256",
							"name": "newFee",
							"type": "uint256"
						}
					],
					"name": "EntryFeeUpdated",
					"type": "event"
				},
				{
					"anonymous": false,
					"inputs": [
						{
							"indexed": true,
							"internalType": "address",
							"name": "player",
							"type": "address"
						},
						{
							"indexed": false,
							"internalType": "uint256",
							"name": "score",
							"type": "uint256"
						},
						{
							"indexed": false,
							"internalType": "uint256",
							"name": "timestamp",
							"type": "uint256"
						}
					],
					"name": "GamePlayed",
					"type": "event"
				},
				{
					"anonymous": false,
					"inputs": [
						{
							"indexed": true,
							"internalType": "address",
							"name": "player",
							"type": "address"
						},
						{
							"indexed": false,
							"internalType": "uint256",
							"name": "score",
							"type": "uint256"
						},
						{
							"indexed": false,
							"internalType": "uint256",
							"name": "rank",
							"type": "uint256"
						}
					],
					"name": "LeaderboardUpdated",
					"type": "event"
				},
				{
					"anonymous": false,
					"inputs": [
						{
							"indexed": true,
							"internalType": "address",
							"name": "previousOwner",
							"type": "address"
						},
						{
							"indexed": true,
							"internalType": "address",
							"name": "newOwner",
							"type": "address"
						}
					],
					"name": "OwnershipTransferred",
					"type": "event"
				},
				{
					"anonymous": false,
					"inputs": [
						{
							"indexed": true,
							"internalType": "address",
							"name": "player",
							"type": "address"
						},
						{
							"indexed": false,
							"internalType": "uint256",
							"name": "amount",
							"type": "uint256"
						}
					],
					"name": "RewardClaimed",
					"type": "event"
				},
				{
					"anonymous": false,
					"inputs": [
						{
							"indexed": false,
							"internalType": "uint256",
							"name": "newPercentage",
							"type": "uint256"
						}
					],
					"name": "RewardPoolPercentageUpdated",
					"type": "event"
				},
				{
					"anonymous": false,
					"inputs": [
						{
							"indexed": false,
							"internalType": "address",
							"name": "newTreasury",
							"type": "address"
						}
					],
					"name": "TreasuryUpdated",
					"type": "event"
				},
				{
					"inputs": [
						{
							"internalType": "address[]",
							"name": "recipients",
							"type": "address[]"
						},
						{
							"internalType": "uint256[]",
							"name": "amounts",
							"type": "uint256[]"
						}
					],
					"name": "distributeRewards",
					"outputs": [],
					"stateMutability": "nonpayable",
					"type": "function"
				},
				{
					"inputs": [],
					"name": "emergencyWithdraw",
					"outputs": [],
					"stateMutability": "nonpayable",
					"type": "function"
				},
				{
					"inputs": [],
					"name": "entryFee",
					"outputs": [
						{
							"internalType": "uint256",
							"name": "",
							"type": "uint256"
						}
					],
					"stateMutability": "view",
					"type": "function"
				},
				{
					"inputs": [],
					"name": "getLeaderboard",
					"outputs": [
						{
							"components": [
								{
									"internalType": "address",
									"name": "player",
									"type": "address"
								},
								{
									"internalType": "uint256",
									"name": "score",
									"type": "uint256"
								},
								{
									"internalType": "uint256",
									"name": "timestamp",
									"type": "uint256"
								}
							],
							"internalType": "struct GMMCArcade.LeaderboardEntry[]",
							"name": "",
							"type": "tuple[]"
						}
					],
					"stateMutability": "view",
					"type": "function"
				},
				{
					"inputs": [
						{
							"internalType": "uint256",
							"name": "offset",
							"type": "uint256"
						},
						{
							"internalType": "uint256",
							"name": "limit",
							"type": "uint256"
						}
					],
					"name": "getLeaderboardPaginated",
					"outputs": [
						{
							"components": [
								{
									"internalType": "address",
									"name": "player",
									"type": "address"
								},
								{
									"internalType": "uint256",
									"name": "score",
									"type": "uint256"
								},
								{
									"internalType": "uint256",
									"name": "timestamp",
									"type": "uint256"
								}
							],
							"internalType": "struct GMMCArcade.LeaderboardEntry[]",
							"name": "",
							"type": "tuple[]"
						}
					],
					"stateMutability": "view",
					"type": "function"
				},
				{
					"inputs": [],
					"name": "getLeaderboardSize",
					"outputs": [
						{
							"internalType": "uint256",
							"name": "",
							"type": "uint256"
						}
					],
					"stateMutability": "view",
					"type": "function"
				},
				{
					"inputs": [
						{
							"internalType": "address",
							"name": "player",
							"type": "address"
						}
					],
					"name": "getPlayerStats",
					"outputs": [
						{
							"components": [
								{
									"internalType": "uint256",
									"name": "gamesPlayed",
									"type": "uint256"
								},
								{
									"internalType": "uint256",
									"name": "highestScore",
									"type": "uint256"
								},
								{
									"internalType": "uint256",
									"name": "totalScore",
									"type": "uint256"
								},
								{
									"internalType": "uint256",
									"name": "lastPlayedAt",
									"type": "uint256"
								}
							],
							"internalType": "struct GMMCArcade.PlayerStats",
							"name": "",
							"type": "tuple"
						}
					],
					"stateMutability": "view",
					"type": "function"
				},
				{
					"inputs": [],
					"name": "getRewardPoolBalance",
					"outputs": [
						{
							"internalType": "uint256",
							"name": "",
							"type": "uint256"
						}
					],
					"stateMutability": "view",
					"type": "function"
				},
				{
					"inputs": [],
					"name": "gmmcToken",
					"outputs": [
						{
							"internalType": "contract IERC20",
							"name": "",
							"type": "address"
						}
					],
					"stateMutability": "view",
					"type": "function"
				},
				{
					"inputs": [
						{
							"internalType": "uint256",
							"name": "",
							"type": "uint256"
						}
					],
					"name": "leaderboard",
					"outputs": [
						{
							"internalType": "address",
							"name": "player",
							"type": "address"
						},
						{
							"internalType": "uint256",
							"name": "score",
							"type": "uint256"
						},
						{
							"internalType": "uint256",
							"name": "timestamp",
							"type": "uint256"
						}
					],
					"stateMutability": "view",
					"type": "function"
				},
				{
					"inputs": [],
					"name": "maxLeaderboardSize",
					"outputs": [
						{
							"internalType": "uint256",
							"name": "",
							"type": "uint256"
						}
					],
					"stateMutability": "view",
					"type": "function"
				},
				{
					"inputs": [],
					"name": "owner",
					"outputs": [
						{
							"internalType": "address",
							"name": "",
							"type": "address"
						}
					],
					"stateMutability": "view",
					"type": "function"
				},
				{
					"inputs": [
						{
							"internalType": "uint256",
							"name": "score",
							"type": "uint256"
						}
					],
					"name": "play",
					"outputs": [],
					"stateMutability": "nonpayable",
					"type": "function"
				},
				{
					"inputs": [
						{
							"internalType": "address",
							"name": "",
							"type": "address"
						}
					],
					"name": "playerStats",
					"outputs": [
						{
							"internalType": "uint256",
							"name": "gamesPlayed",
							"type": "uint256"
						},
						{
							"internalType": "uint256",
							"name": "highestScore",
							"type": "uint256"
						},
						{
							"internalType": "uint256",
							"name": "totalScore",
							"type": "uint256"
						},
						{
							"internalType": "uint256",
							"name": "lastPlayedAt",
							"type": "uint256"
						}
					],
					"stateMutability": "view",
					"type": "function"
				},
				{
					"inputs": [],
					"name": "renounceOwnership",
					"outputs": [],
					"stateMutability": "nonpayable",
					"type": "function"
				},
				{
					"inputs": [],
					"name": "rewardPool",
					"outputs": [
						{
							"internalType": "uint256",
							"name": "",
							"type": "uint256"
						}
					],
					"stateMutability": "view",
					"type": "function"
				},
				{
					"inputs": [],
					"name": "rewardPoolPercentage",
					"outputs": [
						{
							"internalType": "uint256",
							"name": "",
							"type": "uint256"
						}
					],
					"stateMutability": "view",
					"type": "function"
				},
				{
					"inputs": [
						{
							"internalType": "uint256",
							"name": "_newFee",
							"type": "uint256"
						}
					],
					"name": "setEntryFee",
					"outputs": [],
					"stateMutability": "nonpayable",
					"type": "function"
				},
				{
					"inputs": [
						{
							"internalType": "uint256",
							"name": "_size",
							"type": "uint256"
						}
					],
					"name": "setMaxLeaderboardSize",
					"outputs": [],
					"stateMutability": "nonpayable",
					"type": "function"
				},
				{
					"inputs": [
						{
							"internalType": "uint256",
							"name": "_percentage",
							"type": "uint256"
						}
					],
					"name": "setRewardPoolPercentage",
					"outputs": [],
					"stateMutability": "nonpayable",
					"type": "function"
				},
				{
					"inputs": [
						{
							"internalType": "address",
							"name": "_treasury",
							"type": "address"
						}
					],
					"name": "setTreasury",
					"outputs": [],
					"stateMutability": "nonpayable",
					"type": "function"
				},
				{
					"inputs": [
						{
							"internalType": "address",
							"name": "newOwner",
							"type": "address"
						}
					],
					"name": "transferOwnership",
					"outputs": [],
					"stateMutability": "nonpayable",
					"type": "function"
				},
				{
					"inputs": [],
					"name": "treasury",
					"outputs": [
						{
							"internalType": "address",
							"name": "",
							"type": "address"
						}
					],
					"stateMutability": "view",
					"type": "function"
				}
			],
			"devdoc": {
				"details": "Arcade contract for GMMC token gaming with leaderboard functionality Deploy via ThirdWeb to Base network",
				"errors": {
					"OwnableInvalidOwner(address)": [
						{
							"details": "The owner is not a valid owner account. (eg. `address(0)`)"
						}
					],
					"OwnableUnauthorizedAccount(address)": [
						{
							"details": "The caller account is not authorized to perform an operation."
						}
					],
					"ReentrancyGuardReentrantCall()": [
						{
							"details": "Unauthorized reentrant call."
						}
					]
				},
				"kind": "dev",
				"methods": {
					"distributeRewards(address[],uint256[])": {
						"details": "Distribute rewards to top players (only owner)",
						"params": {
							"amounts": "Array of amounts to distribute",
							"recipients": "Array of recipient addresses"
						}
					},
					"emergencyWithdraw()": {
						"details": "Emergency withdraw (only owner)"
					},
					"getLeaderboard()": {
						"details": "Get the full leaderboard"
					},
					"getLeaderboardPaginated(uint256,uint256)": {
						"details": "Get leaderboard with pagination"
					},
					"getLeaderboardSize()": {
						"details": "Get leaderboard size"
					},
					"getPlayerStats(address)": {
						"details": "Get player stats"
					},
					"getRewardPoolBalance()": {
						"details": "Get current reward pool balance"
					},
					"owner()": {
						"details": "Returns the address of the current owner."
					},
					"play(uint256)": {
						"details": "Play the game by paying entry fee and submitting score",
						"params": {
							"score": "The player's score from the game"
						}
					},
					"renounceOwnership()": {
						"details": "Leaves the contract without owner. It will not be possible to call `onlyOwner` functions. Can only be called by the current owner. NOTE: Renouncing ownership will leave the contract without an owner, thereby disabling any functionality that is only available to the owner."
					},
					"setEntryFee(uint256)": {
						"details": "Update entry fee (only owner)"
					},
					"setMaxLeaderboardSize(uint256)": {
						"details": "Update max leaderboard size (only owner)"
					},
					"setRewardPoolPercentage(uint256)": {
						"details": "Update reward pool percentage (only owner)"
					},
					"setTreasury(address)": {
						"details": "Update treasury address (only owner)"
					},
					"transferOwnership(address)": {
						"details": "Transfers ownership of the contract to a new account (`newOwner`). Can only be called by the current owner."
					}
				},
				"title": "GMMCArcade",
				"version": 1
			},
			"evm": {
				"assembly": "    /* \"contracts/GMMCArcade.sol\":374:8654  contract GMMCArcade is Ownable, ReentrancyGuard {... */\n  mstore(0x40, 0xa0)\n    /* \"contracts/GMMCArcade.sol\":583:597  10000 * 10**18 */\n  0x021e19e0c9bab2400000\n    /* \"contracts/GMMCArcade.sol\":557:597  uint256 public entryFee = 10000 * 10**18 */\n  0x02\n  sstore\n    /* \"contracts/GMMCArcade.sol\":737:739  80 */\n  0x50\n    /* \"contracts/GMMCArcade.sol\":699:739  uint256 public rewardPoolPercentage = 80 */\n  0x03\n  sstore\n    /* \"contracts/GMMCArcade.sol\":1246:1249  100 */\n  0x64\n    /* \"contracts/GMMCArcade.sol\":1210:1249  uint256 public maxLeaderboardSize = 100 */\n  0x06\n  sstore\n    /* \"contracts/GMMCArcade.sol\":1810:2096  constructor(address _gmmcToken, address _treasury) Ownable(msg.sender) {... */\n  callvalue\n  dup1\n  iszero\n  tag_1\n  jumpi\n  revert(0x00, 0x00)\ntag_1:\n  pop\n  mload(0x40)\n  sub(codesize, bytecodeSize)\n  dup1\n  bytecodeSize\n  dup4\n  codecopy\n  dup2\n  add\n  0x40\n  dup2\n  swap1\n  mstore\n  tag_2\n  swap2\n  tag_3\n  jump\t// in\ntag_2:\n    /* \"contracts/GMMCArcade.sol\":1869:1879  msg.sender */\n  caller\n  dup1\n    /* \"@openzeppelin/contracts/access/Ownable.sol\":1269:1364  if (initialOwner == address(0)) {... */\n  tag_8\n  jumpi\n    /* \"@openzeppelin/contracts/access/Ownable.sol\":1322:1353  OwnableInvalidOwner(address(0)) */\n  mload(0x40)\n  shl(0xe0, 0x1e4fbdf7)\n  dup2\n  mstore\n    /* \"@openzeppelin/contracts/access/Ownable.sol\":1350:1351  0 */\n  0x00\n    /* \"@openzeppelin/contracts/access/Ownable.sol\":1322:1353  OwnableInvalidOwner(address(0)) */\n  0x04\n  dup3\n  add\n    /* \"#utility.yul\":640:691   */\n  mstore\n    /* \"#utility.yul\":613:631   */\n  0x24\n  add\n    /* \"@openzeppelin/contracts/access/Ownable.sol\":1322:1353  OwnableInvalidOwner(address(0)) */\ntag_9:\n  mload(0x40)\n  dup1\n  swap2\n  sub\n  swap1\n  revert\n    /* \"@openzeppelin/contracts/access/Ownable.sol\":1269:1364  if (initialOwner == address(0)) {... */\ntag_8:\n    /* \"@openzeppelin/contracts/access/Ownable.sol\":1373:1405  _transferOwnership(initialOwner) */\n  tag_11\n    /* \"@openzeppelin/contracts/access/Ownable.sol\":1392:1404  initialOwner */\n  dup2\n    /* \"@openzeppelin/contracts/access/Ownable.sol\":1373:1391  _transferOwnership */\n  tag_12\n    /* \"@openzeppelin/contracts/access/Ownable.sol\":1373:1405  _transferOwnership(initialOwner) */\n  jump\t// in\ntag_11:\n  pop\n    /* \"@openzeppelin/contracts/utils/ReentrancyGuard.sol\":1857:1858  1 */\n  0x01\n    /* \"@openzeppelin/contracts/utils/ReentrancyGuard.sol\":2061:2082  _status = NOT_ENTERED */\n  dup1\n  sstore\n  sub(shl(0xa0, 0x01), 0x01)\n    /* \"contracts/GMMCArcade.sol\":1899:1923  _gmmcToken != address(0) */\n  dup3\n  and\n    /* \"contracts/GMMCArcade.sol\":1891:1949  require(_gmmcToken != address(0), \"Invalid token address\") */\n  tag_15\n  jumpi\n  mload(0x40)\n  shl(0xe5, 0x461bcd)\n  dup2\n  mstore\n    /* \"#utility.yul\":904:906   */\n  0x20\n    /* \"contracts/GMMCArcade.sol\":1891:1949  require(_gmmcToken != address(0), \"Invalid token address\") */\n  0x04\n  dup3\n  add\n    /* \"#utility.yul\":886:907   */\n  mstore\n    /* \"#utility.yul\":943:945   */\n  0x15\n    /* \"#utility.yul\":923:941   */\n  0x24\n  dup3\n  add\n    /* \"#utility.yul\":916:946   */\n  mstore\n    /* \"#utility.yul\":982:1005   */\n  0x496e76616c696420746f6b656e20616464726573730000000000000000000000\n    /* \"#utility.yul\":962:980   */\n  0x44\n  dup3\n  add\n    /* \"#utility.yul\":955:1006   */\n  mstore\n    /* \"#utility.yul\":1023:1041   */\n  0x64\n  add\n    /* \"contracts/GMMCArcade.sol\":1891:1949  require(_gmmcToken != address(0), \"Invalid token address\") */\n  tag_9\n    /* \"#utility.yul\":702:1047   */\n  jump\n    /* \"contracts/GMMCArcade.sol\":1891:1949  require(_gmmcToken != address(0), \"Invalid token address\") */\ntag_15:\n  sub(shl(0xa0, 0x01), 0x01)\n    /* \"contracts/GMMCArcade.sol\":1967:1990  _treasury != address(0) */\n  dup2\n  and\n    /* \"contracts/GMMCArcade.sol\":1959:2019  require(_treasury != address(0), \"Invalid treasury address\") */\n  tag_18\n  jumpi\n  mload(0x40)\n  shl(0xe5, 0x461bcd)\n  dup2\n  mstore\n    /* \"#utility.yul\":1254:1256   */\n  0x20\n    /* \"contracts/GMMCArcade.sol\":1959:2019  require(_treasury != address(0), \"Invalid treasury address\") */\n  0x04\n  dup3\n  add\n    /* \"#utility.yul\":1236:1257   */\n  mstore\n    /* \"#utility.yul\":1293:1295   */\n  0x18\n    /* \"#utility.yul\":1273:1291   */\n  0x24\n  dup3\n  add\n    /* \"#utility.yul\":1266:1296   */\n  mstore\n    /* \"#utility.yul\":1332:1358   */\n  0x496e76616c696420747265617375727920616464726573730000000000000000\n    /* \"#utility.yul\":1312:1330   */\n  0x44\n  dup3\n  add\n    /* \"#utility.yul\":1305:1359   */\n  mstore\n    /* \"#utility.yul\":1376:1394   */\n  0x64\n  add\n    /* \"contracts/GMMCArcade.sol\":1959:2019  require(_treasury != address(0), \"Invalid treasury address\") */\n  tag_9\n    /* \"#utility.yul\":1052:1400   */\n  jump\n    /* \"contracts/GMMCArcade.sol\":1959:2019  require(_treasury != address(0), \"Invalid treasury address\") */\ntag_18:\n  sub(shl(0xa0, 0x01), 0x01)\n    /* \"contracts/GMMCArcade.sol\":2029:2059  gmmcToken = IERC20(_gmmcToken) */\n  swap2\n  dup3\n  and\n  0x80\n  mstore\n    /* \"contracts/GMMCArcade.sol\":2069:2077  treasury */\n  0x04\n    /* \"contracts/GMMCArcade.sol\":2069:2089  treasury = _treasury */\n  dup1\n  sload\n  not(sub(shl(0xa0, 0x01), 0x01))\n  and\n  swap2\n  swap1\n  swap3\n  and\n  or\n  swap1\n  sstore\n    /* \"contracts/GMMCArcade.sol\":374:8654  contract GMMCArcade is Ownable, ReentrancyGuard {... */\n  jump(tag_24)\n    /* \"@openzeppelin/contracts/access/Ownable.sol\":2912:3099  function _transferOwnership(address newOwner) internal virtual {... */\ntag_12:\n    /* \"@openzeppelin/contracts/access/Ownable.sol\":2985:3001  address oldOwner */\n  0x00\n    /* \"@openzeppelin/contracts/access/Ownable.sol\":3004:3010  _owner */\n  dup1\n  sload\n  sub(shl(0xa0, 0x01), 0x01)\n    /* \"@openzeppelin/contracts/access/Ownable.sol\":3020:3037  _owner = newOwner */\n  dup4\n  dup2\n  and\n  not(sub(shl(0xa0, 0x01), 0x01))\n  dup4\n  and\n  dup2\n  or\n  dup5\n  sstore\n    /* \"@openzeppelin/contracts/access/Ownable.sol\":3052:3092  OwnershipTransferred(oldOwner, newOwner) */\n  mload(0x40)\n    /* \"@openzeppelin/contracts/access/Ownable.sol\":3004:3010  _owner */\n  swap2\n  swap1\n  swap3\n  and\n  swap3\n  dup4\n  swap2\n    /* \"@openzeppelin/contracts/access/Ownable.sol\":3052:3092  OwnershipTransferred(oldOwner, newOwner) */\n  0x8be0079c531659141344cd1fd0a4f28419497f9722a3daafe3b4186f6b6457e0\n  swap2\n    /* \"@openzeppelin/contracts/access/Ownable.sol\":2985:3001  address oldOwner */\n  swap1\n    /* \"@openzeppelin/contracts/access/Ownable.sol\":3052:3092  OwnershipTransferred(oldOwner, newOwner) */\n  log3\n    /* \"@openzeppelin/contracts/access/Ownable.sol\":2975:3099  {... */\n  pop\n    /* \"@openzeppelin/contracts/access/Ownable.sol\":2912:3099  function _transferOwnership(address newOwner) internal virtual {... */\n  pop\n  jump\t// out\n    /* \"#utility.yul\":14:191   */\ntag_23:\n    /* \"#utility.yul\":93:106   */\n  dup1\n  mload\n  sub(shl(0xa0, 0x01), 0x01)\n    /* \"#utility.yul\":135:166   */\n  dup2\n  and\n    /* \"#utility.yul\":125:167   */\n  dup2\n  eq\n    /* \"#utility.yul\":115:185   */\n  tag_26\n  jumpi\n    /* \"#utility.yul\":181:182   */\n  0x00\n    /* \"#utility.yul\":178:179   */\n  0x00\n    /* \"#utility.yul\":171:183   */\n  revert\n    /* \"#utility.yul\":115:185   */\ntag_26:\n    /* \"#utility.yul\":14:191   */\n  swap2\n  swap1\n  pop\n  jump\t// out\n    /* \"#utility.yul\":196:489   */\ntag_3:\n    /* \"#utility.yul\":275:281   */\n  0x00\n    /* \"#utility.yul\":283:289   */\n  0x00\n    /* \"#utility.yul\":336:338   */\n  0x40\n    /* \"#utility.yul\":324:333   */\n  dup4\n    /* \"#utility.yul\":315:322   */\n  dup6\n    /* \"#utility.yul\":311:334   */\n  sub\n    /* \"#utility.yul\":307:339   */\n  slt\n    /* \"#utility.yul\":304:356   */\n  iszero\n  tag_28\n  jumpi\n    /* \"#utility.yul\":352:353   */\n  0x00\n    /* \"#utility.yul\":349:350   */\n  0x00\n    /* \"#utility.yul\":342:354   */\n  revert\n    /* \"#utility.yul\":304:356   */\ntag_28:\n    /* \"#utility.yul\":375:415   */\n  tag_29\n    /* \"#utility.yul\":405:414   */\n  dup4\n    /* \"#utility.yul\":375:415   */\n  tag_23\n  jump\t// in\ntag_29:\n    /* \"#utility.yul\":365:415   */\n  swap2\n  pop\n    /* \"#utility.yul\":434:483   */\n  tag_30\n    /* \"#utility.yul\":479:481   */\n  0x20\n    /* \"#utility.yul\":468:477   */\n  dup5\n    /* \"#utility.yul\":464:482   */\n  add\n    /* \"#utility.yul\":434:483   */\n  tag_23\n  jump\t// in\ntag_30:\n    /* \"#utility.yul\":424:483   */\n  swap1\n  pop\n    /* \"#utility.yul\":196:489   */\n  swap3\n  pop\n  swap3\n  swap1\n  pop\n  jump\t// out\n    /* \"#utility.yul\":1052:1400   */\ntag_24:\n    /* \"contracts/GMMCArcade.sol\":374:8654  contract GMMCArcade is Ownable, ReentrancyGuard {... */\n  mload(0x80)\n  codecopy(0x00, dataOffset(sub_0), dataSize(sub_0))\n  0x00\n  assignImmutable(\"0x2757844bcba802ce24af88f7c8fd3438a9a94d6eea4d1e58913fbc1440605b8d\")\n  return(0x00, dataSize(sub_0))\nstop\n\nsub_0: assembly {\n        /* \"contracts/GMMCArcade.sol\":374:8654  contract GMMCArcade is Ownable, ReentrancyGuard {... */\n      mstore(0x40, 0x80)\n      callvalue\n      dup1\n      iszero\n      tag_1\n      jumpi\n      revert(0x00, 0x00)\n    tag_1:\n      pop\n      jumpi(tag_2, lt(calldatasize, 0x04))\n      shr(0xe0, calldataload(0x00))\n      dup1\n      0xb85cf54e\n      gt\n      tag_26\n      jumpi\n      dup1\n      0xeb770d0c\n      gt\n      tag_27\n      jumpi\n      dup1\n      0xeb770d0c\n      eq\n      tag_20\n      jumpi\n      dup1\n      0xf041df46\n      eq\n      tag_21\n      jumpi\n      dup1\n      0xf0f44260\n      eq\n      tag_22\n      jumpi\n      dup1\n      0xf1a95842\n      eq\n      tag_23\n      jumpi\n      dup1\n      0xf2fde38b\n      eq\n      tag_24\n      jumpi\n      dup1\n      0xf7341f0c\n      eq\n      tag_25\n      jumpi\n      revert(0x00, 0x00)\n    tag_27:\n      dup1\n      0xb85cf54e\n      eq\n      tag_14\n      jumpi\n      dup1\n      0xbf368399\n      eq\n      tag_15\n      jumpi\n      dup1\n      0xcdafbbb6\n      eq\n      tag_16\n      jumpi\n      dup1\n      0xd4e355bc\n      eq\n      tag_17\n      jumpi\n      dup1\n      0xd854fb75\n      eq\n      tag_18\n      jumpi\n      dup1\n      0xdb2e21bc\n      eq\n      tag_19\n      jumpi\n      revert(0x00, 0x00)\n    tag_26:\n      dup1\n      0x66666aa9\n      gt\n      tag_28\n      jumpi\n      dup1\n      0x66666aa9\n      eq\n      tag_8\n      jumpi\n      dup1\n      0x6898f82b\n      eq\n      tag_9\n      jumpi\n      dup1\n      0x6d763a6e\n      eq\n      tag_10\n      jumpi\n      dup1\n      0x715018a6\n      eq\n      tag_11\n      jumpi\n      dup1\n      0x87c9439d\n      eq\n      tag_12\n      jumpi\n      dup1\n      0x8da5cb5b\n      eq\n      tag_13\n      jumpi\n      revert(0x00, 0x00)\n    tag_28:\n      dup1\n      0x072ea61c\n      eq\n      tag_3\n      jumpi\n      dup1\n      0x143ba4f3\n      eq\n      tag_4\n      jumpi\n      dup1\n      0x1b3e4db1\n      eq\n      tag_5\n      jumpi\n      dup1\n      0x4fd66eae\n      eq\n      tag_6\n      jumpi\n      dup1\n      0x61d027b3\n      eq\n      tag_7\n      jumpi\n    tag_2:\n      revert(0x00, 0x00)\n        /* \"contracts/GMMCArcade.sol\":557:597  uint256 public entryFee = 10000 * 10**18 */\n    tag_3:\n      tag_29\n      sload(0x02)\n      dup2\n      jump\n    tag_29:\n      mload(0x40)\n        /* \"#utility.yul\":160:185   */\n      swap1\n      dup2\n      mstore\n        /* \"#utility.yul\":148:150   */\n      0x20\n        /* \"#utility.yul\":133:151   */\n      add\n        /* \"contracts/GMMCArcade.sol\":557:597  uint256 public entryFee = 10000 * 10**18 */\n    tag_31:\n      mload(0x40)\n      dup1\n      swap2\n      sub\n      swap1\n      return\n        /* \"contracts/GMMCArcade.sol\":7501:8275  function distributeRewards(... */\n    tag_4:\n      tag_33\n      tag_34\n      calldatasize\n      0x04\n      tag_35\n      jump\t// in\n    tag_34:\n      tag_36\n      jump\t// in\n    tag_33:\n      stop\n        /* \"contracts/GMMCArcade.sol\":6061:6165  function getLeaderboardSize() external view returns (uint256) {... */\n    tag_5:\n        /* \"contracts/GMMCArcade.sol\":6140:6151  leaderboard */\n      0x05\n        /* \"contracts/GMMCArcade.sol\":6140:6158  leaderboard.length */\n      sload\n        /* \"contracts/GMMCArcade.sol\":6061:6165  function getLeaderboardSize() external view returns (uint256) {... */\n      jump(tag_29)\n        /* \"contracts/GMMCArcade.sol\":5708:5834  function getPlayerStats(address player) external view returns (PlayerStats memory) {... */\n    tag_6:\n      tag_40\n      tag_41\n      calldatasize\n      0x04\n      tag_42\n      jump\t// in\n    tag_41:\n      tag_43\n      jump\t// in\n    tag_40:\n      mload(0x40)\n      tag_31\n      swap2\n      swap1\n        /* \"#utility.yul\":1853:1866   */\n      dup2\n      mload\n        /* \"#utility.yul\":1835:1867   */\n      dup2\n      mstore\n        /* \"#utility.yul\":1923:1927   */\n      0x20\n        /* \"#utility.yul\":1911:1928   */\n      dup1\n      dup4\n      add\n        /* \"#utility.yul\":1905:1929   */\n      mload\n        /* \"#utility.yul\":1883:1903   */\n      swap1\n      dup3\n      add\n        /* \"#utility.yul\":1876:1930   */\n      mstore\n        /* \"#utility.yul\":1986:1990   */\n      0x40\n        /* \"#utility.yul\":1974:1991   */\n      dup1\n      dup4\n      add\n        /* \"#utility.yul\":1968:1992   */\n      mload\n        /* \"#utility.yul\":1946:1966   */\n      swap1\n      dup3\n      add\n        /* \"#utility.yul\":1939:1993   */\n      mstore\n        /* \"#utility.yul\":2049:2053   */\n      0x60\n        /* \"#utility.yul\":2037:2054   */\n      swap2\n      dup3\n      add\n        /* \"#utility.yul\":2031:2055   */\n      mload\n        /* \"#utility.yul\":2009:2029   */\n      swap2\n      dup2\n      add\n        /* \"#utility.yul\":2002:2056   */\n      swap2\n      swap1\n      swap2\n      mstore\n        /* \"#utility.yul\":1822:1825   */\n      0x80\n        /* \"#utility.yul\":1807:1826   */\n      add\n      swap1\n        /* \"#utility.yul\":1632:2062   */\n      jump\n        /* \"contracts/GMMCArcade.sol\":783:806  address public treasury */\n    tag_7:\n      sload(0x04)\n      tag_46\n      swap1\n      sub(shl(0xa0, 0x01), 0x01)\n      and\n      dup2\n      jump\n    tag_46:\n      mload(0x40)\n      sub(shl(0xa0, 0x01), 0x01)\n        /* \"#utility.yul\":2231:2263   */\n      swap1\n      swap2\n      and\n        /* \"#utility.yul\":2213:2264   */\n      dup2\n      mstore\n        /* \"#utility.yul\":2201:2203   */\n      0x20\n        /* \"#utility.yul\":2186:2204   */\n      add\n        /* \"contracts/GMMCArcade.sol\":783:806  address public treasury */\n      tag_31\n        /* \"#utility.yul\":2067:2270   */\n      jump\n        /* \"contracts/GMMCArcade.sol\":1374:1399  uint256 public rewardPool */\n    tag_8:\n      tag_29\n      sload(0x08)\n      dup2\n      jump\n        /* \"contracts/GMMCArcade.sol\":2242:3455  function play(uint256 score) external nonReentrant {... */\n    tag_9:\n      tag_33\n      tag_54\n      calldatasize\n      0x04\n      tag_55\n      jump\t// in\n    tag_54:\n      tag_56\n      jump\t// in\n        /* \"contracts/GMMCArcade.sol\":4854:4965  function getLeaderboard() external view returns (LeaderboardEntry[] memory) {... */\n    tag_10:\n      tag_57\n      tag_58\n      jump\t// in\n    tag_57:\n      mload(0x40)\n      tag_31\n      swap2\n      swap1\n      tag_60\n      jump\t// in\n        /* \"@openzeppelin/contracts/access/Ownable.sol\":2293:2394  function renounceOwnership() public virtual onlyOwner {... */\n    tag_11:\n      tag_33\n      tag_62\n      jump\t// in\n        /* \"contracts/GMMCArcade.sol\":7142:7309  function setMaxLeaderboardSize(uint256 _size) external onlyOwner {... */\n    tag_12:\n      tag_33\n      tag_64\n      calldatasize\n      0x04\n      tag_55\n      jump\t// in\n    tag_64:\n      tag_65\n      jump\t// in\n        /* \"@openzeppelin/contracts/access/Ownable.sol\":1638:1723  function owner() public view virtual returns (address) {... */\n    tag_13:\n        /* \"@openzeppelin/contracts/access/Ownable.sol\":1684:1691  address */\n      0x00\n        /* \"@openzeppelin/contracts/access/Ownable.sol\":1710:1716  _owner */\n      sload\n      sub(shl(0xa0, 0x01), 0x01)\n      and\n        /* \"@openzeppelin/contracts/access/Ownable.sol\":1638:1723  function owner() public view virtual returns (address) {... */\n      jump(tag_46)\n        /* \"contracts/GMMCArcade.sol\":699:739  uint256 public rewardPoolPercentage = 80 */\n    tag_14:\n      tag_29\n      sload(0x03)\n      dup2\n      jump\n        /* \"contracts/GMMCArcade.sol\":1167:1204  LeaderboardEntry[] public leaderboard */\n    tag_15:\n      tag_72\n      tag_73\n      calldatasize\n      0x04\n      tag_55\n      jump\t// in\n    tag_73:\n      tag_74\n      jump\t// in\n    tag_72:\n      0x40\n      dup1\n      mload\n      sub(shl(0xa0, 0x01), 0x01)\n        /* \"#utility.yul\":3574:3606   */\n      swap1\n      swap5\n      and\n        /* \"#utility.yul\":3556:3607   */\n      dup5\n      mstore\n        /* \"#utility.yul\":3638:3640   */\n      0x20\n        /* \"#utility.yul\":3623:3641   */\n      dup5\n      add\n        /* \"#utility.yul\":3616:3650   */\n      swap3\n      swap1\n      swap3\n      mstore\n        /* \"#utility.yul\":3666:3684   */\n      swap1\n      dup3\n      add\n        /* \"#utility.yul\":3659:3693   */\n      mstore\n        /* \"#utility.yul\":3544:3546   */\n      0x60\n        /* \"#utility.yul\":3529:3547   */\n      add\n        /* \"contracts/GMMCArcade.sol\":1167:1204  LeaderboardEntry[] public leaderboard */\n      tag_31\n        /* \"#utility.yul\":3354:3699   */\n      jump\n        /* \"contracts/GMMCArcade.sol\":1288:1338  mapping(address => PlayerStats) public playerStats */\n    tag_16:\n      tag_77\n      tag_78\n      calldatasize\n      0x04\n      tag_42\n      jump\t// in\n    tag_78:\n      mstore(0x20, 0x07)\n      0x00\n      swap1\n      dup2\n      mstore\n      0x40\n      swap1\n      keccak256\n      dup1\n      sload\n      0x01\n      dup3\n      add\n      sload\n      0x02\n      dup4\n      add\n      sload\n      0x03\n      swap1\n      swap4\n      add\n      sload\n      swap2\n      swap3\n      swap1\n      swap2\n      dup5\n      jump\n    tag_77:\n      0x40\n      dup1\n      mload\n        /* \"#utility.yul\":3935:3960   */\n      swap5\n      dup6\n      mstore\n        /* \"#utility.yul\":3991:3993   */\n      0x20\n        /* \"#utility.yul\":3976:3994   */\n      dup6\n      add\n        /* \"#utility.yul\":3969:4003   */\n      swap4\n      swap1\n      swap4\n      mstore\n        /* \"#utility.yul\":4019:4037   */\n      swap2\n      dup4\n      add\n        /* \"#utility.yul\":4012:4046   */\n      mstore\n        /* \"#utility.yul\":4077:4079   */\n      0x60\n        /* \"#utility.yul\":4062:4080   */\n      dup3\n      add\n        /* \"#utility.yul\":4055:4089   */\n      mstore\n        /* \"#utility.yul\":3922:3925   */\n      0x80\n        /* \"#utility.yul\":3907:3926   */\n      add\n        /* \"contracts/GMMCArcade.sol\":1288:1338  mapping(address => PlayerStats) public playerStats */\n      tag_31\n        /* \"#utility.yul\":3704:4095   */\n      jump\n        /* \"contracts/GMMCArcade.sol\":5035:5653  function getLeaderboardPaginated(uint256 offset, uint256 limit) ... */\n    tag_17:\n      tag_57\n      tag_83\n      calldatasize\n      0x04\n      tag_84\n      jump\t// in\n    tag_83:\n      tag_85\n      jump\t// in\n        /* \"contracts/GMMCArcade.sol\":5904:6002  function getRewardPoolBalance() external view returns (uint256) {... */\n    tag_18:\n        /* \"contracts/GMMCArcade.sol\":5985:5995  rewardPool */\n      sload(0x08)\n        /* \"contracts/GMMCArcade.sol\":5904:6002  function getRewardPoolBalance() external view returns (uint256) {... */\n      jump(tag_29)\n        /* \"contracts/GMMCArcade.sol\":8345:8652  function emergencyWithdraw() external onlyOwner {... */\n    tag_19:\n      tag_33\n      tag_91\n      jump\t// in\n        /* \"contracts/GMMCArcade.sol\":6261:6452  function setEntryFee(uint256 _newFee) external onlyOwner {... */\n    tag_20:\n      tag_33\n      tag_93\n      calldatasize\n      0x04\n      tag_55\n      jump\t// in\n    tag_93:\n      tag_94\n      jump\t// in\n        /* \"contracts/GMMCArcade.sol\":1210:1249  uint256 public maxLeaderboardSize = 100 */\n    tag_21:\n      tag_29\n      sload(0x06)\n      dup2\n      jump\n        /* \"contracts/GMMCArcade.sol\":6856:7063  function setTreasury(address _treasury) external onlyOwner {... */\n    tag_22:\n      tag_33\n      tag_99\n      calldatasize\n      0x04\n      tag_42\n      jump\t// in\n    tag_99:\n      tag_100\n      jump\t// in\n        /* \"contracts/GMMCArcade.sol\":6533:6781  function setRewardPoolPercentage(uint256 _percentage) external onlyOwner {... */\n    tag_23:\n      tag_33\n      tag_102\n      calldatasize\n      0x04\n      tag_55\n      jump\t// in\n    tag_102:\n      tag_103\n      jump\t// in\n        /* \"@openzeppelin/contracts/access/Ownable.sol\":2543:2758  function transferOwnership(address newOwner) public virtual onlyOwner {... */\n    tag_24:\n      tag_33\n      tag_105\n      calldatasize\n      0x04\n      tag_42\n      jump\t// in\n    tag_105:\n      tag_106\n      jump\t// in\n        /* \"contracts/GMMCArcade.sol\":462:495  IERC20 public immutable gmmcToken */\n    tag_25:\n      tag_46\n      immutable(\"0x2757844bcba802ce24af88f7c8fd3438a9a94d6eea4d1e58913fbc1440605b8d\")\n      dup2\n      jump\n        /* \"contracts/GMMCArcade.sol\":7501:8275  function distributeRewards(... */\n    tag_36:\n        /* \"@openzeppelin/contracts/access/Ownable.sol\":1531:1544  _checkOwner() */\n      tag_112\n        /* \"@openzeppelin/contracts/access/Ownable.sol\":1531:1542  _checkOwner */\n      tag_113\n        /* \"@openzeppelin/contracts/access/Ownable.sol\":1531:1544  _checkOwner() */\n      jump\t// in\n    tag_112:\n        /* \"@openzeppelin/contracts/utils/ReentrancyGuard.sol\":2500:2521  _nonReentrantBefore() */\n      tag_115\n        /* \"@openzeppelin/contracts/utils/ReentrancyGuard.sol\":2500:2519  _nonReentrantBefore */\n      tag_116\n        /* \"@openzeppelin/contracts/utils/ReentrancyGuard.sol\":2500:2521  _nonReentrantBefore() */\n      jump\t// in\n    tag_115:\n        /* \"contracts/GMMCArcade.sol\":7659:7694  recipients.length == amounts.length */\n      dup3\n      dup2\n      eq\n        /* \"contracts/GMMCArcade.sol\":7651:7721  require(recipients.length == amounts.length, \"Arrays length mismatch\") */\n      tag_118\n      jumpi\n      mload(0x40)\n      shl(0xe5, 0x461bcd)\n      dup2\n      mstore\n        /* \"#utility.yul\":4875:4877   */\n      0x20\n        /* \"contracts/GMMCArcade.sol\":7651:7721  require(recipients.length == amounts.length, \"Arrays length mismatch\") */\n      0x04\n      dup3\n      add\n        /* \"#utility.yul\":4857:4878   */\n      mstore\n        /* \"#utility.yul\":4914:4916   */\n      0x16\n        /* \"#utility.yul\":4894:4912   */\n      0x24\n      dup3\n      add\n        /* \"#utility.yul\":4887:4917   */\n      mstore\n      shl(0x53, 0x082e4e4c2f2e640d8cadccee8d040dad2e6dac2e8c6d)\n        /* \"#utility.yul\":4933:4951   */\n      0x44\n      dup3\n      add\n        /* \"#utility.yul\":4926:4978   */\n      mstore\n        /* \"#utility.yul\":4995:5013   */\n      0x64\n      add\n        /* \"contracts/GMMCArcade.sol\":7651:7721  require(recipients.length == amounts.length, \"Arrays length mismatch\") */\n    tag_119:\n      mload(0x40)\n      dup1\n      swap2\n      sub\n      swap1\n      revert\n    tag_118:\n        /* \"contracts/GMMCArcade.sol\":7740:7759  uint256 totalAmount */\n      0x00\n      dup1\n        /* \"contracts/GMMCArcade.sol\":7773:7868  for (uint256 i = 0; i < amounts.length; i++) {... */\n    tag_121:\n        /* \"contracts/GMMCArcade.sol\":7793:7811  i < amounts.length */\n      dup3\n      dup2\n      lt\n        /* \"contracts/GMMCArcade.sol\":7773:7868  for (uint256 i = 0; i < amounts.length; i++) {... */\n      iszero\n      tag_122\n      jumpi\n        /* \"contracts/GMMCArcade.sol\":7847:7854  amounts */\n      dup4\n      dup4\n        /* \"contracts/GMMCArcade.sol\":7855:7856  i */\n      dup3\n        /* \"contracts/GMMCArcade.sol\":7847:7857  amounts[i] */\n      dup2\n      dup2\n      lt\n      tag_125\n      jumpi\n      tag_125\n      tag_126\n      jump\t// in\n    tag_125:\n      swap1\n      pop\n      0x20\n      mul\n      add\n      calldataload\n        /* \"contracts/GMMCArcade.sol\":7832:7857  totalAmount += amounts[i] */\n      dup3\n      tag_127\n      swap2\n      swap1\n      tag_128\n      jump\t// in\n    tag_127:\n      swap2\n      pop\n        /* \"contracts/GMMCArcade.sol\":7813:7816  i++ */\n      0x01\n      add\n        /* \"contracts/GMMCArcade.sol\":7773:7868  for (uint256 i = 0; i < amounts.length; i++) {... */\n      jump(tag_121)\n    tag_122:\n      pop\n        /* \"contracts/GMMCArcade.sol\":7909:7919  rewardPool */\n      sload(0x08)\n        /* \"contracts/GMMCArcade.sol\":7894:7905  totalAmount */\n      dup2\n        /* \"contracts/GMMCArcade.sol\":7894:7919  totalAmount <= rewardPool */\n      gt\n      iszero\n        /* \"contracts/GMMCArcade.sol\":7886:7948  require(totalAmount <= rewardPool, \"Insufficient reward pool\") */\n      tag_129\n      jumpi\n      mload(0x40)\n      shl(0xe5, 0x461bcd)\n      dup2\n      mstore\n        /* \"#utility.yul\":5620:5622   */\n      0x20\n        /* \"contracts/GMMCArcade.sol\":7886:7948  require(totalAmount <= rewardPool, \"Insufficient reward pool\") */\n      0x04\n      dup3\n      add\n        /* \"#utility.yul\":5602:5623   */\n      mstore\n        /* \"#utility.yul\":5659:5661   */\n      0x18\n        /* \"#utility.yul\":5639:5657   */\n      0x24\n      dup3\n      add\n        /* \"#utility.yul\":5632:5662   */\n      mstore\n        /* \"#utility.yul\":5698:5724   */\n      0x496e73756666696369656e742072657761726420706f6f6c0000000000000000\n        /* \"#utility.yul\":5678:5696   */\n      0x44\n      dup3\n      add\n        /* \"#utility.yul\":5671:5725   */\n      mstore\n        /* \"#utility.yul\":5742:5760   */\n      0x64\n      add\n        /* \"contracts/GMMCArcade.sol\":7886:7948  require(totalAmount <= rewardPool, \"Insufficient reward pool\") */\n      tag_119\n        /* \"#utility.yul\":5418:5766   */\n      jump\n        /* \"contracts/GMMCArcade.sol\":7886:7948  require(totalAmount <= rewardPool, \"Insufficient reward pool\") */\n    tag_129:\n        /* \"contracts/GMMCArcade.sol\":7981:7992  totalAmount */\n      dup1\n        /* \"contracts/GMMCArcade.sol\":7967:7977  rewardPool */\n      0x08\n      0x00\n        /* \"contracts/GMMCArcade.sol\":7967:7992  rewardPool -= totalAmount */\n      dup3\n      dup3\n      sload\n      tag_132\n      swap2\n      swap1\n      tag_133\n      jump\t// in\n    tag_132:\n      swap1\n      swap2\n      sstore\n      pop\n        /* \"contracts/GMMCArcade.sol\":8016:8025  uint256 i */\n      0x00\n      swap1\n      pop\n        /* \"contracts/GMMCArcade.sol\":8011:8269  for (uint256 i = 0; i < recipients.length; i++) {... */\n    tag_134:\n        /* \"contracts/GMMCArcade.sol\":8031:8052  i < recipients.length */\n      dup5\n      dup2\n      lt\n        /* \"contracts/GMMCArcade.sol\":8011:8269  for (uint256 i = 0; i < recipients.length; i++) {... */\n      iszero\n      tag_135\n      jumpi\n        /* \"contracts/GMMCArcade.sol\":8098:8107  gmmcToken */\n      immutable(\"0x2757844bcba802ce24af88f7c8fd3438a9a94d6eea4d1e58913fbc1440605b8d\")\n      sub(shl(0xa0, 0x01), 0x01)\n        /* \"contracts/GMMCArcade.sol\":8098:8116  gmmcToken.transfer */\n      and\n      0xa9059cbb\n        /* \"contracts/GMMCArcade.sol\":8117:8127  recipients */\n      dup8\n      dup8\n        /* \"contracts/GMMCArcade.sol\":8128:8129  i */\n      dup5\n        /* \"contracts/GMMCArcade.sol\":8117:8130  recipients[i] */\n      dup2\n      dup2\n      lt\n      tag_138\n      jumpi\n      tag_138\n      tag_126\n      jump\t// in\n    tag_138:\n      swap1\n      pop\n      0x20\n      mul\n      add\n      0x20\n      dup2\n      add\n      swap1\n      tag_139\n      swap2\n      swap1\n      tag_42\n      jump\t// in\n    tag_139:\n        /* \"contracts/GMMCArcade.sol\":8132:8139  amounts */\n      dup7\n      dup7\n        /* \"contracts/GMMCArcade.sol\":8140:8141  i */\n      dup6\n        /* \"contracts/GMMCArcade.sol\":8132:8142  amounts[i] */\n      dup2\n      dup2\n      lt\n      tag_141\n      jumpi\n      tag_141\n      tag_126\n      jump\t// in\n    tag_141:\n        /* \"contracts/GMMCArcade.sol\":8098:8143  gmmcToken.transfer(recipients[i], amounts[i]) */\n      mload(0x40)\n      not(sub(shl(0xe0, 0x01), 0x01))\n      0xe0\n      dup8\n      swap1\n      shl\n      and\n      dup2\n      mstore\n      sub(shl(0xa0, 0x01), 0x01)\n        /* \"#utility.yul\":6096:6128   */\n      swap1\n      swap5\n      and\n        /* \"contracts/GMMCArcade.sol\":8098:8143  gmmcToken.transfer(recipients[i], amounts[i]) */\n      0x04\n      dup6\n      add\n        /* \"#utility.yul\":6078:6129   */\n      mstore\n        /* \"contracts/GMMCArcade.sol\":8132:8142  amounts[i] */\n      0x20\n      mul\n      swap2\n      swap1\n      swap2\n      add\n      calldataload\n        /* \"#utility.yul\":6145:6163   */\n      0x24\n      dup4\n      add\n        /* \"#utility.yul\":6138:6172   */\n      mstore\n      pop\n        /* \"#utility.yul\":6051:6069   */\n      0x44\n      add\n        /* \"contracts/GMMCArcade.sol\":8098:8143  gmmcToken.transfer(recipients[i], amounts[i]) */\n      0x20\n      mload(0x40)\n      dup1\n      dup4\n      sub\n      dup2\n      0x00\n      dup8\n      gas\n      call\n      iszero\n      dup1\n      iszero\n      tag_145\n      jumpi\n      returndatacopy(0x00, 0x00, returndatasize)\n      revert(0x00, returndatasize)\n    tag_145:\n      pop\n      pop\n      pop\n      pop\n      mload(0x40)\n      returndatasize\n      not(0x1f)\n      0x1f\n      dup3\n      add\n      and\n      dup3\n      add\n      dup1\n      0x40\n      mstore\n      pop\n      dup2\n      add\n      swap1\n      tag_146\n      swap2\n      swap1\n      tag_147\n      jump\t// in\n    tag_146:\n        /* \"contracts/GMMCArcade.sol\":8073:8199  require(... */\n      tag_148\n      jumpi\n      mload(0x40)\n      shl(0xe5, 0x461bcd)\n      dup2\n      mstore\n        /* \"#utility.yul\":6667:6669   */\n      0x20\n        /* \"contracts/GMMCArcade.sol\":8073:8199  require(... */\n      0x04\n      dup3\n      add\n        /* \"#utility.yul\":6649:6670   */\n      mstore\n        /* \"#utility.yul\":6706:6708   */\n      0x16\n        /* \"#utility.yul\":6686:6704   */\n      0x24\n      dup3\n      add\n        /* \"#utility.yul\":6679:6709   */\n      mstore\n      shl(0x52, 0x14995dd85c99081d1c985b9cd9995c8819985a5b1959)\n        /* \"#utility.yul\":6725:6743   */\n      0x44\n      dup3\n      add\n        /* \"#utility.yul\":6718:6770   */\n      mstore\n        /* \"#utility.yul\":6787:6805   */\n      0x64\n      add\n        /* \"contracts/GMMCArcade.sol\":8073:8199  require(... */\n      tag_119\n        /* \"#utility.yul\":6465:6811   */\n      jump\n        /* \"contracts/GMMCArcade.sol\":8073:8199  require(... */\n    tag_148:\n        /* \"contracts/GMMCArcade.sol\":8232:8242  recipients */\n      dup6\n      dup6\n        /* \"contracts/GMMCArcade.sol\":8243:8244  i */\n      dup3\n        /* \"contracts/GMMCArcade.sol\":8232:8245  recipients[i] */\n      dup2\n      dup2\n      lt\n      tag_152\n      jumpi\n      tag_152\n      tag_126\n      jump\t// in\n    tag_152:\n      swap1\n      pop\n      0x20\n      mul\n      add\n      0x20\n      dup2\n      add\n      swap1\n      tag_153\n      swap2\n      swap1\n      tag_42\n      jump\t// in\n    tag_153:\n      sub(shl(0xa0, 0x01), 0x01)\n        /* \"contracts/GMMCArcade.sol\":8218:8258  RewardClaimed(recipients[i], amounts[i]) */\n      and\n      0x106f923f993c2149d49b4255ff723acafa1f2d94393f561d3eda32ae348f7241\n        /* \"contracts/GMMCArcade.sol\":8247:8254  amounts */\n      dup6\n      dup6\n        /* \"contracts/GMMCArcade.sol\":8255:8256  i */\n      dup5\n        /* \"contracts/GMMCArcade.sol\":8247:8257  amounts[i] */\n      dup2\n      dup2\n      lt\n      tag_155\n      jumpi\n      tag_155\n      tag_126\n      jump\t// in\n    tag_155:\n      swap1\n      pop\n      0x20\n      mul\n      add\n      calldataload\n        /* \"contracts/GMMCArcade.sol\":8218:8258  RewardClaimed(recipients[i], amounts[i]) */\n      mload(0x40)\n      tag_156\n      swap2\n        /* \"#utility.yul\":160:185   */\n      dup2\n      mstore\n        /* \"#utility.yul\":148:150   */\n      0x20\n        /* \"#utility.yul\":133:151   */\n      add\n      swap1\n        /* \"#utility.yul\":14:191   */\n      jump\n        /* \"contracts/GMMCArcade.sol\":8218:8258  RewardClaimed(recipients[i], amounts[i]) */\n    tag_156:\n      mload(0x40)\n      dup1\n      swap2\n      sub\n      swap1\n      log2\n        /* \"contracts/GMMCArcade.sol\":8054:8057  i++ */\n      0x01\n      add\n        /* \"contracts/GMMCArcade.sol\":8011:8269  for (uint256 i = 0; i < recipients.length; i++) {... */\n      jump(tag_134)\n    tag_135:\n      pop\n        /* \"contracts/GMMCArcade.sol\":7641:8275  {... */\n      pop\n        /* \"@openzeppelin/contracts/utils/ReentrancyGuard.sol\":2542:2562  _nonReentrantAfter() */\n      tag_157\n        /* \"@openzeppelin/contracts/utils/ReentrancyGuard.sol\":1857:1858  1 */\n      0x01\n        /* \"@openzeppelin/contracts/utils/ReentrancyGuard.sol\":3068:3089  _status = NOT_ENTERED */\n      dup1\n      sstore\n        /* \"@openzeppelin/contracts/utils/ReentrancyGuard.sol\":2888:3096  function _nonReentrantAfter() private {... */\n      jump\n        /* \"@openzeppelin/contracts/utils/ReentrancyGuard.sol\":2542:2562  _nonReentrantAfter() */\n    tag_157:\n        /* \"contracts/GMMCArcade.sol\":7501:8275  function distributeRewards(... */\n      pop\n      pop\n      pop\n      pop\n      jump\t// out\n        /* \"contracts/GMMCArcade.sol\":5708:5834  function getPlayerStats(address player) external view returns (PlayerStats memory) {... */\n    tag_43:\n        /* \"contracts/GMMCArcade.sol\":5771:5789  PlayerStats memory */\n      tag_160\n      mload(0x40)\n      dup1\n      0x80\n      add\n      0x40\n      mstore\n      dup1\n      0x00\n      dup2\n      mstore\n      0x20\n      add\n      0x00\n      dup2\n      mstore\n      0x20\n      add\n      0x00\n      dup2\n      mstore\n      0x20\n      add\n      0x00\n      dup2\n      mstore\n      pop\n      swap1\n      jump\n    tag_160:\n      pop\n      sub(shl(0xa0, 0x01), 0x01)\n        /* \"contracts/GMMCArcade.sol\":5808:5827  playerStats[player] */\n      and\n      0x00\n      swap1\n      dup2\n      mstore\n        /* \"contracts/GMMCArcade.sol\":5808:5819  playerStats */\n      0x07\n        /* \"contracts/GMMCArcade.sol\":5808:5827  playerStats[player] */\n      0x20\n      swap1\n      dup2\n      mstore\n      0x40\n      swap2\n      dup3\n      swap1\n      keccak256\n        /* \"contracts/GMMCArcade.sol\":5801:5827  return playerStats[player] */\n      dup3\n      mload\n      0x80\n      dup2\n      add\n      dup5\n      mstore\n      dup2\n      sload\n      dup2\n      mstore\n      0x01\n      dup3\n      add\n      sload\n      swap3\n      dup2\n      add\n      swap3\n      swap1\n      swap3\n      mstore\n      0x02\n      dup2\n      add\n      sload\n      swap3\n      dup3\n      add\n      swap3\n      swap1\n      swap3\n      mstore\n      0x03\n      swap1\n      swap2\n      add\n      sload\n      0x60\n      dup3\n      add\n      mstore\n      swap1\n        /* \"contracts/GMMCArcade.sol\":5708:5834  function getPlayerStats(address player) external view returns (PlayerStats memory) {... */\n      jump\t// out\n        /* \"contracts/GMMCArcade.sol\":2242:3455  function play(uint256 score) external nonReentrant {... */\n    tag_56:\n        /* \"@openzeppelin/contracts/utils/ReentrancyGuard.sol\":2500:2521  _nonReentrantBefore() */\n      tag_164\n        /* \"@openzeppelin/contracts/utils/ReentrancyGuard.sol\":2500:2519  _nonReentrantBefore */\n      tag_116\n        /* \"@openzeppelin/contracts/utils/ReentrancyGuard.sol\":2500:2521  _nonReentrantBefore() */\n      jump\t// in\n    tag_164:\n        /* \"contracts/GMMCArcade.sol\":2319:2320  0 */\n      0x00\n        /* \"contracts/GMMCArcade.sol\":2311:2316  score */\n      dup2\n        /* \"contracts/GMMCArcade.sol\":2311:2320  score > 0 */\n      gt\n        /* \"contracts/GMMCArcade.sol\":2311:2338  score > 0 && score <= 15000 */\n      dup1\n      iszero\n      tag_166\n      jumpi\n      pop\n        /* \"contracts/GMMCArcade.sol\":2333:2338  15000 */\n      0x3a98\n        /* \"contracts/GMMCArcade.sol\":2324:2329  score */\n      dup2\n        /* \"contracts/GMMCArcade.sol\":2324:2338  score <= 15000 */\n      gt\n      iszero\n        /* \"contracts/GMMCArcade.sol\":2311:2338  score > 0 && score <= 15000 */\n    tag_166:\n        /* \"contracts/GMMCArcade.sol\":2303:2362  require(score > 0 && score <= 15000, \"Invalid score range\") */\n      tag_167\n      jumpi\n      mload(0x40)\n      shl(0xe5, 0x461bcd)\n      dup2\n      mstore\n        /* \"#utility.yul\":7018:7020   */\n      0x20\n        /* \"contracts/GMMCArcade.sol\":2303:2362  require(score > 0 && score <= 15000, \"Invalid score range\") */\n      0x04\n      dup3\n      add\n        /* \"#utility.yul\":7000:7021   */\n      mstore\n        /* \"#utility.yul\":7057:7059   */\n      0x13\n        /* \"#utility.yul\":7037:7055   */\n      0x24\n      dup3\n      add\n        /* \"#utility.yul\":7030:7060   */\n      mstore\n      shl(0x68, 0x496e76616c69642073636f72652072616e6765)\n        /* \"#utility.yul\":7076:7094   */\n      0x44\n      dup3\n      add\n        /* \"#utility.yul\":7069:7118   */\n      mstore\n        /* \"#utility.yul\":7135:7153   */\n      0x64\n      add\n        /* \"contracts/GMMCArcade.sol\":2303:2362  require(score > 0 && score <= 15000, \"Invalid score range\") */\n      tag_119\n        /* \"#utility.yul\":6816:7159   */\n      jump\n        /* \"contracts/GMMCArcade.sol\":2303:2362  require(score > 0 && score <= 15000, \"Invalid score range\") */\n    tag_167:\n        /* \"contracts/GMMCArcade.sol\":2494:2502  entryFee */\n      sload(0x02)\n        /* \"contracts/GMMCArcade.sol\":2444:2503  gmmcToken.transferFrom(msg.sender, address(this), entryFee) */\n      mload(0x40)\n      shl(0xe0, 0x23b872dd)\n      dup2\n      mstore\n        /* \"contracts/GMMCArcade.sol\":2467:2477  msg.sender */\n      caller\n        /* \"contracts/GMMCArcade.sol\":2444:2503  gmmcToken.transferFrom(msg.sender, address(this), entryFee) */\n      0x04\n      dup3\n      add\n        /* \"#utility.yul\":7366:7417   */\n      mstore\n        /* \"contracts/GMMCArcade.sol\":2487:2491  this */\n      address\n        /* \"#utility.yul\":7433:7451   */\n      0x24\n      dup3\n      add\n        /* \"#utility.yul\":7426:7486   */\n      mstore\n        /* \"#utility.yul\":7502:7520   */\n      0x44\n      dup2\n      add\n        /* \"#utility.yul\":7495:7529   */\n      swap2\n      swap1\n      swap2\n      mstore\n        /* \"contracts/GMMCArcade.sol\":2444:2453  gmmcToken */\n      immutable(\"0x2757844bcba802ce24af88f7c8fd3438a9a94d6eea4d1e58913fbc1440605b8d\")\n      sub(shl(0xa0, 0x01), 0x01)\n        /* \"contracts/GMMCArcade.sol\":2444:2466  gmmcToken.transferFrom */\n      and\n      swap1\n      0x23b872dd\n      swap1\n        /* \"#utility.yul\":7339:7357   */\n      0x64\n      add\n        /* \"contracts/GMMCArcade.sol\":2444:2503  gmmcToken.transferFrom(msg.sender, address(this), entryFee) */\n      0x20\n      mload(0x40)\n      dup1\n      dup4\n      sub\n      dup2\n      0x00\n      dup8\n      gas\n      call\n      iszero\n      dup1\n      iszero\n      tag_173\n      jumpi\n      returndatacopy(0x00, 0x00, returndatasize)\n      revert(0x00, returndatasize)\n    tag_173:\n      pop\n      pop\n      pop\n      pop\n      mload(0x40)\n      returndatasize\n      not(0x1f)\n      0x1f\n      dup3\n      add\n      and\n      dup3\n      add\n      dup1\n      0x40\n      mstore\n      pop\n      dup2\n      add\n      swap1\n      tag_174\n      swap2\n      swap1\n      tag_147\n      jump\t// in\n    tag_174:\n        /* \"contracts/GMMCArcade.sol\":2423:2554  require(... */\n      tag_175\n      jumpi\n      mload(0x40)\n      shl(0xe5, 0x461bcd)\n      dup2\n      mstore\n        /* \"#utility.yul\":7742:7744   */\n      0x20\n        /* \"contracts/GMMCArcade.sol\":2423:2554  require(... */\n      0x04\n      dup3\n      add\n        /* \"#utility.yul\":7724:7745   */\n      mstore\n        /* \"#utility.yul\":7781:7783   */\n      0x19\n        /* \"#utility.yul\":7761:7779   */\n      0x24\n      dup3\n      add\n        /* \"#utility.yul\":7754:7784   */\n      mstore\n        /* \"#utility.yul\":7820:7847   */\n      0x456e74727920666565207472616e73666572206661696c656400000000000000\n        /* \"#utility.yul\":7800:7818   */\n      0x44\n      dup3\n      add\n        /* \"#utility.yul\":7793:7848   */\n      mstore\n        /* \"#utility.yul\":7865:7883   */\n      0x64\n      add\n        /* \"contracts/GMMCArcade.sol\":2423:2554  require(... */\n      tag_119\n        /* \"#utility.yul\":7540:7889   */\n      jump\n        /* \"contracts/GMMCArcade.sol\":2423:2554  require(... */\n    tag_175:\n        /* \"contracts/GMMCArcade.sol\":2627:2645  uint256 poolAmount */\n      0x00\n        /* \"contracts/GMMCArcade.sol\":2684:2687  100 */\n      0x64\n        /* \"contracts/GMMCArcade.sol\":2660:2680  rewardPoolPercentage */\n      sload(0x03)\n        /* \"contracts/GMMCArcade.sol\":2649:2657  entryFee */\n      sload(0x02)\n        /* \"contracts/GMMCArcade.sol\":2649:2680  entryFee * rewardPoolPercentage */\n      tag_178\n      swap2\n      swap1\n      tag_179\n      jump\t// in\n    tag_178:\n        /* \"contracts/GMMCArcade.sol\":2648:2687  (entryFee * rewardPoolPercentage) / 100 */\n      tag_180\n      swap2\n      swap1\n      tag_181\n      jump\t// in\n    tag_180:\n        /* \"contracts/GMMCArcade.sol\":2627:2687  uint256 poolAmount = (entryFee * rewardPoolPercentage) / 100 */\n      swap1\n      pop\n        /* \"contracts/GMMCArcade.sol\":2697:2719  uint256 treasuryAmount */\n      0x00\n        /* \"contracts/GMMCArcade.sol\":2733:2743  poolAmount */\n      dup2\n        /* \"contracts/GMMCArcade.sol\":2722:2730  entryFee */\n      sload(0x02)\n        /* \"contracts/GMMCArcade.sol\":2722:2743  entryFee - poolAmount */\n      tag_182\n      swap2\n      swap1\n      tag_133\n      jump\t// in\n    tag_182:\n        /* \"contracts/GMMCArcade.sol\":2697:2743  uint256 treasuryAmount = entryFee - poolAmount */\n      swap1\n      pop\n        /* \"contracts/GMMCArcade.sol\":2776:2786  poolAmount */\n      dup2\n        /* \"contracts/GMMCArcade.sol\":2762:2772  rewardPool */\n      0x08\n      0x00\n        /* \"contracts/GMMCArcade.sol\":2762:2786  rewardPool += poolAmount */\n      dup3\n      dup3\n      sload\n      tag_183\n      swap2\n      swap1\n      tag_128\n      jump\t// in\n    tag_183:\n      swap1\n      swap2\n      sstore\n      pop\n      pop\n        /* \"contracts/GMMCArcade.sol\":2809:2827  treasuryAmount > 0 */\n      dup1\n      iszero\n        /* \"contracts/GMMCArcade.sol\":2805:2981  if (treasuryAmount > 0) {... */\n      tag_189\n      jumpi\n        /* \"contracts/GMMCArcade.sol\":2887:2895  treasury */\n      0x04\n      dup1\n      sload\n        /* \"contracts/GMMCArcade.sol\":2868:2912  gmmcToken.transfer(treasury, treasuryAmount) */\n      mload(0x40)\n      shl(0xe0, 0xa9059cbb)\n      dup2\n      mstore\n      sub(shl(0xa0, 0x01), 0x01)\n        /* \"contracts/GMMCArcade.sol\":2887:2895  treasury */\n      swap2\n      dup3\n      and\n        /* \"contracts/GMMCArcade.sol\":2868:2912  gmmcToken.transfer(treasury, treasuryAmount) */\n      swap3\n      dup2\n      add\n        /* \"#utility.yul\":6078:6129   */\n      swap3\n      swap1\n      swap3\n      mstore\n        /* \"#utility.yul\":6145:6163   */\n      0x24\n      dup3\n      add\n        /* \"#utility.yul\":6138:6172   */\n      dup4\n      swap1\n      mstore\n        /* \"contracts/GMMCArcade.sol\":2868:2877  gmmcToken */\n      immutable(\"0x2757844bcba802ce24af88f7c8fd3438a9a94d6eea4d1e58913fbc1440605b8d\")\n        /* \"contracts/GMMCArcade.sol\":2868:2886  gmmcToken.transfer */\n      and\n      swap1\n      0xa9059cbb\n      swap1\n        /* \"#utility.yul\":6051:6069   */\n      0x44\n      add\n        /* \"contracts/GMMCArcade.sol\":2868:2912  gmmcToken.transfer(treasury, treasuryAmount) */\n      0x20\n      mload(0x40)\n      dup1\n      dup4\n      sub\n      dup2\n      0x00\n      dup8\n      gas\n      call\n      iszero\n      dup1\n      iszero\n      tag_187\n      jumpi\n      returndatacopy(0x00, 0x00, returndatasize)\n      revert(0x00, returndatasize)\n    tag_187:\n      pop\n      pop\n      pop\n      pop\n      mload(0x40)\n      returndatasize\n      not(0x1f)\n      0x1f\n      dup3\n      add\n      and\n      dup3\n      add\n      dup1\n      0x40\n      mstore\n      pop\n      dup2\n      add\n      swap1\n      tag_188\n      swap2\n      swap1\n      tag_147\n      jump\t// in\n    tag_188:\n        /* \"contracts/GMMCArcade.sol\":2843:2970  require(... */\n      tag_189\n      jumpi\n      mload(0x40)\n      shl(0xe5, 0x461bcd)\n      dup2\n      mstore\n        /* \"#utility.yul\":8491:8493   */\n      0x20\n        /* \"contracts/GMMCArcade.sol\":2843:2970  require(... */\n      0x04\n      dup3\n      add\n        /* \"#utility.yul\":8473:8494   */\n      mstore\n        /* \"#utility.yul\":8530:8532   */\n      0x18\n        /* \"#utility.yul\":8510:8528   */\n      0x24\n      dup3\n      add\n        /* \"#utility.yul\":8503:8533   */\n      mstore\n        /* \"#utility.yul\":8569:8595   */\n      0x5472656173757279207472616e73666572206661696c65640000000000000000\n        /* \"#utility.yul\":8549:8567   */\n      0x44\n      dup3\n      add\n        /* \"#utility.yul\":8542:8596   */\n      mstore\n        /* \"#utility.yul\":8613:8631   */\n      0x64\n      add\n        /* \"contracts/GMMCArcade.sol\":2843:2970  require(... */\n      tag_119\n        /* \"#utility.yul\":8289:8637   */\n      jump\n        /* \"contracts/GMMCArcade.sol\":2843:2970  require(... */\n    tag_189:\n        /* \"contracts/GMMCArcade.sol\":3070:3080  msg.sender */\n      caller\n        /* \"contracts/GMMCArcade.sol\":3030:3055  PlayerStats storage stats */\n      0x00\n        /* \"contracts/GMMCArcade.sol\":3058:3081  playerStats[msg.sender] */\n      swap1\n      dup2\n      mstore\n        /* \"contracts/GMMCArcade.sol\":3058:3069  playerStats */\n      0x07\n        /* \"contracts/GMMCArcade.sol\":3058:3081  playerStats[msg.sender] */\n      0x20\n      mstore\n      0x40\n      dup2\n      keccak256\n        /* \"contracts/GMMCArcade.sol\":3091:3110  stats.gamesPlayed++ */\n      dup1\n      sload\n        /* \"contracts/GMMCArcade.sol\":3058:3081  playerStats[msg.sender] */\n      swap1\n      swap2\n      dup3\n      swap1\n        /* \"contracts/GMMCArcade.sol\":3091:3110  stats.gamesPlayed++ */\n      tag_192\n      dup4\n      tag_193\n      jump\t// in\n    tag_192:\n      swap2\n      swap1\n      pop\n      sstore\n      pop\n        /* \"contracts/GMMCArcade.sol\":3140:3145  score */\n      dup4\n        /* \"contracts/GMMCArcade.sol\":3120:3125  stats */\n      dup2\n        /* \"contracts/GMMCArcade.sol\":3120:3136  stats.totalScore */\n      0x02\n      add\n      0x00\n        /* \"contracts/GMMCArcade.sol\":3120:3145  stats.totalScore += score */\n      dup3\n      dup3\n      sload\n      tag_194\n      swap2\n      swap1\n      tag_128\n      jump\t// in\n    tag_194:\n      swap1\n      swap2\n      sstore\n      pop\n      pop\n        /* \"contracts/GMMCArcade.sol\":3176:3191  block.timestamp */\n      timestamp\n        /* \"contracts/GMMCArcade.sol\":3155:3173  stats.lastPlayedAt */\n      0x03\n      dup3\n      add\n        /* \"contracts/GMMCArcade.sol\":3155:3191  stats.lastPlayedAt = block.timestamp */\n      sstore\n        /* \"contracts/GMMCArcade.sol\":3222:3240  stats.highestScore */\n      0x01\n      dup2\n      add\n      sload\n        /* \"contracts/GMMCArcade.sol\":3214:3240  score > stats.highestScore */\n      dup5\n      gt\n        /* \"contracts/GMMCArcade.sol\":3210:3293  if (score > stats.highestScore) {... */\n      iszero\n      tag_195\n      jumpi\n        /* \"contracts/GMMCArcade.sol\":3256:3274  stats.highestScore */\n      0x01\n      dup2\n      add\n        /* \"contracts/GMMCArcade.sol\":3256:3282  stats.highestScore = score */\n      dup5\n      swap1\n      sstore\n        /* \"contracts/GMMCArcade.sol\":3210:3293  if (score > stats.highestScore) {... */\n    tag_195:\n        /* \"contracts/GMMCArcade.sol\":3341:3378  _updateLeaderboard(msg.sender, score) */\n      tag_196\n        /* \"contracts/GMMCArcade.sol\":3360:3370  msg.sender */\n      caller\n        /* \"contracts/GMMCArcade.sol\":3372:3377  score */\n      dup6\n        /* \"contracts/GMMCArcade.sol\":3341:3359  _updateLeaderboard */\n      tag_197\n        /* \"contracts/GMMCArcade.sol\":3341:3378  _updateLeaderboard(msg.sender, score) */\n      jump\t// in\n    tag_196:\n        /* \"contracts/GMMCArcade.sol\":3402:3448  GamePlayed(msg.sender, score, block.timestamp) */\n      0x40\n      dup1\n      mload\n        /* \"#utility.yul\":8956:8981   */\n      dup6\n      dup2\n      mstore\n        /* \"contracts/GMMCArcade.sol\":3432:3447  block.timestamp */\n      timestamp\n        /* \"#utility.yul\":9012:9014   */\n      0x20\n        /* \"#utility.yul\":8997:9015   */\n      dup3\n      add\n        /* \"#utility.yul\":8990:9024   */\n      mstore\n        /* \"contracts/GMMCArcade.sol\":3413:3423  msg.sender */\n      caller\n      swap2\n        /* \"contracts/GMMCArcade.sol\":3402:3448  GamePlayed(msg.sender, score, block.timestamp) */\n      0x24b31e1dbf1732a12bb700d3d77e5fb96ff3b693374d9fa15ccbc03f42715076\n      swap2\n        /* \"#utility.yul\":8929:8947   */\n      add\n        /* \"contracts/GMMCArcade.sol\":3402:3448  GamePlayed(msg.sender, score, block.timestamp) */\n      mload(0x40)\n      dup1\n      swap2\n      sub\n      swap1\n      log2\n        /* \"contracts/GMMCArcade.sol\":2293:3455  {... */\n      pop\n      pop\n      pop\n        /* \"@openzeppelin/contracts/utils/ReentrancyGuard.sol\":2542:2562  _nonReentrantAfter() */\n      tag_200\n        /* \"@openzeppelin/contracts/utils/ReentrancyGuard.sol\":1857:1858  1 */\n      0x01\n        /* \"@openzeppelin/contracts/utils/ReentrancyGuard.sol\":3068:3089  _status = NOT_ENTERED */\n      dup1\n      sstore\n        /* \"@openzeppelin/contracts/utils/ReentrancyGuard.sol\":2888:3096  function _nonReentrantAfter() private {... */\n      jump\n        /* \"@openzeppelin/contracts/utils/ReentrancyGuard.sol\":2542:2562  _nonReentrantAfter() */\n    tag_200:\n        /* \"contracts/GMMCArcade.sol\":2242:3455  function play(uint256 score) external nonReentrant {... */\n      pop\n      jump\t// out\n        /* \"contracts/GMMCArcade.sol\":4854:4965  function getLeaderboard() external view returns (LeaderboardEntry[] memory) {... */\n    tag_58:\n        /* \"contracts/GMMCArcade.sol\":4903:4928  LeaderboardEntry[] memory */\n      0x60\n        /* \"contracts/GMMCArcade.sol\":4947:4958  leaderboard */\n      0x05\n        /* \"contracts/GMMCArcade.sol\":4940:4958  return leaderboard */\n      dup1\n      sload\n      dup1\n      0x20\n      mul\n      0x20\n      add\n      mload(0x40)\n      swap1\n      dup2\n      add\n      0x40\n      mstore\n      dup1\n      swap3\n      swap2\n      swap1\n      dup2\n      dup2\n      mstore\n      0x20\n      add\n      0x00\n      swap1\n    tag_202:\n      dup3\n      dup3\n      lt\n      iszero\n      tag_203\n      jumpi\n      0x00\n      dup5\n      dup2\n      mstore\n      0x20\n      swap1\n      dup2\n      swap1\n      keccak256\n      0x40\n      dup1\n      mload\n      0x60\n      dup2\n      add\n      dup3\n      mstore\n      0x03\n      dup7\n      mul\n      swap1\n      swap3\n      add\n      dup1\n      sload\n      sub(shl(0xa0, 0x01), 0x01)\n      and\n      dup4\n      mstore\n      0x01\n      dup1\n      dup3\n      add\n      sload\n      dup5\n      dup7\n      add\n      mstore\n      0x02\n      swap1\n      swap2\n      add\n      sload\n      swap2\n      dup4\n      add\n      swap2\n      swap1\n      swap2\n      mstore\n      swap1\n      dup4\n      mstore\n      swap1\n      swap3\n      add\n      swap2\n      add\n      jump(tag_202)\n    tag_203:\n      pop\n      pop\n      pop\n      pop\n      swap1\n      pop\n        /* \"contracts/GMMCArcade.sol\":4854:4965  function getLeaderboard() external view returns (LeaderboardEntry[] memory) {... */\n      swap1\n      jump\t// out\n        /* \"@openzeppelin/contracts/access/Ownable.sol\":2293:2394  function renounceOwnership() public virtual onlyOwner {... */\n    tag_62:\n        /* \"@openzeppelin/contracts/access/Ownable.sol\":1531:1544  _checkOwner() */\n      tag_206\n        /* \"@openzeppelin/contracts/access/Ownable.sol\":1531:1542  _checkOwner */\n      tag_113\n        /* \"@openzeppelin/contracts/access/Ownable.sol\":1531:1544  _checkOwner() */\n      jump\t// in\n    tag_206:\n        /* \"@openzeppelin/contracts/access/Ownable.sol\":2357:2387  _transferOwnership(address(0)) */\n      tag_208\n        /* \"@openzeppelin/contracts/access/Ownable.sol\":2384:2385  0 */\n      0x00\n        /* \"@openzeppelin/contracts/access/Ownable.sol\":2357:2375  _transferOwnership */\n      tag_209\n        /* \"@openzeppelin/contracts/access/Ownable.sol\":2357:2387  _transferOwnership(address(0)) */\n      jump\t// in\n    tag_208:\n        /* \"@openzeppelin/contracts/access/Ownable.sol\":2293:2394  function renounceOwnership() public virtual onlyOwner {... */\n      jump\t// out\n        /* \"contracts/GMMCArcade.sol\":7142:7309  function setMaxLeaderboardSize(uint256 _size) external onlyOwner {... */\n    tag_65:\n        /* \"@openzeppelin/contracts/access/Ownable.sol\":1531:1544  _checkOwner() */\n      tag_211\n        /* \"@openzeppelin/contracts/access/Ownable.sol\":1531:1542  _checkOwner */\n      tag_113\n        /* \"@openzeppelin/contracts/access/Ownable.sol\":1531:1544  _checkOwner() */\n      jump\t// in\n    tag_211:\n        /* \"contracts/GMMCArcade.sol\":7233:7234  0 */\n      0x00\n        /* \"contracts/GMMCArcade.sol\":7225:7230  _size */\n      dup2\n        /* \"contracts/GMMCArcade.sol\":7225:7234  _size > 0 */\n      gt\n        /* \"contracts/GMMCArcade.sol\":7217:7266  require(_size > 0, \"Size must be greater than 0\") */\n      tag_213\n      jumpi\n      mload(0x40)\n      shl(0xe5, 0x461bcd)\n      dup2\n      mstore\n        /* \"#utility.yul\":9237:9239   */\n      0x20\n        /* \"contracts/GMMCArcade.sol\":7217:7266  require(_size > 0, \"Size must be greater than 0\") */\n      0x04\n      dup3\n      add\n        /* \"#utility.yul\":9219:9240   */\n      mstore\n        /* \"#utility.yul\":9276:9278   */\n      0x1b\n        /* \"#utility.yul\":9256:9274   */\n      0x24\n      dup3\n      add\n        /* \"#utility.yul\":9249:9279   */\n      mstore\n        /* \"#utility.yul\":9315:9344   */\n      0x53697a65206d7573742062652067726561746572207468616e20300000000000\n        /* \"#utility.yul\":9295:9313   */\n      0x44\n      dup3\n      add\n        /* \"#utility.yul\":9288:9345   */\n      mstore\n        /* \"#utility.yul\":9362:9380   */\n      0x64\n      add\n        /* \"contracts/GMMCArcade.sol\":7217:7266  require(_size > 0, \"Size must be greater than 0\") */\n      tag_119\n        /* \"#utility.yul\":9035:9386   */\n      jump\n        /* \"contracts/GMMCArcade.sol\":7217:7266  require(_size > 0, \"Size must be greater than 0\") */\n    tag_213:\n        /* \"contracts/GMMCArcade.sol\":7276:7294  maxLeaderboardSize */\n      0x06\n        /* \"contracts/GMMCArcade.sol\":7276:7302  maxLeaderboardSize = _size */\n      sstore\n        /* \"contracts/GMMCArcade.sol\":7142:7309  function setMaxLeaderboardSize(uint256 _size) external onlyOwner {... */\n      jump\t// out\n        /* \"contracts/GMMCArcade.sol\":1167:1204  LeaderboardEntry[] public leaderboard */\n    tag_74:\n      0x05\n      dup2\n      dup2\n      sload\n      dup2\n      lt\n      tag_217\n      jumpi\n      0x00\n      dup1\n      revert\n    tag_217:\n      0x00\n      swap2\n      dup3\n      mstore\n      0x20\n      swap1\n      swap2\n      keccak256\n      0x03\n      swap1\n      swap2\n      mul\n      add\n      dup1\n      sload\n      0x01\n      dup3\n      add\n      sload\n      0x02\n      swap1\n      swap3\n      add\n      sload\n      sub(shl(0xa0, 0x01), 0x01)\n      swap1\n      swap2\n      and\n      swap3\n      pop\n      dup4\n      jump\t// out\n        /* \"contracts/GMMCArcade.sol\":5035:5653  function getLeaderboardPaginated(uint256 offset, uint256 limit) ... */\n    tag_85:\n        /* \"contracts/GMMCArcade.sol\":5205:5216  leaderboard */\n      0x05\n        /* \"contracts/GMMCArcade.sol\":5205:5223  leaderboard.length */\n      sload\n        /* \"contracts/GMMCArcade.sol\":5149:5174  LeaderboardEntry[] memory */\n      0x60\n      swap1\n        /* \"contracts/GMMCArcade.sol\":5195:5223  offset >= leaderboard.length */\n      dup4\n      lt\n        /* \"contracts/GMMCArcade.sol\":5191:5282  if (offset >= leaderboard.length) {... */\n      tag_220\n      jumpi\n        /* \"contracts/GMMCArcade.sol\":5246:5271  new LeaderboardEntry[](0) */\n      0x40\n      dup1\n      mload\n        /* \"contracts/GMMCArcade.sol\":5269:5270  0 */\n      0x00\n        /* \"contracts/GMMCArcade.sol\":5246:5271  new LeaderboardEntry[](0) */\n      dup1\n      dup3\n      mstore\n      0x20\n      dup3\n      add\n      swap1\n      swap3\n      mstore\n      swap1\n      jump(tag_224)\n    tag_225:\n      tag_226\n      mload(0x40)\n      dup1\n      0x60\n      add\n      0x40\n      mstore\n      dup1\n      and(sub(shl(0xa0, 0x01), 0x01), 0x00)\n      dup2\n      mstore\n      0x20\n      add\n      0x00\n      dup2\n      mstore\n      0x20\n      add\n      0x00\n      dup2\n      mstore\n      pop\n      swap1\n      jump\n    tag_226:\n      dup2\n      mstore\n      0x20\n      add\n      swap1\n      0x01\n      swap1\n      sub\n      swap1\n      dup2\n      tag_225\n      jumpi\n      swap1\n      pop\n    tag_224:\n      pop\n        /* \"contracts/GMMCArcade.sol\":5239:5271  return new LeaderboardEntry[](0) */\n      swap1\n      pop\n      jump(tag_219)\n        /* \"contracts/GMMCArcade.sol\":5191:5282  if (offset >= leaderboard.length) {... */\n    tag_220:\n        /* \"contracts/GMMCArcade.sol\":5300:5311  uint256 end */\n      0x00\n        /* \"contracts/GMMCArcade.sol\":5314:5328  offset + limit */\n      tag_228\n        /* \"contracts/GMMCArcade.sol\":5323:5328  limit */\n      dup4\n        /* \"contracts/GMMCArcade.sol\":5314:5320  offset */\n      dup6\n        /* \"contracts/GMMCArcade.sol\":5314:5328  offset + limit */\n      tag_128\n      jump\t// in\n    tag_228:\n        /* \"contracts/GMMCArcade.sol\":5348:5359  leaderboard */\n      0x05\n        /* \"contracts/GMMCArcade.sol\":5348:5366  leaderboard.length */\n      sload\n        /* \"contracts/GMMCArcade.sol\":5300:5328  uint256 end = offset + limit */\n      swap1\n      swap2\n      pop\n        /* \"contracts/GMMCArcade.sol\":5342:5366  end > leaderboard.length */\n      dup2\n      gt\n        /* \"contracts/GMMCArcade.sol\":5338:5417  if (end > leaderboard.length) {... */\n      iszero\n      tag_229\n      jumpi\n      pop\n        /* \"contracts/GMMCArcade.sol\":5388:5399  leaderboard */\n      0x05\n        /* \"contracts/GMMCArcade.sol\":5388:5406  leaderboard.length */\n      sload\n        /* \"contracts/GMMCArcade.sol\":5338:5417  if (end > leaderboard.length) {... */\n    tag_229:\n        /* \"contracts/GMMCArcade.sol\":5435:5467  LeaderboardEntry[] memory result */\n      0x00\n        /* \"contracts/GMMCArcade.sol\":5493:5505  end - offset */\n      tag_230\n        /* \"contracts/GMMCArcade.sol\":5499:5505  offset */\n      dup6\n        /* \"contracts/GMMCArcade.sol\":5493:5496  end */\n      dup4\n        /* \"contracts/GMMCArcade.sol\":5493:5505  end - offset */\n      tag_133\n      jump\t// in\n    tag_230:\n        /* \"contracts/GMMCArcade.sol\":5470:5506  new LeaderboardEntry[](end - offset) */\n      0xffffffffffffffff\n      dup2\n      gt\n      iszero\n      tag_232\n      jumpi\n      tag_232\n      tag_223\n      jump\t// in\n    tag_232:\n      mload(0x40)\n      swap1\n      dup1\n      dup3\n      mstore\n      dup1\n      0x20\n      mul\n      0x20\n      add\n      dup3\n      add\n      0x40\n      mstore\n      dup1\n      iszero\n      tag_233\n      jumpi\n      dup2\n      0x20\n      add\n    tag_234:\n      tag_235\n      mload(0x40)\n      dup1\n      0x60\n      add\n      0x40\n      mstore\n      dup1\n      and(sub(shl(0xa0, 0x01), 0x01), 0x00)\n      dup2\n      mstore\n      0x20\n      add\n      0x00\n      dup2\n      mstore\n      0x20\n      add\n      0x00\n      dup2\n      mstore\n      pop\n      swap1\n      jump\n    tag_235:\n      dup2\n      mstore\n      0x20\n      add\n      swap1\n      0x01\n      swap1\n      sub\n      swap1\n      dup2\n      tag_234\n      jumpi\n      swap1\n      pop\n    tag_233:\n      pop\n        /* \"contracts/GMMCArcade.sol\":5435:5506  LeaderboardEntry[] memory result = new LeaderboardEntry[](end - offset) */\n      swap1\n      pop\n        /* \"contracts/GMMCArcade.sol\":5533:5539  offset */\n      dup5\n        /* \"contracts/GMMCArcade.sol\":5516:5615  for (uint256 i = offset; i < end; i++) {... */\n    tag_236:\n        /* \"contracts/GMMCArcade.sol\":5545:5548  end */\n      dup3\n        /* \"contracts/GMMCArcade.sol\":5541:5542  i */\n      dup2\n        /* \"contracts/GMMCArcade.sol\":5541:5548  i < end */\n      lt\n        /* \"contracts/GMMCArcade.sol\":5516:5615  for (uint256 i = offset; i < end; i++) {... */\n      iszero\n      tag_237\n      jumpi\n        /* \"contracts/GMMCArcade.sol\":5590:5601  leaderboard */\n      0x05\n        /* \"contracts/GMMCArcade.sol\":5602:5603  i */\n      dup2\n        /* \"contracts/GMMCArcade.sol\":5590:5604  leaderboard[i] */\n      dup2\n      sload\n      dup2\n      lt\n      tag_240\n      jumpi\n      tag_240\n      tag_126\n      jump\t// in\n    tag_240:\n      0x00\n      swap2\n      dup3\n      mstore\n      0x20\n      swap2\n      dup3\n      swap1\n      keccak256\n        /* \"contracts/GMMCArcade.sol\":5569:5604  result[i - offset] = leaderboard[i] */\n      0x40\n      dup1\n      mload\n      0x60\n      dup2\n      add\n      dup3\n      mstore\n        /* \"contracts/GMMCArcade.sol\":5590:5604  leaderboard[i] */\n      0x03\n      swap1\n      swap4\n      mul\n      swap1\n      swap2\n      add\n        /* \"contracts/GMMCArcade.sol\":5569:5604  result[i - offset] = leaderboard[i] */\n      dup1\n      sload\n      sub(shl(0xa0, 0x01), 0x01)\n      and\n      dup4\n      mstore\n      0x01\n      dup2\n      add\n      sload\n      swap4\n      dup4\n      add\n      swap4\n      swap1\n      swap4\n      mstore\n      0x02\n      swap1\n      swap3\n      add\n      sload\n      swap2\n      dup2\n      add\n      swap2\n      swap1\n      swap2\n      mstore\n        /* \"contracts/GMMCArcade.sol\":5569:5575  result */\n      dup3\n        /* \"contracts/GMMCArcade.sol\":5576:5586  i - offset */\n      tag_242\n        /* \"contracts/GMMCArcade.sol\":5580:5586  offset */\n      dup9\n        /* \"contracts/GMMCArcade.sol\":5576:5577  i */\n      dup5\n        /* \"contracts/GMMCArcade.sol\":5576:5586  i - offset */\n      tag_133\n      jump\t// in\n    tag_242:\n        /* \"contracts/GMMCArcade.sol\":5569:5587  result[i - offset] */\n      dup2\n      mload\n      dup2\n      lt\n      tag_244\n      jumpi\n      tag_244\n      tag_126\n      jump\t// in\n    tag_244:\n      0x20\n      swap1\n      dup2\n      mul\n      swap2\n      swap1\n      swap2\n      add\n      add\n        /* \"contracts/GMMCArcade.sol\":5569:5604  result[i - offset] = leaderboard[i] */\n      mstore\n        /* \"contracts/GMMCArcade.sol\":5550:5553  i++ */\n      0x01\n      add\n        /* \"contracts/GMMCArcade.sol\":5516:5615  for (uint256 i = offset; i < end; i++) {... */\n      jump(tag_236)\n    tag_237:\n      pop\n        /* \"contracts/GMMCArcade.sol\":5640:5646  result */\n      swap2\n      pop\n      pop\n        /* \"contracts/GMMCArcade.sol\":5035:5653  function getLeaderboardPaginated(uint256 offset, uint256 limit) ... */\n    tag_219:\n      swap3\n      swap2\n      pop\n      pop\n      jump\t// out\n        /* \"contracts/GMMCArcade.sol\":8345:8652  function emergencyWithdraw() external onlyOwner {... */\n    tag_91:\n        /* \"@openzeppelin/contracts/access/Ownable.sol\":1531:1544  _checkOwner() */\n      tag_247\n        /* \"@openzeppelin/contracts/access/Ownable.sol\":1531:1542  _checkOwner */\n      tag_113\n        /* \"@openzeppelin/contracts/access/Ownable.sol\":1531:1544  _checkOwner() */\n      jump\t// in\n    tag_247:\n        /* \"contracts/GMMCArcade.sol\":8421:8455  gmmcToken.balanceOf(address(this)) */\n      mload(0x40)\n      shl(0xe0, 0x70a08231)\n      dup2\n      mstore\n        /* \"contracts/GMMCArcade.sol\":8449:8453  this */\n      address\n        /* \"contracts/GMMCArcade.sol\":8421:8455  gmmcToken.balanceOf(address(this)) */\n      0x04\n      dup3\n      add\n        /* \"#utility.yul\":2213:2264   */\n      mstore\n        /* \"contracts/GMMCArcade.sol\":8403:8418  uint256 balance */\n      0x00\n      swap1\n        /* \"contracts/GMMCArcade.sol\":8421:8430  gmmcToken */\n      immutable(\"0x2757844bcba802ce24af88f7c8fd3438a9a94d6eea4d1e58913fbc1440605b8d\")\n      sub(shl(0xa0, 0x01), 0x01)\n        /* \"contracts/GMMCArcade.sol\":8421:8440  gmmcToken.balanceOf */\n      and\n      swap1\n      0x70a08231\n      swap1\n        /* \"#utility.yul\":2186:2204   */\n      0x24\n      add\n        /* \"contracts/GMMCArcade.sol\":8421:8455  gmmcToken.balanceOf(address(this)) */\n      0x20\n      mload(0x40)\n      dup1\n      dup4\n      sub\n      dup2\n      dup7\n      gas\n      staticcall\n      iszero\n      dup1\n      iszero\n      tag_251\n      jumpi\n      returndatacopy(0x00, 0x00, returndatasize)\n      revert(0x00, returndatasize)\n    tag_251:\n      pop\n      pop\n      pop\n      pop\n      mload(0x40)\n      returndatasize\n      not(0x1f)\n      0x1f\n      dup3\n      add\n      and\n      dup3\n      add\n      dup1\n      0x40\n      mstore\n      pop\n      dup2\n      add\n      swap1\n      tag_252\n      swap2\n      swap1\n      tag_253\n      jump\t// in\n    tag_252:\n        /* \"contracts/GMMCArcade.sol\":8403:8455  uint256 balance = gmmcToken.balanceOf(address(this)) */\n      swap1\n      pop\n        /* \"contracts/GMMCArcade.sol\":8483:8484  0 */\n      0x00\n        /* \"contracts/GMMCArcade.sol\":8473:8480  balance */\n      dup2\n        /* \"contracts/GMMCArcade.sol\":8473:8484  balance > 0 */\n      gt\n        /* \"contracts/GMMCArcade.sol\":8465:8511  require(balance > 0, \"No balance to withdraw\") */\n      tag_254\n      jumpi\n      mload(0x40)\n      shl(0xe5, 0x461bcd)\n      dup2\n      mstore\n        /* \"#utility.yul\":9914:9916   */\n      0x20\n        /* \"contracts/GMMCArcade.sol\":8465:8511  require(balance > 0, \"No balance to withdraw\") */\n      0x04\n      dup3\n      add\n        /* \"#utility.yul\":9896:9917   */\n      mstore\n        /* \"#utility.yul\":9953:9955   */\n      0x16\n        /* \"#utility.yul\":9933:9951   */\n      0x24\n      dup3\n      add\n        /* \"#utility.yul\":9926:9956   */\n      mstore\n      shl(0x50, 0x4e6f2062616c616e636520746f207769746864726177)\n        /* \"#utility.yul\":9972:9990   */\n      0x44\n      dup3\n      add\n        /* \"#utility.yul\":9965:10017   */\n      mstore\n        /* \"#utility.yul\":10034:10052   */\n      0x64\n      add\n        /* \"contracts/GMMCArcade.sol\":8465:8511  require(balance > 0, \"No balance to withdraw\") */\n      tag_119\n        /* \"#utility.yul\":9712:10058   */\n      jump\n        /* \"contracts/GMMCArcade.sol\":8465:8511  require(balance > 0, \"No balance to withdraw\") */\n    tag_254:\n        /* \"contracts/GMMCArcade.sol\":8542:8551  gmmcToken */\n      immutable(\"0x2757844bcba802ce24af88f7c8fd3438a9a94d6eea4d1e58913fbc1440605b8d\")\n      sub(shl(0xa0, 0x01), 0x01)\n        /* \"contracts/GMMCArcade.sol\":8542:8560  gmmcToken.transfer */\n      and\n      0xa9059cbb\n        /* \"contracts/GMMCArcade.sol\":8561:8568  owner() */\n      tag_257\n        /* \"@openzeppelin/contracts/access/Ownable.sol\":1684:1691  address */\n      0x00\n        /* \"@openzeppelin/contracts/access/Ownable.sol\":1710:1716  _owner */\n      sload\n      sub(shl(0xa0, 0x01), 0x01)\n      and\n      swap1\n        /* \"@openzeppelin/contracts/access/Ownable.sol\":1638:1723  function owner() public view virtual returns (address) {... */\n      jump\n        /* \"contracts/GMMCArcade.sol\":8561:8568  owner() */\n    tag_257:\n        /* \"contracts/GMMCArcade.sol\":8542:8578  gmmcToken.transfer(owner(), balance) */\n      mload(0x40)\n      not(sub(shl(0xe0, 0x01), 0x01))\n      0xe0\n      dup5\n      swap1\n      shl\n      and\n      dup2\n      mstore\n      sub(shl(0xa0, 0x01), 0x01)\n        /* \"#utility.yul\":6096:6128   */\n      swap1\n      swap2\n      and\n        /* \"contracts/GMMCArcade.sol\":8542:8578  gmmcToken.transfer(owner(), balance) */\n      0x04\n      dup3\n      add\n        /* \"#utility.yul\":6078:6129   */\n      mstore\n        /* \"#utility.yul\":6145:6163   */\n      0x24\n      dup2\n      add\n        /* \"#utility.yul\":6138:6172   */\n      dup5\n      swap1\n      mstore\n        /* \"#utility.yul\":6051:6069   */\n      0x44\n      add\n        /* \"contracts/GMMCArcade.sol\":8542:8578  gmmcToken.transfer(owner(), balance) */\n      0x20\n      mload(0x40)\n      dup1\n      dup4\n      sub\n      dup2\n      0x00\n      dup8\n      gas\n      call\n      iszero\n      dup1\n      iszero\n      tag_260\n      jumpi\n      returndatacopy(0x00, 0x00, returndatasize)\n      revert(0x00, returndatasize)\n    tag_260:\n      pop\n      pop\n      pop\n      pop\n      mload(0x40)\n      returndatasize\n      not(0x1f)\n      0x1f\n      dup3\n      add\n      and\n      dup3\n      add\n      dup1\n      0x40\n      mstore\n      pop\n      dup2\n      add\n      swap1\n      tag_261\n      swap2\n      swap1\n      tag_147\n      jump\t// in\n    tag_261:\n        /* \"contracts/GMMCArcade.sol\":8521:8621  require(... */\n      tag_262\n      jumpi\n      mload(0x40)\n      shl(0xe5, 0x461bcd)\n      dup2\n      mstore\n        /* \"#utility.yul\":10265:10267   */\n      0x20\n        /* \"contracts/GMMCArcade.sol\":8521:8621  require(... */\n      0x04\n      dup3\n      add\n        /* \"#utility.yul\":10247:10268   */\n      mstore\n        /* \"#utility.yul\":10304:10306   */\n      0x11\n        /* \"#utility.yul\":10284:10302   */\n      0x24\n      dup3\n      add\n        /* \"#utility.yul\":10277:10307   */\n      mstore\n      shl(0x7a, 0x15da5d1a191c985dd85b0819985a5b1959)\n        /* \"#utility.yul\":10323:10341   */\n      0x44\n      dup3\n      add\n        /* \"#utility.yul\":10316:10363   */\n      mstore\n        /* \"#utility.yul\":10380:10398   */\n      0x64\n      add\n        /* \"contracts/GMMCArcade.sol\":8521:8621  require(... */\n      tag_119\n        /* \"#utility.yul\":10063:10404   */\n      jump\n        /* \"contracts/GMMCArcade.sol\":8521:8621  require(... */\n    tag_262:\n      pop\n        /* \"contracts/GMMCArcade.sol\":8644:8645  0 */\n      0x00\n        /* \"contracts/GMMCArcade.sol\":8631:8641  rewardPool */\n      0x08\n        /* \"contracts/GMMCArcade.sol\":8631:8645  rewardPool = 0 */\n      sstore\n        /* \"contracts/GMMCArcade.sol\":8345:8652  function emergencyWithdraw() external onlyOwner {... */\n      jump\t// out\n        /* \"contracts/GMMCArcade.sol\":6261:6452  function setEntryFee(uint256 _newFee) external onlyOwner {... */\n    tag_94:\n        /* \"@openzeppelin/contracts/access/Ownable.sol\":1531:1544  _checkOwner() */\n      tag_266\n        /* \"@openzeppelin/contracts/access/Ownable.sol\":1531:1542  _checkOwner */\n      tag_113\n        /* \"@openzeppelin/contracts/access/Ownable.sol\":1531:1544  _checkOwner() */\n      jump\t// in\n    tag_266:\n        /* \"contracts/GMMCArcade.sol\":6346:6347  0 */\n      0x00\n        /* \"contracts/GMMCArcade.sol\":6336:6343  _newFee */\n      dup2\n        /* \"contracts/GMMCArcade.sol\":6336:6347  _newFee > 0 */\n      gt\n        /* \"contracts/GMMCArcade.sol\":6328:6378  require(_newFee > 0, \"Fee must be greater than 0\") */\n      tag_268\n      jumpi\n      mload(0x40)\n      shl(0xe5, 0x461bcd)\n      dup2\n      mstore\n        /* \"#utility.yul\":10611:10613   */\n      0x20\n        /* \"contracts/GMMCArcade.sol\":6328:6378  require(_newFee > 0, \"Fee must be greater than 0\") */\n      0x04\n      dup3\n      add\n        /* \"#utility.yul\":10593:10614   */\n      mstore\n        /* \"#utility.yul\":10650:10652   */\n      0x1a\n        /* \"#utility.yul\":10630:10648   */\n      0x24\n      dup3\n      add\n        /* \"#utility.yul\":10623:10653   */\n      mstore\n        /* \"#utility.yul\":10689:10717   */\n      0x466565206d7573742062652067726561746572207468616e2030000000000000\n        /* \"#utility.yul\":10669:10687   */\n      0x44\n      dup3\n      add\n        /* \"#utility.yul\":10662:10718   */\n      mstore\n        /* \"#utility.yul\":10735:10753   */\n      0x64\n      add\n        /* \"contracts/GMMCArcade.sol\":6328:6378  require(_newFee > 0, \"Fee must be greater than 0\") */\n      tag_119\n        /* \"#utility.yul\":10409:10759   */\n      jump\n        /* \"contracts/GMMCArcade.sol\":6328:6378  require(_newFee > 0, \"Fee must be greater than 0\") */\n    tag_268:\n        /* \"contracts/GMMCArcade.sol\":6388:6396  entryFee */\n      0x02\n        /* \"contracts/GMMCArcade.sol\":6388:6406  entryFee = _newFee */\n      dup2\n      swap1\n      sstore\n        /* \"contracts/GMMCArcade.sol\":6421:6445  EntryFeeUpdated(_newFee) */\n      mload(0x40)\n        /* \"#utility.yul\":160:185   */\n      dup2\n      dup2\n      mstore\n        /* \"contracts/GMMCArcade.sol\":6421:6445  EntryFeeUpdated(_newFee) */\n      0x24a0b2e591795f2c27be52ff14a57d0a39ac957304305bc05e8b04be49e8fe15\n      swap1\n        /* \"#utility.yul\":148:150   */\n      0x20\n        /* \"#utility.yul\":133:151   */\n      add\n        /* \"contracts/GMMCArcade.sol\":6421:6445  EntryFeeUpdated(_newFee) */\n    tag_271:\n      mload(0x40)\n      dup1\n      swap2\n      sub\n      swap1\n      log1\n        /* \"contracts/GMMCArcade.sol\":6261:6452  function setEntryFee(uint256 _newFee) external onlyOwner {... */\n      pop\n      jump\t// out\n        /* \"contracts/GMMCArcade.sol\":6856:7063  function setTreasury(address _treasury) external onlyOwner {... */\n    tag_100:\n        /* \"@openzeppelin/contracts/access/Ownable.sol\":1531:1544  _checkOwner() */\n      tag_273\n        /* \"@openzeppelin/contracts/access/Ownable.sol\":1531:1542  _checkOwner */\n      tag_113\n        /* \"@openzeppelin/contracts/access/Ownable.sol\":1531:1544  _checkOwner() */\n      jump\t// in\n    tag_273:\n      sub(shl(0xa0, 0x01), 0x01)\n        /* \"contracts/GMMCArcade.sol\":6933:6956  _treasury != address(0) */\n      dup2\n      and\n        /* \"contracts/GMMCArcade.sol\":6925:6985  require(_treasury != address(0), \"Invalid treasury address\") */\n      tag_275\n      jumpi\n      mload(0x40)\n      shl(0xe5, 0x461bcd)\n      dup2\n      mstore\n        /* \"#utility.yul\":10966:10968   */\n      0x20\n        /* \"contracts/GMMCArcade.sol\":6925:6985  require(_treasury != address(0), \"Invalid treasury address\") */\n      0x04\n      dup3\n      add\n        /* \"#utility.yul\":10948:10969   */\n      mstore\n        /* \"#utility.yul\":11005:11007   */\n      0x18\n        /* \"#utility.yul\":10985:11003   */\n      0x24\n      dup3\n      add\n        /* \"#utility.yul\":10978:11008   */\n      mstore\n        /* \"#utility.yul\":11044:11070   */\n      0x496e76616c696420747265617375727920616464726573730000000000000000\n        /* \"#utility.yul\":11024:11042   */\n      0x44\n      dup3\n      add\n        /* \"#utility.yul\":11017:11071   */\n      mstore\n        /* \"#utility.yul\":11088:11106   */\n      0x64\n      add\n        /* \"contracts/GMMCArcade.sol\":6925:6985  require(_treasury != address(0), \"Invalid treasury address\") */\n      tag_119\n        /* \"#utility.yul\":10764:11112   */\n      jump\n        /* \"contracts/GMMCArcade.sol\":6925:6985  require(_treasury != address(0), \"Invalid treasury address\") */\n    tag_275:\n        /* \"contracts/GMMCArcade.sol\":6995:7003  treasury */\n      0x04\n        /* \"contracts/GMMCArcade.sol\":6995:7015  treasury = _treasury */\n      dup1\n      sload\n      not(sub(shl(0xa0, 0x01), 0x01))\n      and\n      sub(shl(0xa0, 0x01), 0x01)\n      dup4\n      and\n      swap1\n      dup2\n      or\n      swap1\n      swap2\n      sstore\n        /* \"contracts/GMMCArcade.sol\":7030:7056  TreasuryUpdated(_treasury) */\n      mload(0x40)\n        /* \"#utility.yul\":2213:2264   */\n      swap1\n      dup2\n      mstore\n        /* \"contracts/GMMCArcade.sol\":7030:7056  TreasuryUpdated(_treasury) */\n      0x7dae230f18360d76a040c81f050aa14eb9d6dc7901b20fc5d855e2a20fe814d1\n      swap1\n        /* \"#utility.yul\":2201:2203   */\n      0x20\n        /* \"#utility.yul\":2186:2204   */\n      add\n        /* \"contracts/GMMCArcade.sol\":7030:7056  TreasuryUpdated(_treasury) */\n      tag_271\n        /* \"#utility.yul\":2067:2270   */\n      jump\n        /* \"contracts/GMMCArcade.sol\":6533:6781  function setRewardPoolPercentage(uint256 _percentage) external onlyOwner {... */\n    tag_103:\n        /* \"@openzeppelin/contracts/access/Ownable.sol\":1531:1544  _checkOwner() */\n      tag_280\n        /* \"@openzeppelin/contracts/access/Ownable.sol\":1531:1542  _checkOwner */\n      tag_113\n        /* \"@openzeppelin/contracts/access/Ownable.sol\":1531:1544  _checkOwner() */\n      jump\t// in\n    tag_280:\n        /* \"contracts/GMMCArcade.sol\":6639:6642  100 */\n      0x64\n        /* \"contracts/GMMCArcade.sol\":6624:6635  _percentage */\n      dup2\n        /* \"contracts/GMMCArcade.sol\":6624:6642  _percentage <= 100 */\n      gt\n      iszero\n        /* \"contracts/GMMCArcade.sol\":6616:6675  require(_percentage <= 100, \"Percentage cannot exceed 100\") */\n      tag_282\n      jumpi\n      mload(0x40)\n      shl(0xe5, 0x461bcd)\n      dup2\n      mstore\n        /* \"#utility.yul\":11319:11321   */\n      0x20\n        /* \"contracts/GMMCArcade.sol\":6616:6675  require(_percentage <= 100, \"Percentage cannot exceed 100\") */\n      0x04\n      dup3\n      add\n        /* \"#utility.yul\":11301:11322   */\n      mstore\n        /* \"#utility.yul\":11358:11360   */\n      0x1c\n        /* \"#utility.yul\":11338:11356   */\n      0x24\n      dup3\n      add\n        /* \"#utility.yul\":11331:11361   */\n      mstore\n        /* \"#utility.yul\":11397:11427   */\n      0x50657263656e746167652063616e6e6f74206578636565642031303000000000\n        /* \"#utility.yul\":11377:11395   */\n      0x44\n      dup3\n      add\n        /* \"#utility.yul\":11370:11428   */\n      mstore\n        /* \"#utility.yul\":11445:11463   */\n      0x64\n      add\n        /* \"contracts/GMMCArcade.sol\":6616:6675  require(_percentage <= 100, \"Percentage cannot exceed 100\") */\n      tag_119\n        /* \"#utility.yul\":11117:11469   */\n      jump\n        /* \"contracts/GMMCArcade.sol\":6616:6675  require(_percentage <= 100, \"Percentage cannot exceed 100\") */\n    tag_282:\n        /* \"contracts/GMMCArcade.sol\":6685:6705  rewardPoolPercentage */\n      0x03\n        /* \"contracts/GMMCArcade.sol\":6685:6719  rewardPoolPercentage = _percentage */\n      dup2\n      swap1\n      sstore\n        /* \"contracts/GMMCArcade.sol\":6734:6774  RewardPoolPercentageUpdated(_percentage) */\n      mload(0x40)\n        /* \"#utility.yul\":160:185   */\n      dup2\n      dup2\n      mstore\n        /* \"contracts/GMMCArcade.sol\":6734:6774  RewardPoolPercentageUpdated(_percentage) */\n      0x4c6206d197fb835b6626cb8f20f3796fd7993dea9493ac4a8d2c799b22f82877\n      swap1\n        /* \"#utility.yul\":148:150   */\n      0x20\n        /* \"#utility.yul\":133:151   */\n      add\n        /* \"contracts/GMMCArcade.sol\":6734:6774  RewardPoolPercentageUpdated(_percentage) */\n      tag_271\n        /* \"#utility.yul\":14:191   */\n      jump\n        /* \"@openzeppelin/contracts/access/Ownable.sol\":2543:2758  function transferOwnership(address newOwner) public virtual onlyOwner {... */\n    tag_106:\n        /* \"@openzeppelin/contracts/access/Ownable.sol\":1531:1544  _checkOwner() */\n      tag_287\n        /* \"@openzeppelin/contracts/access/Ownable.sol\":1531:1542  _checkOwner */\n      tag_113\n        /* \"@openzeppelin/contracts/access/Ownable.sol\":1531:1544  _checkOwner() */\n      jump\t// in\n    tag_287:\n      sub(shl(0xa0, 0x01), 0x01)\n        /* \"@openzeppelin/contracts/access/Ownable.sol\":2627:2649  newOwner == address(0) */\n      dup2\n      and\n        /* \"@openzeppelin/contracts/access/Ownable.sol\":2623:2714  if (newOwner == address(0)) {... */\n      tag_289\n      jumpi\n        /* \"@openzeppelin/contracts/access/Ownable.sol\":2672:2703  OwnableInvalidOwner(address(0)) */\n      mload(0x40)\n      shl(0xe0, 0x1e4fbdf7)\n      dup2\n      mstore\n        /* \"@openzeppelin/contracts/access/Ownable.sol\":2700:2701  0 */\n      0x00\n        /* \"@openzeppelin/contracts/access/Ownable.sol\":2672:2703  OwnableInvalidOwner(address(0)) */\n      0x04\n      dup3\n      add\n        /* \"#utility.yul\":2213:2264   */\n      mstore\n        /* \"#utility.yul\":2186:2204   */\n      0x24\n      add\n        /* \"@openzeppelin/contracts/access/Ownable.sol\":2672:2703  OwnableInvalidOwner(address(0)) */\n      tag_119\n        /* \"#utility.yul\":2067:2270   */\n      jump\n        /* \"@openzeppelin/contracts/access/Ownable.sol\":2623:2714  if (newOwner == address(0)) {... */\n    tag_289:\n        /* \"@openzeppelin/contracts/access/Ownable.sol\":2723:2751  _transferOwnership(newOwner) */\n      tag_200\n        /* \"@openzeppelin/contracts/access/Ownable.sol\":2742:2750  newOwner */\n      dup2\n        /* \"@openzeppelin/contracts/access/Ownable.sol\":2723:2741  _transferOwnership */\n      tag_209\n        /* \"@openzeppelin/contracts/access/Ownable.sol\":2723:2751  _transferOwnership(newOwner) */\n      jump\t// in\n        /* \"@openzeppelin/contracts/access/Ownable.sol\":1796:1958  function _checkOwner() internal view virtual {... */\n    tag_113:\n        /* \"@openzeppelin/contracts/access/Ownable.sol\":1684:1691  address */\n      0x00\n        /* \"@openzeppelin/contracts/access/Ownable.sol\":1710:1716  _owner */\n      sload\n      sub(shl(0xa0, 0x01), 0x01)\n      and\n        /* \"@openzeppelin/contracts/utils/Context.sol\":735:745  msg.sender */\n      caller\n        /* \"@openzeppelin/contracts/access/Ownable.sol\":1855:1878  owner() != _msgSender() */\n      eq\n        /* \"@openzeppelin/contracts/access/Ownable.sol\":1851:1952  if (owner() != _msgSender()) {... */\n      tag_208\n      jumpi\n        /* \"@openzeppelin/contracts/access/Ownable.sol\":1901:1941  OwnableUnauthorizedAccount(_msgSender()) */\n      mload(0x40)\n      shl(0xe0, 0x118cdaa7)\n      dup2\n      mstore\n        /* \"@openzeppelin/contracts/utils/Context.sol\":735:745  msg.sender */\n      caller\n        /* \"@openzeppelin/contracts/access/Ownable.sol\":1901:1941  OwnableUnauthorizedAccount(_msgSender()) */\n      0x04\n      dup3\n      add\n        /* \"#utility.yul\":2213:2264   */\n      mstore\n        /* \"#utility.yul\":2186:2204   */\n      0x24\n      add\n        /* \"@openzeppelin/contracts/access/Ownable.sol\":1901:1941  OwnableUnauthorizedAccount(_msgSender()) */\n      tag_119\n        /* \"#utility.yul\":2067:2270   */\n      jump\n        /* \"@openzeppelin/contracts/utils/ReentrancyGuard.sol\":2575:2882  function _nonReentrantBefore() private {... */\n    tag_116:\n        /* \"@openzeppelin/contracts/utils/ReentrancyGuard.sol\":1899:1900  2 */\n      0x02\n        /* \"@openzeppelin/contracts/utils/ReentrancyGuard.sol\":2702:2709  _status */\n      sload(0x01)\n        /* \"@openzeppelin/contracts/utils/ReentrancyGuard.sol\":2702:2720  _status == ENTERED */\n      sub\n        /* \"@openzeppelin/contracts/utils/ReentrancyGuard.sol\":2698:2784  if (_status == ENTERED) {... */\n      tag_300\n      jumpi\n        /* \"@openzeppelin/contracts/utils/ReentrancyGuard.sol\":2743:2773  ReentrancyGuardReentrantCall() */\n      mload(0x40)\n      shl(0xe0, 0x3ee5aeb5)\n      dup2\n      mstore\n      0x04\n      add\n      mload(0x40)\n      dup1\n      swap2\n      sub\n      swap1\n      revert\n        /* \"@openzeppelin/contracts/utils/ReentrancyGuard.sol\":2698:2784  if (_status == ENTERED) {... */\n    tag_300:\n        /* \"@openzeppelin/contracts/utils/ReentrancyGuard.sol\":1899:1900  2 */\n      0x02\n        /* \"@openzeppelin/contracts/utils/ReentrancyGuard.sol\":2858:2865  _status */\n      0x01\n        /* \"@openzeppelin/contracts/utils/ReentrancyGuard.sol\":2858:2875  _status = ENTERED */\n      sstore\n        /* \"@openzeppelin/contracts/utils/ReentrancyGuard.sol\":2575:2882  function _nonReentrantBefore() private {... */\n      jump\t// out\n        /* \"contracts/GMMCArcade.sol\":3537:4791  function _updateLeaderboard(address player, uint256 score) internal {... */\n    tag_197:\n        /* \"contracts/GMMCArcade.sol\":3650:3772  LeaderboardEntry({... */\n      0x40\n      dup1\n      mload\n      0x60\n      dup2\n      add\n      dup3\n      mstore\n      sub(shl(0xa0, 0x01), 0x01)\n      dup5\n      and\n      dup2\n      mstore\n      0x20\n      dup2\n      add\n      dup4\n      swap1\n      mstore\n        /* \"contracts/GMMCArcade.sol\":3746:3761  block.timestamp */\n      timestamp\n        /* \"contracts/GMMCArcade.sol\":3650:3772  LeaderboardEntry({... */\n      swap2\n      dup2\n      add\n      swap2\n      swap1\n      swap2\n      mstore\n        /* \"contracts/GMMCArcade.sol\":3852:3863  leaderboard */\n      0x05\n        /* \"contracts/GMMCArcade.sol\":3852:3870  leaderboard.length */\n      sload\n        /* \"contracts/GMMCArcade.sol\":3615:3647  LeaderboardEntry memory newEntry */\n      0x00\n        /* \"contracts/GMMCArcade.sol\":3880:4058  for (uint256 i = 0; i < leaderboard.length; i++) {... */\n    tag_303:\n        /* \"contracts/GMMCArcade.sol\":3904:3915  leaderboard */\n      0x05\n        /* \"contracts/GMMCArcade.sol\":3904:3922  leaderboard.length */\n      sload\n        /* \"contracts/GMMCArcade.sol\":3900:3922  i < leaderboard.length */\n      dup2\n      lt\n        /* \"contracts/GMMCArcade.sol\":3880:4058  for (uint256 i = 0; i < leaderboard.length; i++) {... */\n      iszero\n      tag_304\n      jumpi\n        /* \"contracts/GMMCArcade.sol\":3955:3966  leaderboard */\n      0x05\n        /* \"contracts/GMMCArcade.sol\":3967:3968  i */\n      dup2\n        /* \"contracts/GMMCArcade.sol\":3955:3969  leaderboard[i] */\n      dup2\n      sload\n      dup2\n      lt\n      tag_307\n      jumpi\n      tag_307\n      tag_126\n      jump\t// in\n    tag_307:\n      swap1\n      0x00\n      mstore\n      keccak256(0x00, 0x20)\n      swap1\n      0x03\n      mul\n      add\n        /* \"contracts/GMMCArcade.sol\":3955:3975  leaderboard[i].score */\n      0x01\n      add\n      sload\n        /* \"contracts/GMMCArcade.sol\":3947:3952  score */\n      dup5\n        /* \"contracts/GMMCArcade.sol\":3947:3975  score > leaderboard[i].score */\n      gt\n        /* \"contracts/GMMCArcade.sol\":3943:4048  if (score > leaderboard[i].score) {... */\n      iszero\n      tag_309\n      jumpi\n        /* \"contracts/GMMCArcade.sol\":4009:4010  i */\n      dup1\n        /* \"contracts/GMMCArcade.sol\":3995:4010  insertIndex = i */\n      swap2\n      pop\n        /* \"contracts/GMMCArcade.sol\":4028:4033  break */\n      jump(tag_304)\n        /* \"contracts/GMMCArcade.sol\":3943:4048  if (score > leaderboard[i].score) {... */\n    tag_309:\n        /* \"contracts/GMMCArcade.sol\":3924:3927  i++ */\n      0x01\n      add\n        /* \"contracts/GMMCArcade.sol\":3880:4058  for (uint256 i = 0; i < leaderboard.length; i++) {... */\n      jump(tag_303)\n    tag_304:\n      pop\n        /* \"contracts/GMMCArcade.sol\":4140:4158  maxLeaderboardSize */\n      sload(0x06)\n        /* \"contracts/GMMCArcade.sol\":4126:4137  insertIndex */\n      dup2\n        /* \"contracts/GMMCArcade.sol\":4126:4158  insertIndex < maxLeaderboardSize */\n      lt\n        /* \"contracts/GMMCArcade.sol\":4122:4785  if (insertIndex < maxLeaderboardSize) {... */\n      iszero\n      tag_157\n      jumpi\n        /* \"contracts/GMMCArcade.sol\":4199:4217  maxLeaderboardSize */\n      sload(0x06)\n        /* \"contracts/GMMCArcade.sol\":4178:4189  leaderboard */\n      0x05\n        /* \"contracts/GMMCArcade.sol\":4178:4196  leaderboard.length */\n      sload\n        /* \"contracts/GMMCArcade.sol\":4178:4217  leaderboard.length < maxLeaderboardSize */\n      lt\n        /* \"contracts/GMMCArcade.sol\":4174:4278  if (leaderboard.length < maxLeaderboardSize) {... */\n      iszero\n      tag_311\n      jumpi\n        /* \"contracts/GMMCArcade.sol\":4237:4248  leaderboard */\n      0x05\n        /* \"contracts/GMMCArcade.sol\":4237:4263  leaderboard.push(newEntry) */\n      dup1\n      sload\n      0x01\n      dup2\n      add\n      dup3\n      sstore\n      0x00\n      swap2\n      swap1\n      swap2\n      mstore\n      dup3\n      mload\n      0x036b6384b5eca791c62761152d0c79bb0604c104a5fb6f4eb0703f3154bb3db0\n      0x03\n      swap1\n      swap3\n      mul\n      swap2\n      dup3\n      add\n      dup1\n      sload\n      not(sub(shl(0xa0, 0x01), 0x01))\n      and\n      sub(shl(0xa0, 0x01), 0x01)\n      swap1\n      swap3\n      and\n      swap2\n      swap1\n      swap2\n      or\n      swap1\n      sstore\n      0x20\n      dup4\n      add\n      mload\n      0x036b6384b5eca791c62761152d0c79bb0604c104a5fb6f4eb0703f3154bb3db1\n      dup3\n      add\n      sstore\n      0x40\n      dup4\n      add\n      mload\n      0x036b6384b5eca791c62761152d0c79bb0604c104a5fb6f4eb0703f3154bb3db2\n      swap1\n      swap2\n      add\n      sstore\n        /* \"contracts/GMMCArcade.sol\":4174:4278  if (leaderboard.length < maxLeaderboardSize) {... */\n    tag_311:\n        /* \"contracts/GMMCArcade.sol\":4376:4387  leaderboard */\n      0x05\n        /* \"contracts/GMMCArcade.sol\":4376:4394  leaderboard.length */\n      sload\n        /* \"contracts/GMMCArcade.sol\":4364:4373  uint256 i */\n      0x00\n      swap1\n        /* \"contracts/GMMCArcade.sol\":4376:4398  leaderboard.length - 1 */\n      tag_316\n      swap1\n        /* \"contracts/GMMCArcade.sol\":4397:4398  1 */\n      0x01\n      swap1\n        /* \"contracts/GMMCArcade.sol\":4376:4398  leaderboard.length - 1 */\n      tag_133\n      jump\t// in\n    tag_316:\n        /* \"contracts/GMMCArcade.sol\":4364:4398  uint256 i = leaderboard.length - 1 */\n      swap1\n      pop\n        /* \"contracts/GMMCArcade.sol\":4359:4490  for (uint256 i = leaderboard.length - 1; i > insertIndex; i--) {... */\n    tag_313:\n        /* \"contracts/GMMCArcade.sol\":4404:4415  insertIndex */\n      dup2\n        /* \"contracts/GMMCArcade.sol\":4400:4401  i */\n      dup2\n        /* \"contracts/GMMCArcade.sol\":4400:4415  i > insertIndex */\n      gt\n        /* \"contracts/GMMCArcade.sol\":4359:4490  for (uint256 i = leaderboard.length - 1; i > insertIndex; i--) {... */\n      iszero\n      tag_314\n      jumpi\n        /* \"contracts/GMMCArcade.sol\":4457:4468  leaderboard */\n      0x05\n        /* \"contracts/GMMCArcade.sol\":4469:4474  i - 1 */\n      tag_317\n        /* \"contracts/GMMCArcade.sol\":4473:4474  1 */\n      0x01\n        /* \"contracts/GMMCArcade.sol\":4469:4470  i */\n      dup4\n        /* \"contracts/GMMCArcade.sol\":4469:4474  i - 1 */\n      tag_133\n      jump\t// in\n    tag_317:\n        /* \"contracts/GMMCArcade.sol\":4457:4475  leaderboard[i - 1] */\n      dup2\n      sload\n      dup2\n      lt\n      tag_319\n      jumpi\n      tag_319\n      tag_126\n      jump\t// in\n    tag_319:\n      swap1\n      0x00\n      mstore\n      keccak256(0x00, 0x20)\n      swap1\n      0x03\n      mul\n      add\n        /* \"contracts/GMMCArcade.sol\":4440:4451  leaderboard */\n      0x05\n        /* \"contracts/GMMCArcade.sol\":4452:4453  i */\n      dup3\n        /* \"contracts/GMMCArcade.sol\":4440:4454  leaderboard[i] */\n      dup2\n      sload\n      dup2\n      lt\n      tag_322\n      jumpi\n      tag_322\n      tag_126\n      jump\t// in\n    tag_322:\n      0x00\n      swap2\n      dup3\n      mstore\n      0x20\n      swap1\n      swap2\n      keccak256\n        /* \"contracts/GMMCArcade.sol\":4440:4475  leaderboard[i] = leaderboard[i - 1] */\n      dup3\n      sload\n        /* \"contracts/GMMCArcade.sol\":4440:4454  leaderboard[i] */\n      0x03\n      swap1\n      swap3\n      mul\n      add\n        /* \"contracts/GMMCArcade.sol\":4440:4475  leaderboard[i] = leaderboard[i - 1] */\n      dup1\n      sload\n      not(sub(shl(0xa0, 0x01), 0x01))\n      and\n      sub(shl(0xa0, 0x01), 0x01)\n      swap1\n      swap3\n      and\n      swap2\n      swap1\n      swap2\n      or\n      dup2\n      sstore\n      0x01\n      dup1\n      dup4\n      add\n      sload\n      swap1\n      dup3\n      add\n      sstore\n      0x02\n      swap2\n      dup3\n      add\n      sload\n      swap2\n      add\n      sstore\n        /* \"contracts/GMMCArcade.sol\":4417:4420  i-- */\n      dup1\n      tag_324\n      dup2\n      tag_325\n      jump\t// in\n    tag_324:\n      swap2\n      pop\n      pop\n        /* \"contracts/GMMCArcade.sol\":4359:4490  for (uint256 i = leaderboard.length - 1; i > insertIndex; i--) {... */\n      jump(tag_313)\n    tag_314:\n      pop\n        /* \"contracts/GMMCArcade.sol\":4530:4538  newEntry */\n      dup2\n        /* \"contracts/GMMCArcade.sol\":4503:4514  leaderboard */\n      0x05\n        /* \"contracts/GMMCArcade.sol\":4515:4526  insertIndex */\n      dup3\n        /* \"contracts/GMMCArcade.sol\":4503:4527  leaderboard[insertIndex] */\n      dup2\n      sload\n      dup2\n      lt\n      tag_327\n      jumpi\n      tag_327\n      tag_126\n      jump\t// in\n    tag_327:\n      0x00\n      swap2\n      dup3\n      mstore\n      0x20\n      swap2\n      dup3\n      swap1\n      keccak256\n        /* \"contracts/GMMCArcade.sol\":4503:4538  leaderboard[insertIndex] = newEntry */\n      dup4\n      mload\n        /* \"contracts/GMMCArcade.sol\":4503:4527  leaderboard[insertIndex] */\n      0x03\n      swap3\n      swap1\n      swap3\n      mul\n      add\n        /* \"contracts/GMMCArcade.sol\":4503:4538  leaderboard[insertIndex] = newEntry */\n      dup1\n      sload\n      not(sub(shl(0xa0, 0x01), 0x01))\n      and\n      sub(shl(0xa0, 0x01), 0x01)\n      swap1\n      swap3\n      and\n      swap2\n      swap1\n      swap2\n      or\n      dup2\n      sstore\n      swap1\n      dup3\n      add\n      mload\n      0x01\n      dup3\n      add\n      sstore\n      0x40\n      swap1\n      swap2\n      add\n      mload\n      0x02\n      swap1\n      swap2\n      add\n      sstore\n        /* \"contracts/GMMCArcade.sol\":4623:4641  maxLeaderboardSize */\n      sload(0x06)\n        /* \"contracts/GMMCArcade.sol\":4602:4613  leaderboard */\n      0x05\n        /* \"contracts/GMMCArcade.sol\":4602:4620  leaderboard.length */\n      sload\n        /* \"contracts/GMMCArcade.sol\":4602:4641  leaderboard.length > maxLeaderboardSize */\n      gt\n        /* \"contracts/GMMCArcade.sol\":4598:4693  if (leaderboard.length > maxLeaderboardSize) {... */\n      iszero\n      tag_329\n      jumpi\n        /* \"contracts/GMMCArcade.sol\":4661:4672  leaderboard */\n      0x05\n        /* \"contracts/GMMCArcade.sol\":4661:4678  leaderboard.pop() */\n      dup1\n      sload\n      dup1\n      tag_331\n      jumpi\n      tag_331\n      tag_332\n      jump\t// in\n    tag_331:\n      0x00\n      dup3\n      dup2\n      mstore\n      0x20\n      dup2\n      keccak256\n      0x03\n      not(0x00)\n      swap1\n      swap4\n      add\n      swap3\n      dup4\n      mul\n      add\n      dup1\n      sload\n      not(sub(shl(0xa0, 0x01), 0x01))\n      and\n      dup2\n      sstore\n      0x01\n      dup2\n      add\n      dup3\n      swap1\n      sstore\n      0x02\n      add\n      sstore\n      swap1\n      sstore\n        /* \"contracts/GMMCArcade.sol\":4598:4693  if (leaderboard.length > maxLeaderboardSize) {... */\n    tag_329:\n      sub(shl(0xa0, 0x01), 0x01)\n        /* \"contracts/GMMCArcade.sol\":4724:4774  LeaderboardUpdated(player, score, insertIndex + 1) */\n      dup5\n      and\n      0x5c874adf9d1c93ab636130bb7e727993f1d6a3d33d1ffd925556815d0eec2308\n        /* \"contracts/GMMCArcade.sol\":4751:4756  score */\n      dup5\n        /* \"contracts/GMMCArcade.sol\":4758:4773  insertIndex + 1 */\n      tag_334\n        /* \"contracts/GMMCArcade.sol\":4758:4769  insertIndex */\n      dup5\n        /* \"contracts/GMMCArcade.sol\":4772:4773  1 */\n      0x01\n        /* \"contracts/GMMCArcade.sol\":4758:4773  insertIndex + 1 */\n      tag_128\n      jump\t// in\n    tag_334:\n        /* \"contracts/GMMCArcade.sol\":4724:4774  LeaderboardUpdated(player, score, insertIndex + 1) */\n      0x40\n      dup1\n      mload\n        /* \"#utility.yul\":8956:8981   */\n      swap3\n      dup4\n      mstore\n        /* \"#utility.yul\":9012:9014   */\n      0x20\n        /* \"#utility.yul\":8997:9015   */\n      dup4\n      add\n        /* \"#utility.yul\":8990:9024   */\n      swap2\n      swap1\n      swap2\n      mstore\n        /* \"#utility.yul\":8929:8947   */\n      add\n        /* \"contracts/GMMCArcade.sol\":4724:4774  LeaderboardUpdated(player, score, insertIndex + 1) */\n      mload(0x40)\n      dup1\n      swap2\n      sub\n      swap1\n      log2\n        /* \"contracts/GMMCArcade.sol\":3605:4791  {... */\n      pop\n      pop\n        /* \"contracts/GMMCArcade.sol\":3537:4791  function _updateLeaderboard(address player, uint256 score) internal {... */\n      pop\n      pop\n      jump\t// out\n        /* \"@openzeppelin/contracts/access/Ownable.sol\":2912:3099  function _transferOwnership(address newOwner) internal virtual {... */\n    tag_209:\n        /* \"@openzeppelin/contracts/access/Ownable.sol\":2985:3001  address oldOwner */\n      0x00\n        /* \"@openzeppelin/contracts/access/Ownable.sol\":3004:3010  _owner */\n      dup1\n      sload\n      sub(shl(0xa0, 0x01), 0x01)\n        /* \"@openzeppelin/contracts/access/Ownable.sol\":3020:3037  _owner = newOwner */\n      dup4\n      dup2\n      and\n      not(sub(shl(0xa0, 0x01), 0x01))\n      dup4\n      and\n      dup2\n      or\n      dup5\n      sstore\n        /* \"@openzeppelin/contracts/access/Ownable.sol\":3052:3092  OwnershipTransferred(oldOwner, newOwner) */\n      mload(0x40)\n        /* \"@openzeppelin/contracts/access/Ownable.sol\":3004:3010  _owner */\n      swap2\n      swap1\n      swap3\n      and\n      swap3\n      dup4\n      swap2\n        /* \"@openzeppelin/contracts/access/Ownable.sol\":3052:3092  OwnershipTransferred(oldOwner, newOwner) */\n      0x8be0079c531659141344cd1fd0a4f28419497f9722a3daafe3b4186f6b6457e0\n      swap2\n        /* \"@openzeppelin/contracts/access/Ownable.sol\":2985:3001  address oldOwner */\n      swap1\n        /* \"@openzeppelin/contracts/access/Ownable.sol\":3052:3092  OwnershipTransferred(oldOwner, newOwner) */\n      log3\n        /* \"@openzeppelin/contracts/access/Ownable.sol\":2975:3099  {... */\n      pop\n        /* \"@openzeppelin/contracts/access/Ownable.sol\":2912:3099  function _transferOwnership(address newOwner) internal virtual {... */\n      pop\n      jump\t// out\n        /* \"#utility.yul\":196:563   */\n    tag_338:\n        /* \"#utility.yul\":259:267   */\n      0x00\n        /* \"#utility.yul\":269:275   */\n      0x00\n        /* \"#utility.yul\":323:326   */\n      dup4\n        /* \"#utility.yul\":316:320   */\n      0x1f\n        /* \"#utility.yul\":308:314   */\n      dup5\n        /* \"#utility.yul\":304:321   */\n      add\n        /* \"#utility.yul\":300:327   */\n      slt\n        /* \"#utility.yul\":290:345   */\n      tag_343\n      jumpi\n        /* \"#utility.yul\":341:342   */\n      0x00\n        /* \"#utility.yul\":338:339   */\n      0x00\n        /* \"#utility.yul\":331:343   */\n      revert\n        /* \"#utility.yul\":290:345   */\n    tag_343:\n      pop\n        /* \"#utility.yul\":364:384   */\n      dup2\n      calldataload\n        /* \"#utility.yul\":407:425   */\n      0xffffffffffffffff\n        /* \"#utility.yul\":396:426   */\n      dup2\n      gt\n        /* \"#utility.yul\":393:443   */\n      iszero\n      tag_344\n      jumpi\n        /* \"#utility.yul\":439:440   */\n      0x00\n        /* \"#utility.yul\":436:437   */\n      0x00\n        /* \"#utility.yul\":429:441   */\n      revert\n        /* \"#utility.yul\":393:443   */\n    tag_344:\n        /* \"#utility.yul\":476:480   */\n      0x20\n        /* \"#utility.yul\":468:474   */\n      dup4\n        /* \"#utility.yul\":464:481   */\n      add\n        /* \"#utility.yul\":452:481   */\n      swap2\n      pop\n        /* \"#utility.yul\":536:539   */\n      dup4\n        /* \"#utility.yul\":529:533   */\n      0x20\n        /* \"#utility.yul\":519:525   */\n      dup3\n        /* \"#utility.yul\":516:517   */\n      0x05\n        /* \"#utility.yul\":512:526   */\n      shl\n        /* \"#utility.yul\":504:510   */\n      dup6\n        /* \"#utility.yul\":500:527   */\n      add\n        /* \"#utility.yul\":496:534   */\n      add\n        /* \"#utility.yul\":493:540   */\n      gt\n        /* \"#utility.yul\":490:557   */\n      iszero\n      tag_345\n      jumpi\n        /* \"#utility.yul\":553:554   */\n      0x00\n        /* \"#utility.yul\":550:551   */\n      0x00\n        /* \"#utility.yul\":543:555   */\n      revert\n        /* \"#utility.yul\":490:557   */\n    tag_345:\n        /* \"#utility.yul\":196:563   */\n      swap3\n      pop\n      swap3\n      swap1\n      pop\n      jump\t// out\n        /* \"#utility.yul\":568:1336   */\n    tag_35:\n        /* \"#utility.yul\":690:696   */\n      0x00\n        /* \"#utility.yul\":698:704   */\n      0x00\n        /* \"#utility.yul\":706:712   */\n      0x00\n        /* \"#utility.yul\":714:720   */\n      0x00\n        /* \"#utility.yul\":767:769   */\n      0x40\n        /* \"#utility.yul\":755:764   */\n      dup6\n        /* \"#utility.yul\":746:753   */\n      dup8\n        /* \"#utility.yul\":742:765   */\n      sub\n        /* \"#utility.yul\":738:770   */\n      slt\n        /* \"#utility.yul\":735:787   */\n      iszero\n      tag_347\n      jumpi\n        /* \"#utility.yul\":783:784   */\n      0x00\n        /* \"#utility.yul\":780:781   */\n      0x00\n        /* \"#utility.yul\":773:785   */\n      revert\n        /* \"#utility.yul\":735:787   */\n    tag_347:\n        /* \"#utility.yul\":823:832   */\n      dup5\n        /* \"#utility.yul\":810:833   */\n      calldataload\n        /* \"#utility.yul\":856:874   */\n      0xffffffffffffffff\n        /* \"#utility.yul\":848:854   */\n      dup2\n        /* \"#utility.yul\":845:875   */\n      gt\n        /* \"#utility.yul\":842:892   */\n      iszero\n      tag_348\n      jumpi\n        /* \"#utility.yul\":888:889   */\n      0x00\n        /* \"#utility.yul\":885:886   */\n      0x00\n        /* \"#utility.yul\":878:890   */\n      revert\n        /* \"#utility.yul\":842:892   */\n    tag_348:\n        /* \"#utility.yul\":927:997   */\n      tag_349\n        /* \"#utility.yul\":989:996   */\n      dup8\n        /* \"#utility.yul\":980:986   */\n      dup3\n        /* \"#utility.yul\":969:978   */\n      dup9\n        /* \"#utility.yul\":965:987   */\n      add\n        /* \"#utility.yul\":927:997   */\n      tag_338\n      jump\t// in\n    tag_349:\n        /* \"#utility.yul\":1016:1024   */\n      swap1\n      swap6\n      pop\n        /* \"#utility.yul\":901:997   */\n      swap4\n      pop\n      pop\n        /* \"#utility.yul\":1104:1106   */\n      0x20\n        /* \"#utility.yul\":1089:1107   */\n      dup6\n      add\n        /* \"#utility.yul\":1076:1108   */\n      calldataload\n        /* \"#utility.yul\":1133:1151   */\n      0xffffffffffffffff\n        /* \"#utility.yul\":1120:1152   */\n      dup2\n      gt\n        /* \"#utility.yul\":1117:1169   */\n      iszero\n      tag_350\n      jumpi\n        /* \"#utility.yul\":1165:1166   */\n      0x00\n        /* \"#utility.yul\":1162:1163   */\n      0x00\n        /* \"#utility.yul\":1155:1167   */\n      revert\n        /* \"#utility.yul\":1117:1169   */\n    tag_350:\n        /* \"#utility.yul\":1204:1276   */\n      tag_351\n        /* \"#utility.yul\":1268:1275   */\n      dup8\n        /* \"#utility.yul\":1257:1265   */\n      dup3\n        /* \"#utility.yul\":1246:1255   */\n      dup9\n        /* \"#utility.yul\":1242:1266   */\n      add\n        /* \"#utility.yul\":1204:1276   */\n      tag_338\n      jump\t// in\n    tag_351:\n        /* \"#utility.yul\":568:1336   */\n      swap6\n      swap9\n      swap5\n      swap8\n      pop\n        /* \"#utility.yul\":1295:1303   */\n      swap6\n      pop\n      pop\n      pop\n      pop\n        /* \"#utility.yul\":568:1336   */\n      jump\t// out\n        /* \"#utility.yul\":1341:1627   */\n    tag_42:\n        /* \"#utility.yul\":1400:1406   */\n      0x00\n        /* \"#utility.yul\":1453:1455   */\n      0x20\n        /* \"#utility.yul\":1441:1450   */\n      dup3\n        /* \"#utility.yul\":1432:1439   */\n      dup5\n        /* \"#utility.yul\":1428:1451   */\n      sub\n        /* \"#utility.yul\":1424:1456   */\n      slt\n        /* \"#utility.yul\":1421:1473   */\n      iszero\n      tag_353\n      jumpi\n        /* \"#utility.yul\":1469:1470   */\n      0x00\n        /* \"#utility.yul\":1466:1467   */\n      0x00\n        /* \"#utility.yul\":1459:1471   */\n      revert\n        /* \"#utility.yul\":1421:1473   */\n    tag_353:\n        /* \"#utility.yul\":1495:1518   */\n      dup2\n      calldataload\n      sub(shl(0xa0, 0x01), 0x01)\n        /* \"#utility.yul\":1547:1578   */\n      dup2\n      and\n        /* \"#utility.yul\":1537:1579   */\n      dup2\n      eq\n        /* \"#utility.yul\":1527:1597   */\n      tag_354\n      jumpi\n        /* \"#utility.yul\":1593:1594   */\n      0x00\n        /* \"#utility.yul\":1590:1591   */\n      0x00\n        /* \"#utility.yul\":1583:1595   */\n      revert\n        /* \"#utility.yul\":1527:1597   */\n    tag_354:\n        /* \"#utility.yul\":1616:1621   */\n      swap4\n        /* \"#utility.yul\":1341:1627   */\n      swap3\n      pop\n      pop\n      pop\n      jump\t// out\n        /* \"#utility.yul\":2275:2501   */\n    tag_55:\n        /* \"#utility.yul\":2334:2340   */\n      0x00\n        /* \"#utility.yul\":2387:2389   */\n      0x20\n        /* \"#utility.yul\":2375:2384   */\n      dup3\n        /* \"#utility.yul\":2366:2373   */\n      dup5\n        /* \"#utility.yul\":2362:2385   */\n      sub\n        /* \"#utility.yul\":2358:2390   */\n      slt\n        /* \"#utility.yul\":2355:2407   */\n      iszero\n      tag_358\n      jumpi\n        /* \"#utility.yul\":2403:2404   */\n      0x00\n        /* \"#utility.yul\":2400:2401   */\n      0x00\n        /* \"#utility.yul\":2393:2405   */\n      revert\n        /* \"#utility.yul\":2355:2407   */\n    tag_358:\n      pop\n        /* \"#utility.yul\":2448:2471   */\n      calldataload\n      swap2\n        /* \"#utility.yul\":2275:2501   */\n      swap1\n      pop\n      jump\t// out\n        /* \"#utility.yul\":2506:3349   */\n    tag_60:\n        /* \"#utility.yul\":2762:2764   */\n      0x20\n        /* \"#utility.yul\":2774:2795   */\n      dup1\n      dup3\n      mstore\n        /* \"#utility.yul\":2844:2857   */\n      dup3\n      mload\n        /* \"#utility.yul\":2747:2765   */\n      dup3\n      dup3\n      add\n        /* \"#utility.yul\":2866:2888   */\n      dup2\n      swap1\n      mstore\n        /* \"#utility.yul\":2714:2718   */\n      0x00\n      swap2\n        /* \"#utility.yul\":2945:2960   */\n      dup5\n      add\n      swap1\n        /* \"#utility.yul\":2919:2921   */\n      0x40\n        /* \"#utility.yul\":2904:2922   */\n      dup5\n      add\n      swap1\n        /* \"#utility.yul\":2714:2718   */\n      dup4\n        /* \"#utility.yul\":2988:3323   */\n    tag_360:\n        /* \"#utility.yul\":3002:3008   */\n      dup2\n        /* \"#utility.yul\":2999:3000   */\n      dup2\n        /* \"#utility.yul\":2996:3009   */\n      lt\n        /* \"#utility.yul\":2988:3323   */\n      iszero\n      tag_362\n      jumpi\n        /* \"#utility.yul\":3061:3074   */\n      dup4\n      mload\n        /* \"#utility.yul\":3103:3112   */\n      dup1\n      mload\n      sub(shl(0xa0, 0x01), 0x01)\n        /* \"#utility.yul\":3099:3134   */\n      and\n        /* \"#utility.yul\":3087:3135   */\n      dup5\n      mstore\n        /* \"#utility.yul\":3183:3185   */\n      0x20\n        /* \"#utility.yul\":3175:3186   */\n      dup1\n      dup3\n      add\n        /* \"#utility.yul\":3169:3187   */\n      mload\n        /* \"#utility.yul\":3155:3167   */\n      dup2\n      dup7\n      add\n        /* \"#utility.yul\":3148:3188   */\n      mstore\n        /* \"#utility.yul\":3236:3238   */\n      0x40\n        /* \"#utility.yul\":3228:3239   */\n      swap2\n      dup3\n      add\n        /* \"#utility.yul\":3222:3240   */\n      mload\n        /* \"#utility.yul\":3208:3220   */\n      swap2\n      dup6\n      add\n        /* \"#utility.yul\":3201:3241   */\n      swap2\n      swap1\n      swap2\n      mstore\n        /* \"#utility.yul\":3298:3313   */\n      swap1\n      swap4\n      add\n      swap3\n        /* \"#utility.yul\":3270:3274   */\n      0x60\n        /* \"#utility.yul\":3261:3275   */\n      swap1\n      swap3\n      add\n      swap2\n        /* \"#utility.yul\":3131:3132   */\n      0x01\n        /* \"#utility.yul\":3017:3026   */\n      add\n        /* \"#utility.yul\":2988:3323   */\n      jump(tag_360)\n    tag_362:\n      pop\n        /* \"#utility.yul\":3340:3343   */\n      swap1\n      swap6\n        /* \"#utility.yul\":2506:3349   */\n      swap5\n      pop\n      pop\n      pop\n      pop\n      pop\n      jump\t// out\n        /* \"#utility.yul\":4100:4446   */\n    tag_84:\n        /* \"#utility.yul\":4168:4174   */\n      0x00\n        /* \"#utility.yul\":4176:4182   */\n      0x00\n        /* \"#utility.yul\":4229:4231   */\n      0x40\n        /* \"#utility.yul\":4217:4226   */\n      dup4\n        /* \"#utility.yul\":4208:4215   */\n      dup6\n        /* \"#utility.yul\":4204:4227   */\n      sub\n        /* \"#utility.yul\":4200:4232   */\n      slt\n        /* \"#utility.yul\":4197:4249   */\n      iszero\n      tag_366\n      jumpi\n        /* \"#utility.yul\":4245:4246   */\n      0x00\n        /* \"#utility.yul\":4242:4243   */\n      0x00\n        /* \"#utility.yul\":4235:4247   */\n      revert\n        /* \"#utility.yul\":4197:4249   */\n    tag_366:\n      pop\n      pop\n        /* \"#utility.yul\":4290:4313   */\n      dup1\n      calldataload\n      swap3\n        /* \"#utility.yul\":4410:4412   */\n      0x20\n        /* \"#utility.yul\":4395:4413   */\n      swap1\n      swap2\n      add\n        /* \"#utility.yul\":4382:4414   */\n      calldataload\n      swap2\n      pop\n        /* \"#utility.yul\":4100:4446   */\n      jump\t// out\n        /* \"#utility.yul\":5024:5151   */\n    tag_126:\n        /* \"#utility.yul\":5085:5095   */\n      0x4e487b71\n        /* \"#utility.yul\":5080:5083   */\n      0xe0\n        /* \"#utility.yul\":5076:5096   */\n      shl\n        /* \"#utility.yul\":5073:5074   */\n      0x00\n        /* \"#utility.yul\":5066:5097   */\n      mstore\n        /* \"#utility.yul\":5116:5120   */\n      0x32\n        /* \"#utility.yul\":5113:5114   */\n      0x04\n        /* \"#utility.yul\":5106:5121   */\n      mstore\n        /* \"#utility.yul\":5140:5144   */\n      0x24\n        /* \"#utility.yul\":5137:5138   */\n      0x00\n        /* \"#utility.yul\":5130:5145   */\n      revert\n        /* \"#utility.yul\":5156:5283   */\n    tag_339:\n        /* \"#utility.yul\":5217:5227   */\n      0x4e487b71\n        /* \"#utility.yul\":5212:5215   */\n      0xe0\n        /* \"#utility.yul\":5208:5228   */\n      shl\n        /* \"#utility.yul\":5205:5206   */\n      0x00\n        /* \"#utility.yul\":5198:5229   */\n      mstore\n        /* \"#utility.yul\":5248:5252   */\n      0x11\n        /* \"#utility.yul\":5245:5246   */\n      0x04\n        /* \"#utility.yul\":5238:5253   */\n      mstore\n        /* \"#utility.yul\":5272:5276   */\n      0x24\n        /* \"#utility.yul\":5269:5270   */\n      0x00\n        /* \"#utility.yul\":5262:5277   */\n      revert\n        /* \"#utility.yul\":5288:5413   */\n    tag_128:\n        /* \"#utility.yul\":5353:5362   */\n      dup1\n      dup3\n      add\n        /* \"#utility.yul\":5374:5384   */\n      dup1\n      dup3\n      gt\n        /* \"#utility.yul\":5371:5407   */\n      iszero\n      tag_219\n      jumpi\n        /* \"#utility.yul\":5387:5405   */\n      tag_219\n      tag_339\n      jump\t// in\n        /* \"#utility.yul\":5771:5899   */\n    tag_133:\n        /* \"#utility.yul\":5838:5847   */\n      dup2\n      dup2\n      sub\n        /* \"#utility.yul\":5859:5870   */\n      dup2\n      dup2\n      gt\n        /* \"#utility.yul\":5856:5893   */\n      iszero\n      tag_219\n      jumpi\n        /* \"#utility.yul\":5873:5891   */\n      tag_219\n      tag_339\n      jump\t// in\n        /* \"#utility.yul\":6183:6460   */\n    tag_147:\n        /* \"#utility.yul\":6250:6256   */\n      0x00\n        /* \"#utility.yul\":6303:6305   */\n      0x20\n        /* \"#utility.yul\":6291:6300   */\n      dup3\n        /* \"#utility.yul\":6282:6289   */\n      dup5\n        /* \"#utility.yul\":6278:6301   */\n      sub\n        /* \"#utility.yul\":6274:6306   */\n      slt\n        /* \"#utility.yul\":6271:6323   */\n      iszero\n      tag_380\n      jumpi\n        /* \"#utility.yul\":6319:6320   */\n      0x00\n        /* \"#utility.yul\":6316:6317   */\n      0x00\n        /* \"#utility.yul\":6309:6321   */\n      revert\n        /* \"#utility.yul\":6271:6323   */\n    tag_380:\n        /* \"#utility.yul\":6351:6360   */\n      dup2\n        /* \"#utility.yul\":6345:6361   */\n      mload\n        /* \"#utility.yul\":6404:6409   */\n      dup1\n        /* \"#utility.yul\":6397:6410   */\n      iszero\n        /* \"#utility.yul\":6390:6411   */\n      iszero\n        /* \"#utility.yul\":6383:6388   */\n      dup2\n        /* \"#utility.yul\":6380:6412   */\n      eq\n        /* \"#utility.yul\":6370:6430   */\n      tag_354\n      jumpi\n        /* \"#utility.yul\":6426:6427   */\n      0x00\n        /* \"#utility.yul\":6423:6424   */\n      0x00\n        /* \"#utility.yul\":6416:6428   */\n      revert\n        /* \"#utility.yul\":7894:8062   */\n    tag_179:\n        /* \"#utility.yul\":7967:7976   */\n      dup1\n      dup3\n      mul\n        /* \"#utility.yul\":7998:8007   */\n      dup2\n      iszero\n        /* \"#utility.yul\":8015:8030   */\n      dup3\n      dup3\n      div\n        /* \"#utility.yul\":8009:8031   */\n      dup5\n      eq\n        /* \"#utility.yul\":7995:8032   */\n      or\n        /* \"#utility.yul\":7985:8056   */\n      tag_219\n      jumpi\n        /* \"#utility.yul\":8036:8054   */\n      tag_219\n      tag_339\n      jump\t// in\n        /* \"#utility.yul\":8067:8284   */\n    tag_181:\n        /* \"#utility.yul\":8107:8108   */\n      0x00\n        /* \"#utility.yul\":8133:8134   */\n      dup3\n        /* \"#utility.yul\":8123:8255   */\n      tag_390\n      jumpi\n        /* \"#utility.yul\":8177:8187   */\n      0x4e487b71\n        /* \"#utility.yul\":8172:8175   */\n      0xe0\n        /* \"#utility.yul\":8168:8188   */\n      shl\n        /* \"#utility.yul\":8165:8166   */\n      0x00\n        /* \"#utility.yul\":8158:8189   */\n      mstore\n        /* \"#utility.yul\":8212:8216   */\n      0x12\n        /* \"#utility.yul\":8209:8210   */\n      0x04\n        /* \"#utility.yul\":8202:8217   */\n      mstore\n        /* \"#utility.yul\":8240:8244   */\n      0x24\n        /* \"#utility.yul\":8237:8238   */\n      0x00\n        /* \"#utility.yul\":8230:8245   */\n      revert\n        /* \"#utility.yul\":8123:8255   */\n    tag_390:\n      pop\n        /* \"#utility.yul\":8269:8278   */\n      div\n      swap1\n        /* \"#utility.yul\":8067:8284   */\n      jump\t// out\n        /* \"#utility.yul\":8642:8777   */\n    tag_193:\n        /* \"#utility.yul\":8681:8684   */\n      0x00\n        /* \"#utility.yul\":8702:8719   */\n      0x01\n      dup3\n      add\n        /* \"#utility.yul\":8699:8742   */\n      tag_394\n      jumpi\n        /* \"#utility.yul\":8722:8740   */\n      tag_394\n      tag_339\n      jump\t// in\n    tag_394:\n      pop\n        /* \"#utility.yul\":8769:8770   */\n      0x01\n        /* \"#utility.yul\":8758:8771   */\n      add\n      swap1\n        /* \"#utility.yul\":8642:8777   */\n      jump\t// out\n        /* \"#utility.yul\":9391:9518   */\n    tag_223:\n        /* \"#utility.yul\":9452:9462   */\n      0x4e487b71\n        /* \"#utility.yul\":9447:9450   */\n      0xe0\n        /* \"#utility.yul\":9443:9463   */\n      shl\n        /* \"#utility.yul\":9440:9441   */\n      0x00\n        /* \"#utility.yul\":9433:9464   */\n      mstore\n        /* \"#utility.yul\":9483:9487   */\n      0x41\n        /* \"#utility.yul\":9480:9481   */\n      0x04\n        /* \"#utility.yul\":9473:9488   */\n      mstore\n        /* \"#utility.yul\":9507:9511   */\n      0x24\n        /* \"#utility.yul\":9504:9505   */\n      0x00\n        /* \"#utility.yul\":9497:9512   */\n      revert\n        /* \"#utility.yul\":9523:9707   */\n    tag_253:\n        /* \"#utility.yul\":9593:9599   */\n      0x00\n        /* \"#utility.yul\":9646:9648   */\n      0x20\n        /* \"#utility.yul\":9634:9643   */\n      dup3\n        /* \"#utility.yul\":9625:9632   */\n      dup5\n        /* \"#utility.yul\":9621:9644   */\n      sub\n        /* \"#utility.yul\":9617:9649   */\n      slt\n        /* \"#utility.yul\":9614:9666   */\n      iszero\n      tag_399\n      jumpi\n        /* \"#utility.yul\":9662:9663   */\n      0x00\n        /* \"#utility.yul\":9659:9660   */\n      0x00\n        /* \"#utility.yul\":9652:9664   */\n      revert\n        /* \"#utility.yul\":9614:9666   */\n    tag_399:\n      pop\n        /* \"#utility.yul\":9685:9701   */\n      mload\n      swap2\n        /* \"#utility.yul\":9523:9707   */\n      swap1\n      pop\n      jump\t// out\n        /* \"#utility.yul\":11474:11610   */\n    tag_325:\n        /* \"#utility.yul\":11513:11516   */\n      0x00\n        /* \"#utility.yul\":11541:11546   */\n      dup2\n        /* \"#utility.yul\":11531:11570   */\n      tag_407\n      jumpi\n        /* \"#utility.yul\":11550:11568   */\n      tag_407\n      tag_339\n      jump\t// in\n    tag_407:\n      pop\n      not(0x00)\n        /* \"#utility.yul\":11586:11604   */\n      add\n      swap1\n        /* \"#utility.yul\":11474:11610   */\n      jump\t// out\n        /* \"#utility.yul\":11615:11742   */\n    tag_332:\n        /* \"#utility.yul\":11676:11686   */\n      0x4e487b71\n        /* \"#utility.yul\":11671:11674   */\n      0xe0\n        /* \"#utility.yul\":11667:11687   */\n      shl\n        /* \"#utility.yul\":11664:11665   */\n      0x00\n        /* \"#utility.yul\":11657:11688   */\n      mstore\n        /* \"#utility.yul\":11707:11711   */\n      0x31\n        /* \"#utility.yul\":11704:11705   */\n      0x04\n        /* \"#utility.yul\":11697:11712   */\n      mstore\n        /* \"#utility.yul\":11731:11735   */\n      0x24\n        /* \"#utility.yul\":11728:11729   */\n      0x00\n        /* \"#utility.yul\":11721:11736   */\n      revert\n\n    auxdata: 0xa264697066735822122019401a61cbd465c141ca4fa53457d0235227288c72d3c3e2c02f17037d8b99b564736f6c634300081f0033\n}\n",
				"bytecode": {
					"linkReferences": {},
					"object": "60a060405269021e19e0c9bab240000060025560506003556064600655348015610027575f5ffd5b506040516118d03803806118d0833981016040819052610046916101b8565b338061006c57604051631e4fbdf760e01b81525f60048201526024015b60405180910390fd5b6100758161014e565b50600180556001600160a01b0382166100d05760405162461bcd60e51b815260206004820152601560248201527f496e76616c696420746f6b656e206164647265737300000000000000000000006044820152606401610063565b6001600160a01b0381166101265760405162461bcd60e51b815260206004820152601860248201527f496e76616c6964207472656173757279206164647265737300000000000000006044820152606401610063565b6001600160a01b03918216608052600480546001600160a01b031916919092161790556101e9565b5f80546001600160a01b038381166001600160a01b0319831681178455604051919092169283917f8be0079c531659141344cd1fd0a4f28419497f9722a3daafe3b4186f6b6457e09190a35050565b80516001600160a01b03811681146101b3575f5ffd5b919050565b5f5f604083850312156101c9575f5ffd5b6101d28361019d565b91506101e06020840161019d565b90509250929050565b6080516116ac6102245f395f818161036401528181610492015281816107410152818161087701528181610cb90152610d7601526116ac5ff3fe608060405234801561000f575f5ffd5b5060043610610148575f3560e01c8063b85cf54e116100bf578063eb770d0c11610079578063eb770d0c1461030a578063f041df461461031d578063f0f4426014610326578063f1a9584214610339578063f2fde38b1461034c578063f7341f0c1461035f575f5ffd5b8063b85cf54e14610252578063bf3683991461025b578063cdafbbb614610293578063d4e355bc146102e7578063d854fb75146102fa578063db2e21bc14610302575f5ffd5b806366666aa91161011057806366666aa9146101f65780636898f82b146101ff5780636d763a6e14610212578063715018a61461022757806387c9439d1461022f5780638da5cb5b14610242575f5ffd5b8063072ea61c1461014c578063143ba4f3146101685780631b3e4db11461017d5780634fd66eae1461018557806361d027b3146101cb575b5f5ffd5b61015560025481565b6040519081526020015b60405180910390f35b61017b610176366004611433565b610386565b005b600554610155565b61019861019336600461149f565b61064c565b60405161015f91908151815260208083015190820152604080830151908201526060918201519181019190915260800190565b6004546101de906001600160a01b031681565b6040516001600160a01b03909116815260200161015f565b61015560085481565b61017b61020d3660046114cc565b6106c0565b61021a6109d4565b60405161015f91906114e3565b61017b610a54565b61017b61023d3660046114cc565b610a67565b5f546001600160a01b03166101de565b61015560035481565b61026e6102693660046114cc565b610ac3565b604080516001600160a01b03909416845260208401929092529082015260600161015f565b6102c76102a136600461149f565b60076020525f908152604090208054600182015460028301546003909301549192909184565b60408051948552602085019390935291830152606082015260800161015f565b61021a6102f5366004611547565b610afe565b600854610155565b61017b610c9a565b61017b6103183660046114cc565b610e69565b61015560065481565b61017b61033436600461149f565b610efc565b61017b6103473660046114cc565b610fa8565b61017b61035a36600461149f565b611036565b6101de7f000000000000000000000000000000000000000000000000000000000000000081565b61038e611070565b61039661109c565b8281146103e35760405162461bcd60e51b8152602060048201526016602482015275082e4e4c2f2e640d8cadccee8d040dad2e6dac2e8c6d60531b60448201526064015b60405180910390fd5b5f805b8281101561041c5783838281811061040057610400611567565b9050602002013582610412919061158f565b91506001016103e6565b5060085481111561046f5760405162461bcd60e51b815260206004820152601860248201527f496e73756666696369656e742072657761726420706f6f6c000000000000000060448201526064016103da565b8060085f82825461048091906115a2565b909155505f90505b8481101561063b577f00000000000000000000000000000000000000000000000000000000000000006001600160a01b031663a9059cbb8787848181106104d1576104d1611567565b90506020020160208101906104e6919061149f565b8686858181106104f8576104f8611567565b6040516001600160e01b031960e087901b1681526001600160a01b03909416600485015260200291909101356024830152506044016020604051808303815f875af1158015610549573d5f5f3e3d5ffd5b505050506040513d601f19601f8201168201806040525081019061056d91906115b5565b6105b25760405162461bcd60e51b815260206004820152601660248201527514995dd85c99081d1c985b9cd9995c8819985a5b195960521b60448201526064016103da565b8585828181106105c4576105c4611567565b90506020020160208101906105d9919061149f565b6001600160a01b03167f106f923f993c2149d49b4255ff723acafa1f2d94393f561d3eda32ae348f724185858481811061061557610615611567565b9050602002013560405161062b91815260200190565b60405180910390a2600101610488565b505061064660018055565b50505050565b61067360405180608001604052805f81526020015f81526020015f81526020015f81525090565b506001600160a01b03165f90815260076020908152604091829020825160808101845281548152600182015492810192909252600281015492820192909252600390910154606082015290565b6106c861109c565b5f811180156106d95750613a988111155b61071b5760405162461bcd60e51b8152602060048201526013602482015272496e76616c69642073636f72652072616e676560681b60448201526064016103da565b6002546040516323b872dd60e01b815233600482015230602482015260448101919091527f00000000000000000000000000000000000000000000000000000000000000006001600160a01b0316906323b872dd906064016020604051808303815f875af115801561078f573d5f5f3e3d5ffd5b505050506040513d601f19601f820116820180604052508101906107b391906115b5565b6107ff5760405162461bcd60e51b815260206004820152601960248201527f456e74727920666565207472616e73666572206661696c65640000000000000060448201526064016103da565b5f606460035460025461081291906115d4565b61081c91906115eb565b90505f8160025461082d91906115a2565b90508160085f828254610840919061158f565b9091555050801561092d576004805460405163a9059cbb60e01b81526001600160a01b0391821692810192909252602482018390527f0000000000000000000000000000000000000000000000000000000000000000169063a9059cbb906044016020604051808303815f875af11580156108bd573d5f5f3e3d5ffd5b505050506040513d601f19601f820116820180604052508101906108e191906115b5565b61092d5760405162461bcd60e51b815260206004820152601860248201527f5472656173757279207472616e73666572206661696c6564000000000000000060448201526064016103da565b335f90815260076020526040812080549091829061094a8361160a565b919050555083816002015f828254610962919061158f565b9091555050426003820155600181015484111561098157600181018490555b61098b33856110c6565b6040805185815242602082015233917f24b31e1dbf1732a12bb700d3d77e5fb96ff3b693374d9fa15ccbc03f42715076910160405180910390a25050506109d160018055565b50565b60606005805480602002602001604051908101604052809291908181526020015f905b82821015610a4b575f848152602090819020604080516060810182526003860290920180546001600160a01b03168352600180820154848601526002909101549183019190915290835290920191016109f7565b50505050905090565b610a5c611070565b610a655f61139c565b565b610a6f611070565b5f8111610abe5760405162461bcd60e51b815260206004820152601b60248201527f53697a65206d7573742062652067726561746572207468616e2030000000000060448201526064016103da565b600655565b60058181548110610ad2575f80fd5b5f9182526020909120600390910201805460018201546002909201546001600160a01b03909116925083565b6005546060908310610b6457604080515f8082526020820190925290610b5c565b610b4960405180606001604052805f6001600160a01b031681526020015f81526020015f81525090565b815260200190600190039081610b1f5790505b509050610c94565b5f610b6f838561158f565b600554909150811115610b8157506005545b5f610b8c85836115a2565b67ffffffffffffffff811115610ba457610ba4611622565b604051908082528060200260200182016040528015610bff57816020015b610bec60405180606001604052805f6001600160a01b031681526020015f81526020015f81525090565b815260200190600190039081610bc25790505b509050845b82811015610c8f5760058181548110610c1f57610c1f611567565b5f91825260209182902060408051606081018252600390930290910180546001600160a01b031683526001810154938301939093526002909201549181019190915282610c6c88846115a2565b81518110610c7c57610c7c611567565b6020908102919091010152600101610c04565b509150505b92915050565b610ca2611070565b6040516370a0823160e01b81523060048201525f907f00000000000000000000000000000000000000000000000000000000000000006001600160a01b0316906370a0823190602401602060405180830381865afa158015610d06573d5f5f3e3d5ffd5b505050506040513d601f19601f82011682018060405250810190610d2a9190611636565b90505f8111610d745760405162461bcd60e51b81526020600482015260166024820152754e6f2062616c616e636520746f20776974686472617760501b60448201526064016103da565b7f00000000000000000000000000000000000000000000000000000000000000006001600160a01b031663a9059cbb610db45f546001600160a01b031690565b6040516001600160e01b031960e084901b1681526001600160a01b039091166004820152602481018490526044016020604051808303815f875af1158015610dfe573d5f5f3e3d5ffd5b505050506040513d601f19601f82011682018060405250810190610e2291906115b5565b610e625760405162461bcd60e51b815260206004820152601160248201527015da5d1a191c985dd85b0819985a5b1959607a1b60448201526064016103da565b505f600855565b610e71611070565b5f8111610ec05760405162461bcd60e51b815260206004820152601a60248201527f466565206d7573742062652067726561746572207468616e203000000000000060448201526064016103da565b60028190556040518181527f24a0b2e591795f2c27be52ff14a57d0a39ac957304305bc05e8b04be49e8fe15906020015b60405180910390a150565b610f04611070565b6001600160a01b038116610f5a5760405162461bcd60e51b815260206004820152601860248201527f496e76616c69642074726561737572792061646472657373000000000000000060448201526064016103da565b600480546001600160a01b0319166001600160a01b0383169081179091556040519081527f7dae230f18360d76a040c81f050aa14eb9d6dc7901b20fc5d855e2a20fe814d190602001610ef1565b610fb0611070565b60648111156110015760405162461bcd60e51b815260206004820152601c60248201527f50657263656e746167652063616e6e6f7420657863656564203130300000000060448201526064016103da565b60038190556040518181527f4c6206d197fb835b6626cb8f20f3796fd7993dea9493ac4a8d2c799b22f8287790602001610ef1565b61103e611070565b6001600160a01b03811661106757604051631e4fbdf760e01b81525f60048201526024016103da565b6109d18161139c565b5f546001600160a01b03163314610a655760405163118cdaa760e01b81523360048201526024016103da565b6002600154036110bf57604051633ee5aeb560e01b815260040160405180910390fd5b6002600155565b604080516060810182526001600160a01b03841681526020810183905242918101919091526005545f5b600554811015611134576005818154811061110d5761110d611567565b905f5260205f2090600302016001015484111561112c57809150611134565b6001016110f0565b506006548110156106465760065460055410156111f657600580546001810182555f9190915282517f036b6384b5eca791c62761152d0c79bb0604c104a5fb6f4eb0703f3154bb3db0600390920291820180546001600160a01b0319166001600160a01b0390921691909117905560208301517f036b6384b5eca791c62761152d0c79bb0604c104a5fb6f4eb0703f3154bb3db182015560408301517f036b6384b5eca791c62761152d0c79bb0604c104a5fb6f4eb0703f3154bb3db2909101555b6005545f90611207906001906115a2565b90505b818111156112a157600561121f6001836115a2565b8154811061122f5761122f611567565b905f5260205f2090600302016005828154811061124e5761124e611567565b5f9182526020909120825460039092020180546001600160a01b0319166001600160a01b0390921691909117815560018083015490820155600291820154910155806112998161164d565b91505061120a565b5081600582815481106112b6576112b6611567565b5f91825260209182902083516003929092020180546001600160a01b0319166001600160a01b03909216919091178155908201516001820155604090910151600290910155600654600554111561134757600580548061131857611318611662565b5f8281526020812060035f199093019283020180546001600160a01b0319168155600181018290556002015590555b6001600160a01b0384167f5c874adf9d1c93ab636130bb7e727993f1d6a3d33d1ffd925556815d0eec23088461137e84600161158f565b6040805192835260208301919091520160405180910390a250505050565b5f80546001600160a01b038381166001600160a01b0319831681178455604051919092169283917f8be0079c531659141344cd1fd0a4f28419497f9722a3daafe3b4186f6b6457e09190a35050565b5f5f83601f8401126113fb575f5ffd5b50813567ffffffffffffffff811115611412575f5ffd5b6020830191508360208260051b850101111561142c575f5ffd5b9250929050565b5f5f5f5f60408587031215611446575f5ffd5b843567ffffffffffffffff81111561145c575f5ffd5b611468878288016113eb565b909550935050602085013567ffffffffffffffff811115611487575f5ffd5b611493878288016113eb565b95989497509550505050565b5f602082840312156114af575f5ffd5b81356001600160a01b03811681146114c5575f5ffd5b9392505050565b5f602082840312156114dc575f5ffd5b5035919050565b602080825282518282018190525f918401906040840190835b8181101561153c57835180516001600160a01b031684526020808201518186015260409182015191850191909152909301926060909201916001016114fc565b509095945050505050565b5f5f60408385031215611558575f5ffd5b50508035926020909101359150565b634e487b7160e01b5f52603260045260245ffd5b634e487b7160e01b5f52601160045260245ffd5b80820180821115610c9457610c9461157b565b81810381811115610c9457610c9461157b565b5f602082840312156115c5575f5ffd5b815180151581146114c5575f5ffd5b8082028115828204841417610c9457610c9461157b565b5f8261160557634e487b7160e01b5f52601260045260245ffd5b500490565b5f6001820161161b5761161b61157b565b5060010190565b634e487b7160e01b5f52604160045260245ffd5b5f60208284031215611646575f5ffd5b5051919050565b5f8161165b5761165b61157b565b505f190190565b634e487b7160e01b5f52603160045260245ffdfea264697066735822122019401a61cbd465c141ca4fa53457d0235227288c72d3c3e2c02f17037d8b99b564736f6c634300081f0033",
					"opcodes": "PUSH1 0xA0 PUSH1 0x40 MSTORE PUSH10 0x21E19E0C9BAB2400000 PUSH1 0x2 SSTORE PUSH1 0x50 PUSH1 0x3 SSTORE PUSH1 0x64 PUSH1 0x6 SSTORE CALLVALUE DUP1 ISZERO PUSH2 0x27 JUMPI PUSH0 PUSH0 REVERT JUMPDEST POP PUSH1 0x40 MLOAD PUSH2 0x18D0 CODESIZE SUB DUP1 PUSH2 0x18D0 DUP4 CODECOPY DUP2 ADD PUSH1 0x40 DUP2 SWAP1 MSTORE PUSH2 0x46 SWAP2 PUSH2 0x1B8 JUMP JUMPDEST CALLER DUP1 PUSH2 0x6C JUMPI PUSH1 0x40 MLOAD PUSH4 0x1E4FBDF7 PUSH1 0xE0 SHL DUP2 MSTORE PUSH0 PUSH1 0x4 DUP3 ADD MSTORE PUSH1 0x24 ADD JUMPDEST PUSH1 0x40 MLOAD DUP1 SWAP2 SUB SWAP1 REVERT JUMPDEST PUSH2 0x75 DUP2 PUSH2 0x14E JUMP JUMPDEST POP PUSH1 0x1 DUP1 SSTORE PUSH1 0x1 PUSH1 0x1 PUSH1 0xA0 SHL SUB DUP3 AND PUSH2 0xD0 JUMPI PUSH1 0x40 MLOAD PUSH3 0x461BCD PUSH1 0xE5 SHL DUP2 MSTORE PUSH1 0x20 PUSH1 0x4 DUP3 ADD MSTORE PUSH1 0x15 PUSH1 0x24 DUP3 ADD MSTORE PUSH32 0x496E76616C696420746F6B656E20616464726573730000000000000000000000 PUSH1 0x44 DUP3 ADD MSTORE PUSH1 0x64 ADD PUSH2 0x63 JUMP JUMPDEST PUSH1 0x1 PUSH1 0x1 PUSH1 0xA0 SHL SUB DUP2 AND PUSH2 0x126 JUMPI PUSH1 0x40 MLOAD PUSH3 0x461BCD PUSH1 0xE5 SHL DUP2 MSTORE PUSH1 0x20 PUSH1 0x4 DUP3 ADD MSTORE PUSH1 0x18 PUSH1 0x24 DUP3 ADD MSTORE PUSH32 0x496E76616C696420747265617375727920616464726573730000000000000000 PUSH1 0x44 DUP3 ADD MSTORE PUSH1 0x64 ADD PUSH2 0x63 JUMP JUMPDEST PUSH1 0x1 PUSH1 0x1 PUSH1 0xA0 SHL SUB SWAP2 DUP3 AND PUSH1 0x80 MSTORE PUSH1 0x4 DUP1 SLOAD PUSH1 0x1 PUSH1 0x1 PUSH1 0xA0 SHL SUB NOT AND SWAP2 SWAP1 SWAP3 AND OR SWAP1 SSTORE PUSH2 0x1E9 JUMP JUMPDEST PUSH0 DUP1 SLOAD PUSH1 0x1 PUSH1 0x1 PUSH1 0xA0 SHL SUB DUP4 DUP2 AND PUSH1 0x1 PUSH1 0x1 PUSH1 0xA0 SHL SUB NOT DUP4 AND DUP2 OR DUP5 SSTORE PUSH1 0x40 MLOAD SWAP2 SWAP1 SWAP3 AND SWAP3 DUP4 SWAP2 PUSH32 0x8BE0079C531659141344CD1FD0A4F28419497F9722A3DAAFE3B4186F6B6457E0 SWAP2 SWAP1 LOG3 POP POP JUMP JUMPDEST DUP1 MLOAD PUSH1 0x1 PUSH1 0x1 PUSH1 0xA0 SHL SUB DUP2 AND DUP2 EQ PUSH2 0x1B3 JUMPI PUSH0 PUSH0 REVERT JUMPDEST SWAP2 SWAP1 POP JUMP JUMPDEST PUSH0 PUSH0 PUSH1 0x40 DUP4 DUP6 SUB SLT ISZERO PUSH2 0x1C9 JUMPI PUSH0 PUSH0 REVERT JUMPDEST PUSH2 0x1D2 DUP4 PUSH2 0x19D JUMP JUMPDEST SWAP2 POP PUSH2 0x1E0 PUSH1 0x20 DUP5 ADD PUSH2 0x19D JUMP JUMPDEST SWAP1 POP SWAP3 POP SWAP3 SWAP1 POP JUMP JUMPDEST PUSH1 0x80 MLOAD PUSH2 0x16AC PUSH2 0x224 PUSH0 CODECOPY PUSH0 DUP2 DUP2 PUSH2 0x364 ADD MSTORE DUP2 DUP2 PUSH2 0x492 ADD MSTORE DUP2 DUP2 PUSH2 0x741 ADD MSTORE DUP2 DUP2 PUSH2 0x877 ADD MSTORE DUP2 DUP2 PUSH2 0xCB9 ADD MSTORE PUSH2 0xD76 ADD MSTORE PUSH2 0x16AC PUSH0 RETURN INVALID PUSH1 0x80 PUSH1 0x40 MSTORE CALLVALUE DUP1 ISZERO PUSH2 0xF JUMPI PUSH0 PUSH0 REVERT JUMPDEST POP PUSH1 0x4 CALLDATASIZE LT PUSH2 0x148 JUMPI PUSH0 CALLDATALOAD PUSH1 0xE0 SHR DUP1 PUSH4 0xB85CF54E GT PUSH2 0xBF JUMPI DUP1 PUSH4 0xEB770D0C GT PUSH2 0x79 JUMPI DUP1 PUSH4 0xEB770D0C EQ PUSH2 0x30A JUMPI DUP1 PUSH4 0xF041DF46 EQ PUSH2 0x31D JUMPI DUP1 PUSH4 0xF0F44260 EQ PUSH2 0x326 JUMPI DUP1 PUSH4 0xF1A95842 EQ PUSH2 0x339 JUMPI DUP1 PUSH4 0xF2FDE38B EQ PUSH2 0x34C JUMPI DUP1 PUSH4 0xF7341F0C EQ PUSH2 0x35F JUMPI PUSH0 PUSH0 REVERT JUMPDEST DUP1 PUSH4 0xB85CF54E EQ PUSH2 0x252 JUMPI DUP1 PUSH4 0xBF368399 EQ PUSH2 0x25B JUMPI DUP1 PUSH4 0xCDAFBBB6 EQ PUSH2 0x293 JUMPI DUP1 PUSH4 0xD4E355BC EQ PUSH2 0x2E7 JUMPI DUP1 PUSH4 0xD854FB75 EQ PUSH2 0x2FA JUMPI DUP1 PUSH4 0xDB2E21BC EQ PUSH2 0x302 JUMPI PUSH0 PUSH0 REVERT JUMPDEST DUP1 PUSH4 0x66666AA9 GT PUSH2 0x110 JUMPI DUP1 PUSH4 0x66666AA9 EQ PUSH2 0x1F6 JUMPI DUP1 PUSH4 0x6898F82B EQ PUSH2 0x1FF JUMPI DUP1 PUSH4 0x6D763A6E EQ PUSH2 0x212 JUMPI DUP1 PUSH4 0x715018A6 EQ PUSH2 0x227 JUMPI DUP1 PUSH4 0x87C9439D EQ PUSH2 0x22F JUMPI DUP1 PUSH4 0x8DA5CB5B EQ PUSH2 0x242 JUMPI PUSH0 PUSH0 REVERT JUMPDEST DUP1 PUSH4 0x72EA61C EQ PUSH2 0x14C JUMPI DUP1 PUSH4 0x143BA4F3 EQ PUSH2 0x168 JUMPI DUP1 PUSH4 0x1B3E4DB1 EQ PUSH2 0x17D JUMPI DUP1 PUSH4 0x4FD66EAE EQ PUSH2 0x185 JUMPI DUP1 PUSH4 0x61D027B3 EQ PUSH2 0x1CB JUMPI JUMPDEST PUSH0 PUSH0 REVERT JUMPDEST PUSH2 0x155 PUSH1 0x2 SLOAD DUP2 JUMP JUMPDEST PUSH1 0x40 MLOAD SWAP1 DUP2 MSTORE PUSH1 0x20 ADD JUMPDEST PUSH1 0x40 MLOAD DUP1 SWAP2 SUB SWAP1 RETURN JUMPDEST PUSH2 0x17B PUSH2 0x176 CALLDATASIZE PUSH1 0x4 PUSH2 0x1433 JUMP JUMPDEST PUSH2 0x386 JUMP JUMPDEST STOP JUMPDEST PUSH1 0x5 SLOAD PUSH2 0x155 JUMP JUMPDEST PUSH2 0x198 PUSH2 0x193 CALLDATASIZE PUSH1 0x4 PUSH2 0x149F JUMP JUMPDEST PUSH2 0x64C JUMP JUMPDEST PUSH1 0x40 MLOAD PUSH2 0x15F SWAP2 SWAP1 DUP2 MLOAD DUP2 MSTORE PUSH1 0x20 DUP1 DUP4 ADD MLOAD SWAP1 DUP3 ADD MSTORE PUSH1 0x40 DUP1 DUP4 ADD MLOAD SWAP1 DUP3 ADD MSTORE PUSH1 0x60 SWAP2 DUP3 ADD MLOAD SWAP2 DUP2 ADD SWAP2 SWAP1 SWAP2 MSTORE PUSH1 0x80 ADD SWAP1 JUMP JUMPDEST PUSH1 0x4 SLOAD PUSH2 0x1DE SWAP1 PUSH1 0x1 PUSH1 0x1 PUSH1 0xA0 SHL SUB AND DUP2 JUMP JUMPDEST PUSH1 0x40 MLOAD PUSH1 0x1 PUSH1 0x1 PUSH1 0xA0 SHL SUB SWAP1 SWAP2 AND DUP2 MSTORE PUSH1 0x20 ADD PUSH2 0x15F JUMP JUMPDEST PUSH2 0x155 PUSH1 0x8 SLOAD DUP2 JUMP JUMPDEST PUSH2 0x17B PUSH2 0x20D CALLDATASIZE PUSH1 0x4 PUSH2 0x14CC JUMP JUMPDEST PUSH2 0x6C0 JUMP JUMPDEST PUSH2 0x21A PUSH2 0x9D4 JUMP JUMPDEST PUSH1 0x40 MLOAD PUSH2 0x15F SWAP2 SWAP1 PUSH2 0x14E3 JUMP JUMPDEST PUSH2 0x17B PUSH2 0xA54 JUMP JUMPDEST PUSH2 0x17B PUSH2 0x23D CALLDATASIZE PUSH1 0x4 PUSH2 0x14CC JUMP JUMPDEST PUSH2 0xA67 JUMP JUMPDEST PUSH0 SLOAD PUSH1 0x1 PUSH1 0x1 PUSH1 0xA0 SHL SUB AND PUSH2 0x1DE JUMP JUMPDEST PUSH2 0x155 PUSH1 0x3 SLOAD DUP2 JUMP JUMPDEST PUSH2 0x26E PUSH2 0x269 CALLDATASIZE PUSH1 0x4 PUSH2 0x14CC JUMP JUMPDEST PUSH2 0xAC3 JUMP JUMPDEST PUSH1 0x40 DUP1 MLOAD PUSH1 0x1 PUSH1 0x1 PUSH1 0xA0 SHL SUB SWAP1 SWAP5 AND DUP5 MSTORE PUSH1 0x20 DUP5 ADD SWAP3 SWAP1 SWAP3 MSTORE SWAP1 DUP3 ADD MSTORE PUSH1 0x60 ADD PUSH2 0x15F JUMP JUMPDEST PUSH2 0x2C7 PUSH2 0x2A1 CALLDATASIZE PUSH1 0x4 PUSH2 0x149F JUMP JUMPDEST PUSH1 0x7 PUSH1 0x20 MSTORE PUSH0 SWAP1 DUP2 MSTORE PUSH1 0x40 SWAP1 KECCAK256 DUP1 SLOAD PUSH1 0x1 DUP3 ADD SLOAD PUSH1 0x2 DUP4 ADD SLOAD PUSH1 0x3 SWAP1 SWAP4 ADD SLOAD SWAP2 SWAP3 SWAP1 SWAP2 DUP5 JUMP JUMPDEST PUSH1 0x40 DUP1 MLOAD SWAP5 DUP6 MSTORE PUSH1 0x20 DUP6 ADD SWAP4 SWAP1 SWAP4 MSTORE SWAP2 DUP4 ADD MSTORE PUSH1 0x60 DUP3 ADD MSTORE PUSH1 0x80 ADD PUSH2 0x15F JUMP JUMPDEST PUSH2 0x21A PUSH2 0x2F5 CALLDATASIZE PUSH1 0x4 PUSH2 0x1547 JUMP JUMPDEST PUSH2 0xAFE JUMP JUMPDEST PUSH1 0x8 SLOAD PUSH2 0x155 JUMP JUMPDEST PUSH2 0x17B PUSH2 0xC9A JUMP JUMPDEST PUSH2 0x17B PUSH2 0x318 CALLDATASIZE PUSH1 0x4 PUSH2 0x14CC JUMP JUMPDEST PUSH2 0xE69 JUMP JUMPDEST PUSH2 0x155 PUSH1 0x6 SLOAD DUP2 JUMP JUMPDEST PUSH2 0x17B PUSH2 0x334 CALLDATASIZE PUSH1 0x4 PUSH2 0x149F JUMP JUMPDEST PUSH2 0xEFC JUMP JUMPDEST PUSH2 0x17B PUSH2 0x347 CALLDATASIZE PUSH1 0x4 PUSH2 0x14CC JUMP JUMPDEST PUSH2 0xFA8 JUMP JUMPDEST PUSH2 0x17B PUSH2 0x35A CALLDATASIZE PUSH1 0x4 PUSH2 0x149F JUMP JUMPDEST PUSH2 0x1036 JUMP JUMPDEST PUSH2 0x1DE PUSH32 0x0 DUP2 JUMP JUMPDEST PUSH2 0x38E PUSH2 0x1070 JUMP JUMPDEST PUSH2 0x396 PUSH2 0x109C JUMP JUMPDEST DUP3 DUP2 EQ PUSH2 0x3E3 JUMPI PUSH1 0x40 MLOAD PUSH3 0x461BCD PUSH1 0xE5 SHL DUP2 MSTORE PUSH1 0x20 PUSH1 0x4 DUP3 ADD MSTORE PUSH1 0x16 PUSH1 0x24 DUP3 ADD MSTORE PUSH22 0x82E4E4C2F2E640D8CADCCEE8D040DAD2E6DAC2E8C6D PUSH1 0x53 SHL PUSH1 0x44 DUP3 ADD MSTORE PUSH1 0x64 ADD JUMPDEST PUSH1 0x40 MLOAD DUP1 SWAP2 SUB SWAP1 REVERT JUMPDEST PUSH0 DUP1 JUMPDEST DUP3 DUP2 LT ISZERO PUSH2 0x41C JUMPI DUP4 DUP4 DUP3 DUP2 DUP2 LT PUSH2 0x400 JUMPI PUSH2 0x400 PUSH2 0x1567 JUMP JUMPDEST SWAP1 POP PUSH1 0x20 MUL ADD CALLDATALOAD DUP3 PUSH2 0x412 SWAP2 SWAP1 PUSH2 0x158F JUMP JUMPDEST SWAP2 POP PUSH1 0x1 ADD PUSH2 0x3E6 JUMP JUMPDEST POP PUSH1 0x8 SLOAD DUP2 GT ISZERO PUSH2 0x46F JUMPI PUSH1 0x40 MLOAD PUSH3 0x461BCD PUSH1 0xE5 SHL DUP2 MSTORE PUSH1 0x20 PUSH1 0x4 DUP3 ADD MSTORE PUSH1 0x18 PUSH1 0x24 DUP3 ADD MSTORE PUSH32 0x496E73756666696369656E742072657761726420706F6F6C0000000000000000 PUSH1 0x44 DUP3 ADD MSTORE PUSH1 0x64 ADD PUSH2 0x3DA JUMP JUMPDEST DUP1 PUSH1 0x8 PUSH0 DUP3 DUP3 SLOAD PUSH2 0x480 SWAP2 SWAP1 PUSH2 0x15A2 JUMP JUMPDEST SWAP1 SWAP2 SSTORE POP PUSH0 SWAP1 POP JUMPDEST DUP5 DUP2 LT ISZERO PUSH2 0x63B JUMPI PUSH32 0x0 PUSH1 0x1 PUSH1 0x1 PUSH1 0xA0 SHL SUB AND PUSH4 0xA9059CBB DUP8 DUP8 DUP5 DUP2 DUP2 LT PUSH2 0x4D1 JUMPI PUSH2 0x4D1 PUSH2 0x1567 JUMP JUMPDEST SWAP1 POP PUSH1 0x20 MUL ADD PUSH1 0x20 DUP2 ADD SWAP1 PUSH2 0x4E6 SWAP2 SWAP1 PUSH2 0x149F JUMP JUMPDEST DUP7 DUP7 DUP6 DUP2 DUP2 LT PUSH2 0x4F8 JUMPI PUSH2 0x4F8 PUSH2 0x1567 JUMP JUMPDEST PUSH1 0x40 MLOAD PUSH1 0x1 PUSH1 0x1 PUSH1 0xE0 SHL SUB NOT PUSH1 0xE0 DUP8 SWAP1 SHL AND DUP2 MSTORE PUSH1 0x1 PUSH1 0x1 PUSH1 0xA0 SHL SUB SWAP1 SWAP5 AND PUSH1 0x4 DUP6 ADD MSTORE PUSH1 0x20 MUL SWAP2 SWAP1 SWAP2 ADD CALLDATALOAD PUSH1 0x24 DUP4 ADD MSTORE POP PUSH1 0x44 ADD PUSH1 0x20 PUSH1 0x40 MLOAD DUP1 DUP4 SUB DUP2 PUSH0 DUP8 GAS CALL ISZERO DUP1 ISZERO PUSH2 0x549 JUMPI RETURNDATASIZE PUSH0 PUSH0 RETURNDATACOPY RETURNDATASIZE PUSH0 REVERT JUMPDEST POP POP POP POP PUSH1 0x40 MLOAD RETURNDATASIZE PUSH1 0x1F NOT PUSH1 0x1F DUP3 ADD AND DUP3 ADD DUP1 PUSH1 0x40 MSTORE POP DUP2 ADD SWAP1 PUSH2 0x56D SWAP2 SWAP1 PUSH2 0x15B5 JUMP JUMPDEST PUSH2 0x5B2 JUMPI PUSH1 0x40 MLOAD PUSH3 0x461BCD PUSH1 0xE5 SHL DUP2 MSTORE PUSH1 0x20 PUSH1 0x4 DUP3 ADD MSTORE PUSH1 0x16 PUSH1 0x24 DUP3 ADD MSTORE PUSH22 0x14995DD85C99081D1C985B9CD9995C8819985A5B1959 PUSH1 0x52 SHL PUSH1 0x44 DUP3 ADD MSTORE PUSH1 0x64 ADD PUSH2 0x3DA JUMP JUMPDEST DUP6 DUP6 DUP3 DUP2 DUP2 LT PUSH2 0x5C4 JUMPI PUSH2 0x5C4 PUSH2 0x1567 JUMP JUMPDEST SWAP1 POP PUSH1 0x20 MUL ADD PUSH1 0x20 DUP2 ADD SWAP1 PUSH2 0x5D9 SWAP2 SWAP1 PUSH2 0x149F JUMP JUMPDEST PUSH1 0x1 PUSH1 0x1 PUSH1 0xA0 SHL SUB AND PUSH32 0x106F923F993C2149D49B4255FF723ACAFA1F2D94393F561D3EDA32AE348F7241 DUP6 DUP6 DUP5 DUP2 DUP2 LT PUSH2 0x615 JUMPI PUSH2 0x615 PUSH2 0x1567 JUMP JUMPDEST SWAP1 POP PUSH1 0x20 MUL ADD CALLDATALOAD PUSH1 0x40 MLOAD PUSH2 0x62B SWAP2 DUP2 MSTORE PUSH1 0x20 ADD SWAP1 JUMP JUMPDEST PUSH1 0x40 MLOAD DUP1 SWAP2 SUB SWAP1 LOG2 PUSH1 0x1 ADD PUSH2 0x488 JUMP JUMPDEST POP POP PUSH2 0x646 PUSH1 0x1 DUP1 SSTORE JUMP JUMPDEST POP POP POP POP JUMP JUMPDEST PUSH2 0x673 PUSH1 0x40 MLOAD DUP1 PUSH1 0x80 ADD PUSH1 0x40 MSTORE DUP1 PUSH0 DUP2 MSTORE PUSH1 0x20 ADD PUSH0 DUP2 MSTORE PUSH1 0x20 ADD PUSH0 DUP2 MSTORE PUSH1 0x20 ADD PUSH0 DUP2 MSTORE POP SWAP1 JUMP JUMPDEST POP PUSH1 0x1 PUSH1 0x1 PUSH1 0xA0 SHL SUB AND PUSH0 SWAP1 DUP2 MSTORE PUSH1 0x7 PUSH1 0x20 SWAP1 DUP2 MSTORE PUSH1 0x40 SWAP2 DUP3 SWAP1 KECCAK256 DUP3 MLOAD PUSH1 0x80 DUP2 ADD DUP5 MSTORE DUP2 SLOAD DUP2 MSTORE PUSH1 0x1 DUP3 ADD SLOAD SWAP3 DUP2 ADD SWAP3 SWAP1 SWAP3 MSTORE PUSH1 0x2 DUP2 ADD SLOAD SWAP3 DUP3 ADD SWAP3 SWAP1 SWAP3 MSTORE PUSH1 0x3 SWAP1 SWAP2 ADD SLOAD PUSH1 0x60 DUP3 ADD MSTORE SWAP1 JUMP JUMPDEST PUSH2 0x6C8 PUSH2 0x109C JUMP JUMPDEST PUSH0 DUP2 GT DUP1 ISZERO PUSH2 0x6D9 JUMPI POP PUSH2 0x3A98 DUP2 GT ISZERO JUMPDEST PUSH2 0x71B JUMPI PUSH1 0x40 MLOAD PUSH3 0x461BCD PUSH1 0xE5 SHL DUP2 MSTORE PUSH1 0x20 PUSH1 0x4 DUP3 ADD MSTORE PUSH1 0x13 PUSH1 0x24 DUP3 ADD MSTORE PUSH19 0x496E76616C69642073636F72652072616E6765 PUSH1 0x68 SHL PUSH1 0x44 DUP3 ADD MSTORE PUSH1 0x64 ADD PUSH2 0x3DA JUMP JUMPDEST PUSH1 0x2 SLOAD PUSH1 0x40 MLOAD PUSH4 0x23B872DD PUSH1 0xE0 SHL DUP2 MSTORE CALLER PUSH1 0x4 DUP3 ADD MSTORE ADDRESS PUSH1 0x24 DUP3 ADD MSTORE PUSH1 0x44 DUP2 ADD SWAP2 SWAP1 SWAP2 MSTORE PUSH32 0x0 PUSH1 0x1 PUSH1 0x1 PUSH1 0xA0 SHL SUB AND SWAP1 PUSH4 0x23B872DD SWAP1 PUSH1 0x64 ADD PUSH1 0x20 PUSH1 0x40 MLOAD DUP1 DUP4 SUB DUP2 PUSH0 DUP8 GAS CALL ISZERO DUP1 ISZERO PUSH2 0x78F JUMPI RETURNDATASIZE PUSH0 PUSH0 RETURNDATACOPY RETURNDATASIZE PUSH0 REVERT JUMPDEST POP POP POP POP PUSH1 0x40 MLOAD RETURNDATASIZE PUSH1 0x1F NOT PUSH1 0x1F DUP3 ADD AND DUP3 ADD DUP1 PUSH1 0x40 MSTORE POP DUP2 ADD SWAP1 PUSH2 0x7B3 SWAP2 SWAP1 PUSH2 0x15B5 JUMP JUMPDEST PUSH2 0x7FF JUMPI PUSH1 0x40 MLOAD PUSH3 0x461BCD PUSH1 0xE5 SHL DUP2 MSTORE PUSH1 0x20 PUSH1 0x4 DUP3 ADD MSTORE PUSH1 0x19 PUSH1 0x24 DUP3 ADD MSTORE PUSH32 0x456E74727920666565207472616E73666572206661696C656400000000000000 PUSH1 0x44 DUP3 ADD MSTORE PUSH1 0x64 ADD PUSH2 0x3DA JUMP JUMPDEST PUSH0 PUSH1 0x64 PUSH1 0x3 SLOAD PUSH1 0x2 SLOAD PUSH2 0x812 SWAP2 SWAP1 PUSH2 0x15D4 JUMP JUMPDEST PUSH2 0x81C SWAP2 SWAP1 PUSH2 0x15EB JUMP JUMPDEST SWAP1 POP PUSH0 DUP2 PUSH1 0x2 SLOAD PUSH2 0x82D SWAP2 SWAP1 PUSH2 0x15A2 JUMP JUMPDEST SWAP1 POP DUP2 PUSH1 0x8 PUSH0 DUP3 DUP3 SLOAD PUSH2 0x840 SWAP2 SWAP1 PUSH2 0x158F JUMP JUMPDEST SWAP1 SWAP2 SSTORE POP POP DUP1 ISZERO PUSH2 0x92D JUMPI PUSH1 0x4 DUP1 SLOAD PUSH1 0x40 MLOAD PUSH4 0xA9059CBB PUSH1 0xE0 SHL DUP2 MSTORE PUSH1 0x1 PUSH1 0x1 PUSH1 0xA0 SHL SUB SWAP2 DUP3 AND SWAP3 DUP2 ADD SWAP3 SWAP1 SWAP3 MSTORE PUSH1 0x24 DUP3 ADD DUP4 SWAP1 MSTORE PUSH32 0x0 AND SWAP1 PUSH4 0xA9059CBB SWAP1 PUSH1 0x44 ADD PUSH1 0x20 PUSH1 0x40 MLOAD DUP1 DUP4 SUB DUP2 PUSH0 DUP8 GAS CALL ISZERO DUP1 ISZERO PUSH2 0x8BD JUMPI RETURNDATASIZE PUSH0 PUSH0 RETURNDATACOPY RETURNDATASIZE PUSH0 REVERT JUMPDEST POP POP POP POP PUSH1 0x40 MLOAD RETURNDATASIZE PUSH1 0x1F NOT PUSH1 0x1F DUP3 ADD AND DUP3 ADD DUP1 PUSH1 0x40 MSTORE POP DUP2 ADD SWAP1 PUSH2 0x8E1 SWAP2 SWAP1 PUSH2 0x15B5 JUMP JUMPDEST PUSH2 0x92D JUMPI PUSH1 0x40 MLOAD PUSH3 0x461BCD PUSH1 0xE5 SHL DUP2 MSTORE PUSH1 0x20 PUSH1 0x4 DUP3 ADD MSTORE PUSH1 0x18 PUSH1 0x24 DUP3 ADD MSTORE PUSH32 0x5472656173757279207472616E73666572206661696C65640000000000000000 PUSH1 0x44 DUP3 ADD MSTORE PUSH1 0x64 ADD PUSH2 0x3DA JUMP JUMPDEST CALLER PUSH0 SWAP1 DUP2 MSTORE PUSH1 0x7 PUSH1 0x20 MSTORE PUSH1 0x40 DUP2 KECCAK256 DUP1 SLOAD SWAP1 SWAP2 DUP3 SWAP1 PUSH2 0x94A DUP4 PUSH2 0x160A JUMP JUMPDEST SWAP2 SWAP1 POP SSTORE POP DUP4 DUP2 PUSH1 0x2 ADD PUSH0 DUP3 DUP3 SLOAD PUSH2 0x962 SWAP2 SWAP1 PUSH2 0x158F JUMP JUMPDEST SWAP1 SWAP2 SSTORE POP POP TIMESTAMP PUSH1 0x3 DUP3 ADD SSTORE PUSH1 0x1 DUP2 ADD SLOAD DUP5 GT ISZERO PUSH2 0x981 JUMPI PUSH1 0x1 DUP2 ADD DUP5 SWAP1 SSTORE JUMPDEST PUSH2 0x98B CALLER DUP6 PUSH2 0x10C6 JUMP JUMPDEST PUSH1 0x40 DUP1 MLOAD DUP6 DUP2 MSTORE TIMESTAMP PUSH1 0x20 DUP3 ADD MSTORE CALLER SWAP2 PUSH32 0x24B31E1DBF1732A12BB700D3D77E5FB96FF3B693374D9FA15CCBC03F42715076 SWAP2 ADD PUSH1 0x40 MLOAD DUP1 SWAP2 SUB SWAP1 LOG2 POP POP POP PUSH2 0x9D1 PUSH1 0x1 DUP1 SSTORE JUMP JUMPDEST POP JUMP JUMPDEST PUSH1 0x60 PUSH1 0x5 DUP1 SLOAD DUP1 PUSH1 0x20 MUL PUSH1 0x20 ADD PUSH1 0x40 MLOAD SWAP1 DUP2 ADD PUSH1 0x40 MSTORE DUP1 SWAP3 SWAP2 SWAP1 DUP2 DUP2 MSTORE PUSH1 0x20 ADD PUSH0 SWAP1 JUMPDEST DUP3 DUP3 LT ISZERO PUSH2 0xA4B JUMPI PUSH0 DUP5 DUP2 MSTORE PUSH1 0x20 SWAP1 DUP2 SWAP1 KECCAK256 PUSH1 0x40 DUP1 MLOAD PUSH1 0x60 DUP2 ADD DUP3 MSTORE PUSH1 0x3 DUP7 MUL SWAP1 SWAP3 ADD DUP1 SLOAD PUSH1 0x1 PUSH1 0x1 PUSH1 0xA0 SHL SUB AND DUP4 MSTORE PUSH1 0x1 DUP1 DUP3 ADD SLOAD DUP5 DUP7 ADD MSTORE PUSH1 0x2 SWAP1 SWAP2 ADD SLOAD SWAP2 DUP4 ADD SWAP2 SWAP1 SWAP2 MSTORE SWAP1 DUP4 MSTORE SWAP1 SWAP3 ADD SWAP2 ADD PUSH2 0x9F7 JUMP JUMPDEST POP POP POP POP SWAP1 POP SWAP1 JUMP JUMPDEST PUSH2 0xA5C PUSH2 0x1070 JUMP JUMPDEST PUSH2 0xA65 PUSH0 PUSH2 0x139C JUMP JUMPDEST JUMP JUMPDEST PUSH2 0xA6F PUSH2 0x1070 JUMP JUMPDEST PUSH0 DUP2 GT PUSH2 0xABE JUMPI PUSH1 0x40 MLOAD PUSH3 0x461BCD PUSH1 0xE5 SHL DUP2 MSTORE PUSH1 0x20 PUSH1 0x4 DUP3 ADD MSTORE PUSH1 0x1B PUSH1 0x24 DUP3 ADD MSTORE PUSH32 0x53697A65206D7573742062652067726561746572207468616E20300000000000 PUSH1 0x44 DUP3 ADD MSTORE PUSH1 0x64 ADD PUSH2 0x3DA JUMP JUMPDEST PUSH1 0x6 SSTORE JUMP JUMPDEST PUSH1 0x5 DUP2 DUP2 SLOAD DUP2 LT PUSH2 0xAD2 JUMPI PUSH0 DUP1 REVERT JUMPDEST PUSH0 SWAP2 DUP3 MSTORE PUSH1 0x20 SWAP1 SWAP2 KECCAK256 PUSH1 0x3 SWAP1 SWAP2 MUL ADD DUP1 SLOAD PUSH1 0x1 DUP3 ADD SLOAD PUSH1 0x2 SWAP1 SWAP3 ADD SLOAD PUSH1 0x1 PUSH1 0x1 PUSH1 0xA0 SHL SUB SWAP1 SWAP2 AND SWAP3 POP DUP4 JUMP JUMPDEST PUSH1 0x5 SLOAD PUSH1 0x60 SWAP1 DUP4 LT PUSH2 0xB64 JUMPI PUSH1 0x40 DUP1 MLOAD PUSH0 DUP1 DUP3 MSTORE PUSH1 0x20 DUP3 ADD SWAP1 SWAP3 MSTORE SWAP1 PUSH2 0xB5C JUMP JUMPDEST PUSH2 0xB49 PUSH1 0x40 MLOAD DUP1 PUSH1 0x60 ADD PUSH1 0x40 MSTORE DUP1 PUSH0 PUSH1 0x1 PUSH1 0x1 PUSH1 0xA0 SHL SUB AND DUP2 MSTORE PUSH1 0x20 ADD PUSH0 DUP2 MSTORE PUSH1 0x20 ADD PUSH0 DUP2 MSTORE POP SWAP1 JUMP JUMPDEST DUP2 MSTORE PUSH1 0x20 ADD SWAP1 PUSH1 0x1 SWAP1 SUB SWAP1 DUP2 PUSH2 0xB1F JUMPI SWAP1 POP JUMPDEST POP SWAP1 POP PUSH2 0xC94 JUMP JUMPDEST PUSH0 PUSH2 0xB6F DUP4 DUP6 PUSH2 0x158F JUMP JUMPDEST PUSH1 0x5 SLOAD SWAP1 SWAP2 POP DUP2 GT ISZERO PUSH2 0xB81 JUMPI POP PUSH1 0x5 SLOAD JUMPDEST PUSH0 PUSH2 0xB8C DUP6 DUP4 PUSH2 0x15A2 JUMP JUMPDEST PUSH8 0xFFFFFFFFFFFFFFFF DUP2 GT ISZERO PUSH2 0xBA4 JUMPI PUSH2 0xBA4 PUSH2 0x1622 JUMP JUMPDEST PUSH1 0x40 MLOAD SWAP1 DUP1 DUP3 MSTORE DUP1 PUSH1 0x20 MUL PUSH1 0x20 ADD DUP3 ADD PUSH1 0x40 MSTORE DUP1 ISZERO PUSH2 0xBFF JUMPI DUP2 PUSH1 0x20 ADD JUMPDEST PUSH2 0xBEC PUSH1 0x40 MLOAD DUP1 PUSH1 0x60 ADD PUSH1 0x40 MSTORE DUP1 PUSH0 PUSH1 0x1 PUSH1 0x1 PUSH1 0xA0 SHL SUB AND DUP2 MSTORE PUSH1 0x20 ADD PUSH0 DUP2 MSTORE PUSH1 0x20 ADD PUSH0 DUP2 MSTORE POP SWAP1 JUMP JUMPDEST DUP2 MSTORE PUSH1 0x20 ADD SWAP1 PUSH1 0x1 SWAP1 SUB SWAP1 DUP2 PUSH2 0xBC2 JUMPI SWAP1 POP JUMPDEST POP SWAP1 POP DUP5 JUMPDEST DUP3 DUP2 LT ISZERO PUSH2 0xC8F JUMPI PUSH1 0x5 DUP2 DUP2 SLOAD DUP2 LT PUSH2 0xC1F JUMPI PUSH2 0xC1F PUSH2 0x1567 JUMP JUMPDEST PUSH0 SWAP2 DUP3 MSTORE PUSH1 0x20 SWAP2 DUP3 SWAP1 KECCAK256 PUSH1 0x40 DUP1 MLOAD PUSH1 0x60 DUP2 ADD DUP3 MSTORE PUSH1 0x3 SWAP1 SWAP4 MUL SWAP1 SWAP2 ADD DUP1 SLOAD PUSH1 0x1 PUSH1 0x1 PUSH1 0xA0 SHL SUB AND DUP4 MSTORE PUSH1 0x1 DUP2 ADD SLOAD SWAP4 DUP4 ADD SWAP4 SWAP1 SWAP4 MSTORE PUSH1 0x2 SWAP1 SWAP3 ADD SLOAD SWAP2 DUP2 ADD SWAP2 SWAP1 SWAP2 MSTORE DUP3 PUSH2 0xC6C DUP9 DUP5 PUSH2 0x15A2 JUMP JUMPDEST DUP2 MLOAD DUP2 LT PUSH2 0xC7C JUMPI PUSH2 0xC7C PUSH2 0x1567 JUMP JUMPDEST PUSH1 0x20 SWAP1 DUP2 MUL SWAP2 SWAP1 SWAP2 ADD ADD MSTORE PUSH1 0x1 ADD PUSH2 0xC04 JUMP JUMPDEST POP SWAP2 POP POP JUMPDEST SWAP3 SWAP2 POP POP JUMP JUMPDEST PUSH2 0xCA2 PUSH2 0x1070 JUMP JUMPDEST PUSH1 0x40 MLOAD PUSH4 0x70A08231 PUSH1 0xE0 SHL DUP2 MSTORE ADDRESS PUSH1 0x4 DUP3 ADD MSTORE PUSH0 SWAP1 PUSH32 0x0 PUSH1 0x1 PUSH1 0x1 PUSH1 0xA0 SHL SUB AND SWAP1 PUSH4 0x70A08231 SWAP1 PUSH1 0x24 ADD PUSH1 0x20 PUSH1 0x40 MLOAD DUP1 DUP4 SUB DUP2 DUP7 GAS STATICCALL ISZERO DUP1 ISZERO PUSH2 0xD06 JUMPI RETURNDATASIZE PUSH0 PUSH0 RETURNDATACOPY RETURNDATASIZE PUSH0 REVERT JUMPDEST POP POP POP POP PUSH1 0x40 MLOAD RETURNDATASIZE PUSH1 0x1F NOT PUSH1 0x1F DUP3 ADD AND DUP3 ADD DUP1 PUSH1 0x40 MSTORE POP DUP2 ADD SWAP1 PUSH2 0xD2A SWAP2 SWAP1 PUSH2 0x1636 JUMP JUMPDEST SWAP1 POP PUSH0 DUP2 GT PUSH2 0xD74 JUMPI PUSH1 0x40 MLOAD PUSH3 0x461BCD PUSH1 0xE5 SHL DUP2 MSTORE PUSH1 0x20 PUSH1 0x4 DUP3 ADD MSTORE PUSH1 0x16 PUSH1 0x24 DUP3 ADD MSTORE PUSH22 0x4E6F2062616C616E636520746F207769746864726177 PUSH1 0x50 SHL PUSH1 0x44 DUP3 ADD MSTORE PUSH1 0x64 ADD PUSH2 0x3DA JUMP JUMPDEST PUSH32 0x0 PUSH1 0x1 PUSH1 0x1 PUSH1 0xA0 SHL SUB AND PUSH4 0xA9059CBB PUSH2 0xDB4 PUSH0 SLOAD PUSH1 0x1 PUSH1 0x1 PUSH1 0xA0 SHL SUB AND SWAP1 JUMP JUMPDEST PUSH1 0x40 MLOAD PUSH1 0x1 PUSH1 0x1 PUSH1 0xE0 SHL SUB NOT PUSH1 0xE0 DUP5 SWAP1 SHL AND DUP2 MSTORE PUSH1 0x1 PUSH1 0x1 PUSH1 0xA0 SHL SUB SWAP1 SWAP2 AND PUSH1 0x4 DUP3 ADD MSTORE PUSH1 0x24 DUP2 ADD DUP5 SWAP1 MSTORE PUSH1 0x44 ADD PUSH1 0x20 PUSH1 0x40 MLOAD DUP1 DUP4 SUB DUP2 PUSH0 DUP8 GAS CALL ISZERO DUP1 ISZERO PUSH2 0xDFE JUMPI RETURNDATASIZE PUSH0 PUSH0 RETURNDATACOPY RETURNDATASIZE PUSH0 REVERT JUMPDEST POP POP POP POP PUSH1 0x40 MLOAD RETURNDATASIZE PUSH1 0x1F NOT PUSH1 0x1F DUP3 ADD AND DUP3 ADD DUP1 PUSH1 0x40 MSTORE POP DUP2 ADD SWAP1 PUSH2 0xE22 SWAP2 SWAP1 PUSH2 0x15B5 JUMP JUMPDEST PUSH2 0xE62 JUMPI PUSH1 0x40 MLOAD PUSH3 0x461BCD PUSH1 0xE5 SHL DUP2 MSTORE PUSH1 0x20 PUSH1 0x4 DUP3 ADD MSTORE PUSH1 0x11 PUSH1 0x24 DUP3 ADD MSTORE PUSH17 0x15DA5D1A191C985DD85B0819985A5B1959 PUSH1 0x7A SHL PUSH1 0x44 DUP3 ADD MSTORE PUSH1 0x64 ADD PUSH2 0x3DA JUMP JUMPDEST POP PUSH0 PUSH1 0x8 SSTORE JUMP JUMPDEST PUSH2 0xE71 PUSH2 0x1070 JUMP JUMPDEST PUSH0 DUP2 GT PUSH2 0xEC0 JUMPI PUSH1 0x40 MLOAD PUSH3 0x461BCD PUSH1 0xE5 SHL DUP2 MSTORE PUSH1 0x20 PUSH1 0x4 DUP3 ADD MSTORE PUSH1 0x1A PUSH1 0x24 DUP3 ADD MSTORE PUSH32 0x466565206D7573742062652067726561746572207468616E2030000000000000 PUSH1 0x44 DUP3 ADD MSTORE PUSH1 0x64 ADD PUSH2 0x3DA JUMP JUMPDEST PUSH1 0x2 DUP2 SWAP1 SSTORE PUSH1 0x40 MLOAD DUP2 DUP2 MSTORE PUSH32 0x24A0B2E591795F2C27BE52FF14A57D0A39AC957304305BC05E8B04BE49E8FE15 SWAP1 PUSH1 0x20 ADD JUMPDEST PUSH1 0x40 MLOAD DUP1 SWAP2 SUB SWAP1 LOG1 POP JUMP JUMPDEST PUSH2 0xF04 PUSH2 0x1070 JUMP JUMPDEST PUSH1 0x1 PUSH1 0x1 PUSH1 0xA0 SHL SUB DUP2 AND PUSH2 0xF5A JUMPI PUSH1 0x40 MLOAD PUSH3 0x461BCD PUSH1 0xE5 SHL DUP2 MSTORE PUSH1 0x20 PUSH1 0x4 DUP3 ADD MSTORE PUSH1 0x18 PUSH1 0x24 DUP3 ADD MSTORE PUSH32 0x496E76616C696420747265617375727920616464726573730000000000000000 PUSH1 0x44 DUP3 ADD MSTORE PUSH1 0x64 ADD PUSH2 0x3DA JUMP JUMPDEST PUSH1 0x4 DUP1 SLOAD PUSH1 0x1 PUSH1 0x1 PUSH1 0xA0 SHL SUB NOT AND PUSH1 0x1 PUSH1 0x1 PUSH1 0xA0 SHL SUB DUP4 AND SWAP1 DUP2 OR SWAP1 SWAP2 SSTORE PUSH1 0x40 MLOAD SWAP1 DUP2 MSTORE PUSH32 0x7DAE230F18360D76A040C81F050AA14EB9D6DC7901B20FC5D855E2A20FE814D1 SWAP1 PUSH1 0x20 ADD PUSH2 0xEF1 JUMP JUMPDEST PUSH2 0xFB0 PUSH2 0x1070 JUMP JUMPDEST PUSH1 0x64 DUP2 GT ISZERO PUSH2 0x1001 JUMPI PUSH1 0x40 MLOAD PUSH3 0x461BCD PUSH1 0xE5 SHL DUP2 MSTORE PUSH1 0x20 PUSH1 0x4 DUP3 ADD MSTORE PUSH1 0x1C PUSH1 0x24 DUP3 ADD MSTORE PUSH32 0x50657263656E746167652063616E6E6F74206578636565642031303000000000 PUSH1 0x44 DUP3 ADD MSTORE PUSH1 0x64 ADD PUSH2 0x3DA JUMP JUMPDEST PUSH1 0x3 DUP2 SWAP1 SSTORE PUSH1 0x40 MLOAD DUP2 DUP2 MSTORE PUSH32 0x4C6206D197FB835B6626CB8F20F3796FD7993DEA9493AC4A8D2C799B22F82877 SWAP1 PUSH1 0x20 ADD PUSH2 0xEF1 JUMP JUMPDEST PUSH2 0x103E PUSH2 0x1070 JUMP JUMPDEST PUSH1 0x1 PUSH1 0x1 PUSH1 0xA0 SHL SUB DUP2 AND PUSH2 0x1067 JUMPI PUSH1 0x40 MLOAD PUSH4 0x1E4FBDF7 PUSH1 0xE0 SHL DUP2 MSTORE PUSH0 PUSH1 0x4 DUP3 ADD MSTORE PUSH1 0x24 ADD PUSH2 0x3DA JUMP JUMPDEST PUSH2 0x9D1 DUP2 PUSH2 0x139C JUMP JUMPDEST PUSH0 SLOAD PUSH1 0x1 PUSH1 0x1 PUSH1 0xA0 SHL SUB AND CALLER EQ PUSH2 0xA65 JUMPI PUSH1 0x40 MLOAD PUSH4 0x118CDAA7 PUSH1 0xE0 SHL DUP2 MSTORE CALLER PUSH1 0x4 DUP3 ADD MSTORE PUSH1 0x24 ADD PUSH2 0x3DA JUMP JUMPDEST PUSH1 0x2 PUSH1 0x1 SLOAD SUB PUSH2 0x10BF JUMPI PUSH1 0x40 MLOAD PUSH4 0x3EE5AEB5 PUSH1 0xE0 SHL DUP2 MSTORE PUSH1 0x4 ADD PUSH1 0x40 MLOAD DUP1 SWAP2 SUB SWAP1 REVERT JUMPDEST PUSH1 0x2 PUSH1 0x1 SSTORE JUMP JUMPDEST PUSH1 0x40 DUP1 MLOAD PUSH1 0x60 DUP2 ADD DUP3 MSTORE PUSH1 0x1 PUSH1 0x1 PUSH1 0xA0 SHL SUB DUP5 AND DUP2 MSTORE PUSH1 0x20 DUP2 ADD DUP4 SWAP1 MSTORE TIMESTAMP SWAP2 DUP2 ADD SWAP2 SWAP1 SWAP2 MSTORE PUSH1 0x5 SLOAD PUSH0 JUMPDEST PUSH1 0x5 SLOAD DUP2 LT ISZERO PUSH2 0x1134 JUMPI PUSH1 0x5 DUP2 DUP2 SLOAD DUP2 LT PUSH2 0x110D JUMPI PUSH2 0x110D PUSH2 0x1567 JUMP JUMPDEST SWAP1 PUSH0 MSTORE PUSH1 0x20 PUSH0 KECCAK256 SWAP1 PUSH1 0x3 MUL ADD PUSH1 0x1 ADD SLOAD DUP5 GT ISZERO PUSH2 0x112C JUMPI DUP1 SWAP2 POP PUSH2 0x1134 JUMP JUMPDEST PUSH1 0x1 ADD PUSH2 0x10F0 JUMP JUMPDEST POP PUSH1 0x6 SLOAD DUP2 LT ISZERO PUSH2 0x646 JUMPI PUSH1 0x6 SLOAD PUSH1 0x5 SLOAD LT ISZERO PUSH2 0x11F6 JUMPI PUSH1 0x5 DUP1 SLOAD PUSH1 0x1 DUP2 ADD DUP3 SSTORE PUSH0 SWAP2 SWAP1 SWAP2 MSTORE DUP3 MLOAD PUSH32 0x36B6384B5ECA791C62761152D0C79BB0604C104A5FB6F4EB0703F3154BB3DB0 PUSH1 0x3 SWAP1 SWAP3 MUL SWAP2 DUP3 ADD DUP1 SLOAD PUSH1 0x1 PUSH1 0x1 PUSH1 0xA0 SHL SUB NOT AND PUSH1 0x1 PUSH1 0x1 PUSH1 0xA0 SHL SUB SWAP1 SWAP3 AND SWAP2 SWAP1 SWAP2 OR SWAP1 SSTORE PUSH1 0x20 DUP4 ADD MLOAD PUSH32 0x36B6384B5ECA791C62761152D0C79BB0604C104A5FB6F4EB0703F3154BB3DB1 DUP3 ADD SSTORE PUSH1 0x40 DUP4 ADD MLOAD PUSH32 0x36B6384B5ECA791C62761152D0C79BB0604C104A5FB6F4EB0703F3154BB3DB2 SWAP1 SWAP2 ADD SSTORE JUMPDEST PUSH1 0x5 SLOAD PUSH0 SWAP1 PUSH2 0x1207 SWAP1 PUSH1 0x1 SWAP1 PUSH2 0x15A2 JUMP JUMPDEST SWAP1 POP JUMPDEST DUP2 DUP2 GT ISZERO PUSH2 0x12A1 JUMPI PUSH1 0x5 PUSH2 0x121F PUSH1 0x1 DUP4 PUSH2 0x15A2 JUMP JUMPDEST DUP2 SLOAD DUP2 LT PUSH2 0x122F JUMPI PUSH2 0x122F PUSH2 0x1567 JUMP JUMPDEST SWAP1 PUSH0 MSTORE PUSH1 0x20 PUSH0 KECCAK256 SWAP1 PUSH1 0x3 MUL ADD PUSH1 0x5 DUP3 DUP2 SLOAD DUP2 LT PUSH2 0x124E JUMPI PUSH2 0x124E PUSH2 0x1567 JUMP JUMPDEST PUSH0 SWAP2 DUP3 MSTORE PUSH1 0x20 SWAP1 SWAP2 KECCAK256 DUP3 SLOAD PUSH1 0x3 SWAP1 SWAP3 MUL ADD DUP1 SLOAD PUSH1 0x1 PUSH1 0x1 PUSH1 0xA0 SHL SUB NOT AND PUSH1 0x1 PUSH1 0x1 PUSH1 0xA0 SHL SUB SWAP1 SWAP3 AND SWAP2 SWAP1 SWAP2 OR DUP2 SSTORE PUSH1 0x1 DUP1 DUP4 ADD SLOAD SWAP1 DUP3 ADD SSTORE PUSH1 0x2 SWAP2 DUP3 ADD SLOAD SWAP2 ADD SSTORE DUP1 PUSH2 0x1299 DUP2 PUSH2 0x164D JUMP JUMPDEST SWAP2 POP POP PUSH2 0x120A JUMP JUMPDEST POP DUP2 PUSH1 0x5 DUP3 DUP2 SLOAD DUP2 LT PUSH2 0x12B6 JUMPI PUSH2 0x12B6 PUSH2 0x1567 JUMP JUMPDEST PUSH0 SWAP2 DUP3 MSTORE PUSH1 0x20 SWAP2 DUP3 SWAP1 KECCAK256 DUP4 MLOAD PUSH1 0x3 SWAP3 SWAP1 SWAP3 MUL ADD DUP1 SLOAD PUSH1 0x1 PUSH1 0x1 PUSH1 0xA0 SHL SUB NOT AND PUSH1 0x1 PUSH1 0x1 PUSH1 0xA0 SHL SUB SWAP1 SWAP3 AND SWAP2 SWAP1 SWAP2 OR DUP2 SSTORE SWAP1 DUP3 ADD MLOAD PUSH1 0x1 DUP3 ADD SSTORE PUSH1 0x40 SWAP1 SWAP2 ADD MLOAD PUSH1 0x2 SWAP1 SWAP2 ADD SSTORE PUSH1 0x6 SLOAD PUSH1 0x5 SLOAD GT ISZERO PUSH2 0x1347 JUMPI PUSH1 0x5 DUP1 SLOAD DUP1 PUSH2 0x1318 JUMPI PUSH2 0x1318 PUSH2 0x1662 JUMP JUMPDEST PUSH0 DUP3 DUP2 MSTORE PUSH1 0x20 DUP2 KECCAK256 PUSH1 0x3 PUSH0 NOT SWAP1 SWAP4 ADD SWAP3 DUP4 MUL ADD DUP1 SLOAD PUSH1 0x1 PUSH1 0x1 PUSH1 0xA0 SHL SUB NOT AND DUP2 SSTORE PUSH1 0x1 DUP2 ADD DUP3 SWAP1 SSTORE PUSH1 0x2 ADD SSTORE SWAP1 SSTORE JUMPDEST PUSH1 0x1 PUSH1 0x1 PUSH1 0xA0 SHL SUB DUP5 AND PUSH32 0x5C874ADF9D1C93AB636130BB7E727993F1D6A3D33D1FFD925556815D0EEC2308 DUP5 PUSH2 0x137E DUP5 PUSH1 0x1 PUSH2 0x158F JUMP JUMPDEST PUSH1 0x40 DUP1 MLOAD SWAP3 DUP4 MSTORE PUSH1 0x20 DUP4 ADD SWAP2 SWAP1 SWAP2 MSTORE ADD PUSH1 0x40 MLOAD DUP1 SWAP2 SUB SWAP1 LOG2 POP POP POP POP JUMP JUMPDEST PUSH0 DUP1 SLOAD PUSH1 0x1 PUSH1 0x1 PUSH1 0xA0 SHL SUB DUP4 DUP2 AND PUSH1 0x1 PUSH1 0x1 PUSH1 0xA0 SHL SUB NOT DUP4 AND DUP2 OR DUP5 SSTORE PUSH1 0x40 MLOAD SWAP2 SWAP1 SWAP3 AND SWAP3 DUP4 SWAP2 PUSH32 0x8BE0079C531659141344CD1FD0A4F28419497F9722A3DAAFE3B4186F6B6457E0 SWAP2 SWAP1 LOG3 POP POP JUMP JUMPDEST PUSH0 PUSH0 DUP4 PUSH1 0x1F DUP5 ADD SLT PUSH2 0x13FB JUMPI PUSH0 PUSH0 REVERT JUMPDEST POP DUP2 CALLDATALOAD PUSH8 0xFFFFFFFFFFFFFFFF DUP2 GT ISZERO PUSH2 0x1412 JUMPI PUSH0 PUSH0 REVERT JUMPDEST PUSH1 0x20 DUP4 ADD SWAP2 POP DUP4 PUSH1 0x20 DUP3 PUSH1 0x5 SHL DUP6 ADD ADD GT ISZERO PUSH2 0x142C JUMPI PUSH0 PUSH0 REVERT JUMPDEST SWAP3 POP SWAP3 SWAP1 POP JUMP JUMPDEST PUSH0 PUSH0 PUSH0 PUSH0 PUSH1 0x40 DUP6 DUP8 SUB SLT ISZERO PUSH2 0x1446 JUMPI PUSH0 PUSH0 REVERT JUMPDEST DUP5 CALLDATALOAD PUSH8 0xFFFFFFFFFFFFFFFF DUP2 GT ISZERO PUSH2 0x145C JUMPI PUSH0 PUSH0 REVERT JUMPDEST PUSH2 0x1468 DUP8 DUP3 DUP9 ADD PUSH2 0x13EB JUMP JUMPDEST SWAP1 SWAP6 POP SWAP4 POP POP PUSH1 0x20 DUP6 ADD CALLDATALOAD PUSH8 0xFFFFFFFFFFFFFFFF DUP2 GT ISZERO PUSH2 0x1487 JUMPI PUSH0 PUSH0 REVERT JUMPDEST PUSH2 0x1493 DUP8 DUP3 DUP9 ADD PUSH2 0x13EB JUMP JUMPDEST SWAP6 SWAP9 SWAP5 SWAP8 POP SWAP6 POP POP POP POP JUMP JUMPDEST PUSH0 PUSH1 0x20 DUP3 DUP5 SUB SLT ISZERO PUSH2 0x14AF JUMPI PUSH0 PUSH0 REVERT JUMPDEST DUP2 CALLDATALOAD PUSH1 0x1 PUSH1 0x1 PUSH1 0xA0 SHL SUB DUP2 AND DUP2 EQ PUSH2 0x14C5 JUMPI PUSH0 PUSH0 REVERT JUMPDEST SWAP4 SWAP3 POP POP POP JUMP JUMPDEST PUSH0 PUSH1 0x20 DUP3 DUP5 SUB SLT ISZERO PUSH2 0x14DC JUMPI PUSH0 PUSH0 REVERT JUMPDEST POP CALLDATALOAD SWAP2 SWAP1 POP JUMP JUMPDEST PUSH1 0x20 DUP1 DUP3 MSTORE DUP3 MLOAD DUP3 DUP3 ADD DUP2 SWAP1 MSTORE PUSH0 SWAP2 DUP5 ADD SWAP1 PUSH1 0x40 DUP5 ADD SWAP1 DUP4 JUMPDEST DUP2 DUP2 LT ISZERO PUSH2 0x153C JUMPI DUP4 MLOAD DUP1 MLOAD PUSH1 0x1 PUSH1 0x1 PUSH1 0xA0 SHL SUB AND DUP5 MSTORE PUSH1 0x20 DUP1 DUP3 ADD MLOAD DUP2 DUP7 ADD MSTORE PUSH1 0x40 SWAP2 DUP3 ADD MLOAD SWAP2 DUP6 ADD SWAP2 SWAP1 SWAP2 MSTORE SWAP1 SWAP4 ADD SWAP3 PUSH1 0x60 SWAP1 SWAP3 ADD SWAP2 PUSH1 0x1 ADD PUSH2 0x14FC JUMP JUMPDEST POP SWAP1 SWAP6 SWAP5 POP POP POP POP POP JUMP JUMPDEST PUSH0 PUSH0 PUSH1 0x40 DUP4 DUP6 SUB SLT ISZERO PUSH2 0x1558 JUMPI PUSH0 PUSH0 REVERT JUMPDEST POP POP DUP1 CALLDATALOAD SWAP3 PUSH1 0x20 SWAP1 SWAP2 ADD CALLDATALOAD SWAP2 POP JUMP JUMPDEST PUSH4 0x4E487B71 PUSH1 0xE0 SHL PUSH0 MSTORE PUSH1 0x32 PUSH1 0x4 MSTORE PUSH1 0x24 PUSH0 REVERT JUMPDEST PUSH4 0x4E487B71 PUSH1 0xE0 SHL PUSH0 MSTORE PUSH1 0x11 PUSH1 0x4 MSTORE PUSH1 0x24 PUSH0 REVERT JUMPDEST DUP1 DUP3 ADD DUP1 DUP3 GT ISZERO PUSH2 0xC94 JUMPI PUSH2 0xC94 PUSH2 0x157B JUMP JUMPDEST DUP2 DUP2 SUB DUP2 DUP2 GT ISZERO PUSH2 0xC94 JUMPI PUSH2 0xC94 PUSH2 0x157B JUMP JUMPDEST PUSH0 PUSH1 0x20 DUP3 DUP5 SUB SLT ISZERO PUSH2 0x15C5 JUMPI PUSH0 PUSH0 REVERT JUMPDEST DUP2 MLOAD DUP1 ISZERO ISZERO DUP2 EQ PUSH2 0x14C5 JUMPI PUSH0 PUSH0 REVERT JUMPDEST DUP1 DUP3 MUL DUP2 ISZERO DUP3 DUP3 DIV DUP5 EQ OR PUSH2 0xC94 JUMPI PUSH2 0xC94 PUSH2 0x157B JUMP JUMPDEST PUSH0 DUP3 PUSH2 0x1605 JUMPI PUSH4 0x4E487B71 PUSH1 0xE0 SHL PUSH0 MSTORE PUSH1 0x12 PUSH1 0x4 MSTORE PUSH1 0x24 PUSH0 REVERT JUMPDEST POP DIV SWAP1 JUMP JUMPDEST PUSH0 PUSH1 0x1 DUP3 ADD PUSH2 0x161B JUMPI PUSH2 0x161B PUSH2 0x157B JUMP JUMPDEST POP PUSH1 0x1 ADD SWAP1 JUMP JUMPDEST PUSH4 0x4E487B71 PUSH1 0xE0 SHL PUSH0 MSTORE PUSH1 0x41 PUSH1 0x4 MSTORE PUSH1 0x24 PUSH0 REVERT JUMPDEST PUSH0 PUSH1 0x20 DUP3 DUP5 SUB SLT ISZERO PUSH2 0x1646 JUMPI PUSH0 PUSH0 REVERT JUMPDEST POP MLOAD SWAP2 SWAP1 POP JUMP JUMPDEST PUSH0 DUP2 PUSH2 0x165B JUMPI PUSH2 0x165B PUSH2 0x157B JUMP JUMPDEST POP PUSH0 NOT ADD SWAP1 JUMP JUMPDEST PUSH4 0x4E487B71 PUSH1 0xE0 SHL PUSH0 MSTORE PUSH1 0x31 PUSH1 0x4 MSTORE PUSH1 0x24 PUSH0 REVERT INVALID LOG2 PUSH5 0x6970667358 0x22 SLT KECCAK256 NOT BLOCKHASH BYTE PUSH2 0xCBD4 PUSH6 0xC141CA4FA534 JUMPI 0xD0 0x23 MSTORE 0x27 0x28 DUP13 PUSH19 0xD3C3E2C02F17037D8B99B564736F6C63430008 0x1F STOP CALLER "
				},
				"gasEstimates": {
					"creation": {
						"codeDepositCost": "1160800",
						"executionCost": "infinite",
						"totalCost": "infinite"
					},
					"external": {
						"distributeRewards(address[],uint256[])": "infinite",
						"emergencyWithdraw()": "infinite",
						"entryFee()": "2307",
						"getLeaderboard()": "infinite",
						"getLeaderboardPaginated(uint256,uint256)": "infinite",
						"getLeaderboardSize()": "2348",
						"getPlayerStats(address)": "9255",
						"getRewardPoolBalance()": "2391",
						"gmmcToken()": "infinite",
						"leaderboard(uint256)": "8942",
						"maxLeaderboardSize()": "2327",
						"owner()": "2462",
						"play(uint256)": "infinite",
						"playerStats(address)": "8950",
						"renounceOwnership()": "infinite",
						"rewardPool()": "2306",
						"rewardPoolPercentage()": "2306",
						"setEntryFee(uint256)": "25595",
						"setMaxLeaderboardSize(uint256)": "24618",
						"setRewardPoolPercentage(uint256)": "25676",
						"setTreasury(address)": "27863",
						"transferOwnership(address)": "28404",
						"treasury()": "2448"
					},
					"internal": {
						"_updateLeaderboard(address,uint256)": "infinite"
					}
				},
				"methodIdentifiers": {
					"distributeRewards(address[],uint256[])": "143ba4f3",
					"emergencyWithdraw()": "db2e21bc",
					"entryFee()": "072ea61c",
					"getLeaderboard()": "6d763a6e",
					"getLeaderboardPaginated(uint256,uint256)": "d4e355bc",
					"getLeaderboardSize()": "1b3e4db1",
					"getPlayerStats(address)": "4fd66eae",
					"getRewardPoolBalance()": "d854fb75",
					"gmmcToken()": "f7341f0c",
					"leaderboard(uint256)": "bf368399",
					"maxLeaderboardSize()": "f041df46",
					"owner()": "8da5cb5b",
					"play(uint256)": "6898f82b",
					"playerStats(address)": "cdafbbb6",
					"renounceOwnership()": "715018a6",
					"rewardPool()": "66666aa9",
					"rewardPoolPercentage()": "b85cf54e",
					"setEntryFee(uint256)": "eb770d0c",
					"setMaxLeaderboardSize(uint256)": "87c9439d",
					"setRewardPoolPercentage(uint256)": "f1a95842",
					"setTreasury(address)": "f0f44260",
					"transferOwnership(address)": "f2fde38b",
					"treasury()": "61d027b3"
				}
			},
			"storageLayout": {
				"storage": [
					{
						"astId": 8,
						"contract": "contracts/GMMCArcade.sol:GMMCArcade",
						"label": "_owner",
						"offset": 0,
						"slot": "0",
						"type": "t_address"
					},
					{
						"astId": 266,
						"contract": "contracts/GMMCArcade.sol:GMMCArcade",
						"label": "_status",
						"offset": 0,
						"slot": "1",
						"type": "t_uint256"
					},
					{
						"astId": 344,
						"contract": "contracts/GMMCArcade.sol:GMMCArcade",
						"label": "entryFee",
						"offset": 0,
						"slot": "2",
						"type": "t_uint256"
					},
					{
						"astId": 347,
						"contract": "contracts/GMMCArcade.sol:GMMCArcade",
						"label": "rewardPoolPercentage",
						"offset": 0,
						"slot": "3",
						"type": "t_uint256"
					},
					{
						"astId": 349,
						"contract": "contracts/GMMCArcade.sol:GMMCArcade",
						"label": "treasury",
						"offset": 0,
						"slot": "4",
						"type": "t_address"
					},
					{
						"astId": 369,
						"contract": "contracts/GMMCArcade.sol:GMMCArcade",
						"label": "leaderboard",
						"offset": 0,
						"slot": "5",
						"type": "t_array(t_struct(LeaderboardEntry)356_storage)dyn_storage"
					},
					{
						"astId": 372,
						"contract": "contracts/GMMCArcade.sol:GMMCArcade",
						"label": "maxLeaderboardSize",
						"offset": 0,
						"slot": "6",
						"type": "t_uint256"
					},
					{
						"astId": 377,
						"contract": "contracts/GMMCArcade.sol:GMMCArcade",
						"label": "playerStats",
						"offset": 0,
						"slot": "7",
						"type": "t_mapping(t_address,t_struct(PlayerStats)365_storage)"
					},
					{
						"astId": 379,
						"contract": "contracts/GMMCArcade.sol:GMMCArcade",
						"label": "rewardPool",
						"offset": 0,
						"slot": "8",
						"type": "t_uint256"
					}
				],
				"types": {
					"t_address": {
						"encoding": "inplace",
						"label": "address",
						"numberOfBytes": "20"
					},
					"t_array(t_struct(LeaderboardEntry)356_storage)dyn_storage": {
						"base": "t_struct(LeaderboardEntry)356_storage",
						"encoding": "dynamic_array",
						"label": "struct GMMCArcade.LeaderboardEntry[]",
						"numberOfBytes": "32"
					},
					"t_mapping(t_address,t_struct(PlayerStats)365_storage)": {
						"encoding": "mapping",
						"key": "t_address",
						"label": "mapping(address => struct GMMCArcade.PlayerStats)",
						"numberOfBytes": "32",
						"value": "t_struct(PlayerStats)365_storage"
					},
					"t_struct(LeaderboardEntry)356_storage": {
						"encoding": "inplace",
						"label": "struct GMMCArcade.LeaderboardEntry",
						"members": [
							{
								"astId": 351,
								"contract": "contracts/GMMCArcade.sol:GMMCArcade",
								"label": "player",
								"offset": 0,
								"slot": "0",
								"type": "t_address"
							},
							{
								"astId": 353,
								"contract": "contracts/GMMCArcade.sol:GMMCArcade",
								"label": "score",
								"offset": 0,
								"slot": "1",
								"type": "t_uint256"
							},
							{
								"astId": 355,
								"contract": "contracts/GMMCArcade.sol:GMMCArcade",
								"label": "timestamp",
								"offset": 0,
								"slot": "2",
								"type": "t_uint256"
							}
						],
						"numberOfBytes": "96"
					},
					"t_struct(PlayerStats)365_storage": {
						"encoding": "inplace",
						"label": "struct GMMCArcade.PlayerStats",
						"members": [
							{
								"astId": 358,
								"contract": "contracts/GMMCArcade.sol:GMMCArcade",
								"label": "gamesPlayed",
								"offset": 0,
								"slot": "0",
								"type": "t_uint256"
							},
							{
								"astId": 360,
								"contract": "contracts/GMMCArcade.sol:GMMCArcade",
								"label": "highestScore",
								"offset": 0,
								"slot": "1",
								"type": "t_uint256"
							},
							{
								"astId": 362,
								"contract": "contracts/GMMCArcade.sol:GMMCArcade",
								"label": "totalScore",
								"offset": 0,
								"slot": "2",
								"type": "t_uint256"
							},
							{
								"astId": 364,
								"contract": "contracts/GMMCArcade.sol:GMMCArcade",
								"label": "lastPlayedAt",
								"offset": 0,
								"slot": "3",
								"type": "t_uint256"
							}
						],
						"numberOfBytes": "128"
					},
					"t_uint256": {
						"encoding": "inplace",
						"label": "uint256",
						"numberOfBytes": "32"
					}
				}
			},
			"userdoc": {
				"kind": "user",
				"methods": {},
				"version": 1
			}
		}
	}
}