{
	"data": {
		"bytecode": {
			"linkReferences": {},
			"object": "60a060405269021e19e0c9bab24000006002556050600355606460065534801562000028575f80fd5b5060405162001905380380620019058339810160408190526200004b91620001c6565b33806200007257604051631e4fbdf760e01b81525f60048201526024015b60405180910390fd5b6200007d816200015b565b50600180556001600160a01b038216620000da5760405162461bcd60e51b815260206004820152601560248201527f496e76616c696420746f6b656e20616464726573730000000000000000000000604482015260640162000069565b6001600160a01b038116620001325760405162461bcd60e51b815260206004820152601860248201527f496e76616c696420747265617375727920616464726573730000000000000000604482015260640162000069565b6001600160a01b03918216608052600480546001600160a01b03191691909216179055620001fc565b5f80546001600160a01b038381166001600160a01b0319831681178455604051919092169283917f8be0079c531659141344cd1fd0a4f28419497f9722a3daafe3b4186f6b6457e09190a35050565b80516001600160a01b0381168114620001c1575f80fd5b919050565b5f8060408385031215620001d8575f80fd5b620001e383620001aa565b9150620001f360208401620001aa565b90509250929050565b6080516116cd620002385f395f81816103640152818161049c015281816107550152818161088b01528181610cd80152610d9501526116cd5ff3fe608060405234801561000f575f80fd5b5060043610610148575f3560e01c8063b85cf54e116100bf578063eb770d0c11610079578063eb770d0c1461030a578063f041df461461031d578063f0f4426014610326578063f1a9584214610339578063f2fde38b1461034c578063f7341f0c1461035f575f80fd5b8063b85cf54e14610252578063bf3683991461025b578063cdafbbb614610293578063d4e355bc146102e7578063d854fb75146102fa578063db2e21bc14610302575f80fd5b806366666aa91161011057806366666aa9146101f65780636898f82b146101ff5780636d763a6e14610212578063715018a61461022757806387c9439d1461022f5780638da5cb5b14610242575f80fd5b8063072ea61c1461014c578063143ba4f3146101685780631b3e4db11461017d5780634fd66eae1461018557806361d027b3146101cb575b5f80fd5b61015560025481565b6040519081526020015b60405180910390f35b61017b61017636600461145c565b610386565b005b600554610155565b6101986101933660046114c3565b610660565b60405161015f91908151815260208083015190820152604080830151908201526060918201519181019190915260800190565b6004546101de906001600160a01b031681565b6040516001600160a01b03909116815260200161015f565b61015560085481565b61017b61020d3660046114f0565b6106d4565b61021a6109e8565b60405161015f9190611507565b61017b610a68565b61017b61023d3660046114f0565b610a7b565b5f546001600160a01b03166101de565b61015560035481565b61026e6102693660046114f0565b610ad7565b604080516001600160a01b03909416845260208401929092529082015260600161015f565b6102c76102a13660046114c3565b60076020525f908152604090208054600182015460028301546003909301549192909184565b60408051948552602085019390935291830152606082015260800161015f565b61021a6102f5366004611568565b610b12565b600854610155565b61017b610cb9565b61017b6103183660046114f0565b610e88565b61015560065481565b61017b6103343660046114c3565b610f1b565b61017b6103473660046114f0565b610fc7565b61017b61035a3660046114c3565b611055565b6101de7f000000000000000000000000000000000000000000000000000000000000000081565b61038e61108f565b6103966110bb565b8281146103e35760405162461bcd60e51b8152602060048201526016602482015275082e4e4c2f2e640d8cadccee8d040dad2e6dac2e8c6d60531b60448201526064015b60405180910390fd5b5f805b828110156104265783838281811061040057610400611588565b905060200201358261041291906115b0565b91508061041e816115c3565b9150506103e6565b506008548111156104795760405162461bcd60e51b815260206004820152601860248201527f496e73756666696369656e742072657761726420706f6f6c000000000000000060448201526064016103da565b8060085f82825461048a91906115db565b909155505f90505b8481101561064f577f00000000000000000000000000000000000000000000000000000000000000006001600160a01b031663a9059cbb8787848181106104db576104db611588565b90506020020160208101906104f091906114c3565b86868581811061050257610502611588565b6040516001600160e01b031960e087901b1681526001600160a01b03909416600485015260200291909101356024830152506044016020604051808303815f875af1158015610553573d5f803e3d5ffd5b505050506040513d601f19601f8201168201806040525081019061057791906115ee565b6105bc5760405162461bcd60e51b815260206004820152601660248201527514995dd85c99081d1c985b9cd9995c8819985a5b195960521b60448201526064016103da565b8585828181106105ce576105ce611588565b90506020020160208101906105e391906114c3565b6001600160a01b03167f106f923f993c2149d49b4255ff723acafa1f2d94393f561d3eda32ae348f724185858481811061061f5761061f611588565b9050602002013560405161063591815260200190565b60405180910390a280610647816115c3565b915050610492565b505061065a60018055565b50505050565b61068760405180608001604052805f81526020015f81526020015f81526020015f81525090565b506001600160a01b03165f90815260076020908152604091829020825160808101845281548152600182015492810192909252600281015492820192909252600390910154606082015290565b6106dc6110bb565b5f811180156106ed5750613a988111155b61072f5760405162461bcd60e51b8152602060048201526013602482015272496e76616c69642073636f72652072616e676560681b60448201526064016103da565b6002546040516323b872dd60e01b815233600482015230602482015260448101919091527f00000000000000000000000000000000000000000000000000000000000000006001600160a01b0316906323b872dd906064016020604051808303815f875af11580156107a3573d5f803e3d5ffd5b505050506040513d601f19601f820116820180604052508101906107c791906115ee565b6108135760405162461bcd60e51b815260206004820152601960248201527f456e74727920666565207472616e73666572206661696c65640000000000000060448201526064016103da565b5f6064600354600254610826919061160d565b6108309190611624565b90505f8160025461084191906115db565b90508160085f82825461085491906115b0565b90915550508015610941576004805460405163a9059cbb60e01b81526001600160a01b0391821692810192909252602482018390527f0000000000000000000000000000000000000000000000000000000000000000169063a9059cbb906044016020604051808303815f875af11580156108d1573d5f803e3d5ffd5b505050506040513d601f19601f820116820180604052508101906108f591906115ee565b6109415760405162461bcd60e51b815260206004820152601860248201527f5472656173757279207472616e73666572206661696c6564000000000000000060448201526064016103da565b335f90815260076020526040812080549091829061095e836115c3565b919050555083816002015f82825461097691906115b0565b9091555050426003820155600181015484111561099557600181018490555b61099f33856110e5565b6040805185815242602082015233917f24b31e1dbf1732a12bb700d3d77e5fb96ff3b693374d9fa15ccbc03f42715076910160405180910390a25050506109e560018055565b50565b60606005805480602002602001604051908101604052809291908181526020015f905b82821015610a5f575f848152602090819020604080516060810182526003860290920180546001600160a01b0316835260018082015484860152600290910154918301919091529083529092019101610a0b565b50505050905090565b610a7061108f565b610a795f6113c5565b565b610a8361108f565b5f8111610ad25760405162461bcd60e51b815260206004820152601b60248201527f53697a65206d7573742062652067726561746572207468616e2030000000000060448201526064016103da565b600655565b60058181548110610ae6575f80fd5b5f9182526020909120600390910201805460018201546002909201546001600160a01b03909116925083565b6005546060908310610b7857604080515f8082526020820190925290610b70565b610b5d60405180606001604052805f6001600160a01b031681526020015f81526020015f81525090565b815260200190600190039081610b335790505b509050610cb3565b5f610b8383856115b0565b600554909150811115610b9557506005545b5f610ba085836115db565b67ffffffffffffffff811115610bb857610bb8611643565b604051908082528060200260200182016040528015610c1357816020015b610c0060405180606001604052805f6001600160a01b031681526020015f81526020015f81525090565b815260200190600190039081610bd65790505b509050845b82811015610cae5760058181548110610c3357610c33611588565b5f91825260209182902060408051606081018252600390930290910180546001600160a01b031683526001810154938301939093526002909201549181019190915282610c8088846115db565b81518110610c9057610c90611588565b60200260200101819052508080610ca6906115c3565b915050610c18565b509150505b92915050565b610cc161108f565b6040516370a0823160e01b81523060048201525f907f00000000000000000000000000000000000000000000000000000000000000006001600160a01b0316906370a0823190602401602060405180830381865afa158015610d25573d5f803e3d5ffd5b505050506040513d601f19601f82011682018060405250810190610d499190611657565b90505f8111610d935760405162461bcd60e51b81526020600482015260166024820152754e6f2062616c616e636520746f20776974686472617760501b60448201526064016103da565b7f00000000000000000000000000000000000000000000000000000000000000006001600160a01b031663a9059cbb610dd35f546001600160a01b031690565b6040516001600160e01b031960e084901b1681526001600160a01b039091166004820152602481018490526044016020604051808303815f875af1158015610e1d573d5f803e3d5ffd5b505050506040513d601f19601f82011682018060405250810190610e4191906115ee565b610e815760405162461bcd60e51b815260206004820152601160248201527015da5d1a191c985dd85b0819985a5b1959607a1b60448201526064016103da565b505f600855565b610e9061108f565b5f8111610edf5760405162461bcd60e51b815260206004820152601a60248201527f466565206d7573742062652067726561746572207468616e203000000000000060448201526064016103da565b60028190556040518181527f24a0b2e591795f2c27be52ff14a57d0a39ac957304305bc05e8b04be49e8fe15906020015b60405180910390a150565b610f2361108f565b6001600160a01b038116610f795760405162461bcd60e51b815260206004820152601860248201527f496e76616c69642074726561737572792061646472657373000000000000000060448201526064016103da565b600480546001600160a01b0319166001600160a01b0383169081179091556040519081527f7dae230f18360d76a040c81f050aa14eb9d6dc7901b20fc5d855e2a20fe814d190602001610f10565b610fcf61108f565b60648111156110205760405162461bcd60e51b815260206004820152601c60248201527f50657263656e746167652063616e6e6f7420657863656564203130300000000060448201526064016103da565b60038190556040518181527f4c6206d197fb835b6626cb8f20f3796fd7993dea9493ac4a8d2c799b22f8287790602001610f10565b61105d61108f565b6001600160a01b03811661108657604051631e4fbdf760e01b81525f60048201526024016103da565b6109e5816113c5565b5f546001600160a01b03163314610a795760405163118cdaa760e01b81523360048201526024016103da565b6002600154036110de57604051633ee5aeb560e01b815260040160405180910390fd5b6002600155565b604080516060810182526001600160a01b03841681526020810183905242918101919091526005545f5b60055481101561115d576005818154811061112c5761112c611588565b905f5260205f2090600302016001015484111561114b5780915061115d565b80611155816115c3565b91505061110f565b5060065481101561065a57600654600554101561121f57600580546001810182555f9190915282517f036b6384b5eca791c62761152d0c79bb0604c104a5fb6f4eb0703f3154bb3db0600390920291820180546001600160a01b0319166001600160a01b0390921691909117905560208301517f036b6384b5eca791c62761152d0c79bb0604c104a5fb6f4eb0703f3154bb3db182015560408301517f036b6384b5eca791c62761152d0c79bb0604c104a5fb6f4eb0703f3154bb3db2909101555b6005545f90611230906001906115db565b90505b818111156112ca5760056112486001836115db565b8154811061125857611258611588565b905f5260205f2090600302016005828154811061127757611277611588565b5f9182526020909120825460039092020180546001600160a01b0319166001600160a01b0390921691909117815560018083015490820155600291820154910155806112c28161166e565b915050611233565b5081600582815481106112df576112df611588565b5f91825260209182902083516003929092020180546001600160a01b0319166001600160a01b03909216919091178155908201516001820155604090910151600290910155600654600554111561137057600580548061134157611341611683565b5f8281526020812060035f199093019283020180546001600160a01b0319168155600181018290556002015590555b6001600160a01b0384167f5c874adf9d1c93ab636130bb7e727993f1d6a3d33d1ffd925556815d0eec2308846113a78460016115b0565b6040805192835260208301919091520160405180910390a250505050565b5f80546001600160a01b038381166001600160a01b0319831681178455604051919092169283917f8be0079c531659141344cd1fd0a4f28419497f9722a3daafe3b4186f6b6457e09190a35050565b5f8083601f840112611424575f80fd5b50813567ffffffffffffffff81111561143b575f80fd5b6020830191508360208260051b8501011115611455575f80fd5b9250929050565b5f805f806040858703121561146f575f80fd5b843567ffffffffffffffff80821115611486575f80fd5b61149288838901611414565b909650945060208701359150808211156114aa575f80fd5b506114b787828801611414565b95989497509550505050565b5f602082840312156114d3575f80fd5b81356001600160a01b03811681146114e9575f80fd5b9392505050565b5f60208284031215611500575f80fd5b5035919050565b602080825282518282018190525f919060409081850190868401855b8281101561155b57815180516001600160a01b0316855286810151878601528501518585015260609093019290850190600101611523565b5091979650505050505050565b5f8060408385031215611579575f80fd5b50508035926020909101359150565b634e487b7160e01b5f52603260045260245ffd5b634e487b7160e01b5f52601160045260245ffd5b80820180821115610cb357610cb361159c565b5f600182016115d4576115d461159c565b5060010190565b81810381811115610cb357610cb361159c565b5f602082840312156115fe575f80fd5b815180151581146114e9575f80fd5b8082028115828204841417610cb357610cb361159c565b5f8261163e57634e487b7160e01b5f52601260045260245ffd5b500490565b634e487b7160e01b5f52604160045260245ffd5b5f60208284031215611667575f80fd5b5051919050565b5f8161167c5761167c61159c565b505f190190565b634e487b7160e01b5f52603160045260245ffdfea2646970667358221220eb383031bccbe7f5b6b3a5bd5569a2241d0e4eef68163533cc295ea4586522a564736f6c63430008140033",
			"opcodes": "PUSH1 0xA0 PUSH1 0x40 MSTORE PUSH10 0x21E19E0C9BAB2400000 PUSH1 0x2 SSTORE PUSH1 0x50 PUSH1 0x3 SSTORE PUSH1 0x64 PUSH1 0x6 SSTORE CALLVALUE DUP1 ISZERO PUSH3 0x28 JUMPI PUSH0 DUP1 REVERT JUMPDEST POP PUSH1 0x40 MLOAD PUSH3 0x1905 CODESIZE SUB DUP1 PUSH3 0x1905 DUP4 CODECOPY DUP2 ADD PUSH1 0x40 DUP2 SWAP1 MSTORE PUSH3 0x4B SWAP2 PUSH3 0x1C6 JUMP JUMPDEST CALLER DUP1 PUSH3 0x72 JUMPI PUSH1 0x40 MLOAD PUSH4 0x1E4FBDF7 PUSH1 0xE0 SHL DUP2 MSTORE PUSH0 PUSH1 0x4 DUP3 ADD MSTORE PUSH1 0x24 ADD JUMPDEST PUSH1 0x40 MLOAD DUP1 SWAP2 SUB SWAP1 REVERT JUMPDEST PUSH3 0x7D DUP2 PUSH3 0x15B JUMP JUMPDEST POP PUSH1 0x1 DUP1 SSTORE PUSH1 0x1 PUSH1 0x1 PUSH1 0xA0 SHL SUB DUP3 AND PUSH3 0xDA JUMPI PUSH1 0x40 MLOAD PUSH3 0x461BCD PUSH1 0xE5 SHL DUP2 MSTORE PUSH1 0x20 PUSH1 0x4 DUP3 ADD MSTORE PUSH1 0x15 PUSH1 0x24 DUP3 ADD MSTORE PUSH32 0x496E76616C696420746F6B656E20616464726573730000000000000000000000 PUSH1 0x44 DUP3 ADD MSTORE PUSH1 0x64 ADD PUSH3 0x69 JUMP JUMPDEST PUSH1 0x1 PUSH1 0x1 PUSH1 0xA0 SHL SUB DUP2 AND PUSH3 0x132 JUMPI PUSH1 0x40 MLOAD PUSH3 0x461BCD PUSH1 0xE5 SHL DUP2 MSTORE PUSH1 0x20 PUSH1 0x4 DUP3 ADD MSTORE PUSH1 0x18 PUSH1 0x24 DUP3 ADD MSTORE PUSH32 0x496E76616C696420747265617375727920616464726573730000000000000000 PUSH1 0x44 DUP3 ADD MSTORE PUSH1 0x64 ADD PUSH3 0x69 JUMP JUMPDEST PUSH1 0x1 PUSH1 0x1 PUSH1 0xA0 SHL SUB SWAP2 DUP3 AND PUSH1 0x80 MSTORE PUSH1 0x4 DUP1 SLOAD PUSH1 0x1 PUSH1 0x1 PUSH1 0xA0 SHL SUB NOT AND SWAP2 SWAP1 SWAP3 AND OR SWAP1 SSTORE PUSH3 0x1FC JUMP JUMPDEST PUSH0 DUP1 SLOAD PUSH1 0x1 PUSH1 0x1 PUSH1 0xA0 SHL SUB DUP4 DUP2 AND PUSH1 0x1 PUSH1 0x1 PUSH1 0xA0 SHL SUB NOT DUP4 AND DUP2 OR DUP5 SSTORE PUSH1 0x40 MLOAD SWAP2 SWAP1 SWAP3 AND SWAP3 DUP4 SWAP2 PUSH32 0x8BE0079C531659141344CD1FD0A4F28419497F9722A3DAAFE3B4186F6B6457E0 SWAP2 SWAP1 LOG3 POP POP JUMP JUMPDEST DUP1 MLOAD PUSH1 0x1 PUSH1 0x1 PUSH1 0xA0 SHL SUB DUP2 AND DUP2 EQ PUSH3 0x1C1 JUMPI PUSH0 DUP1 REVERT JUMPDEST SWAP2 SWAP1 POP JUMP JUMPDEST PUSH0 DUP1 PUSH1 0x40 DUP4 DUP6 SUB SLT ISZERO PUSH3 0x1D8 JUMPI PUSH0 DUP1 REVERT JUMPDEST PUSH3 0x1E3 DUP4 PUSH3 0x1AA JUMP JUMPDEST SWAP2 POP PUSH3 0x1F3 PUSH1 0x20 DUP5 ADD PUSH3 0x1AA JUMP JUMPDEST SWAP1 POP SWAP3 POP SWAP3 SWAP1 POP JUMP JUMPDEST PUSH1 0x80 MLOAD PUSH2 0x16CD PUSH3 0x238 PUSH0 CODECOPY PUSH0 DUP2 DUP2 PUSH2 0x364 ADD MSTORE DUP2 DUP2 PUSH2 0x49C ADD MSTORE DUP2 DUP2 PUSH2 0x755 ADD MSTORE DUP2 DUP2 PUSH2 0x88B ADD MSTORE DUP2 DUP2 PUSH2 0xCD8 ADD MSTORE PUSH2 0xD95 ADD MSTORE PUSH2 0x16CD PUSH0 RETURN INVALID PUSH1 0x80 PUSH1 0x40 MSTORE CALLVALUE DUP1 ISZERO PUSH2 0xF JUMPI PUSH0 DUP1 REVERT JUMPDEST POP PUSH1 0x4 CALLDATASIZE LT PUSH2 0x148 JUMPI PUSH0 CALLDATALOAD PUSH1 0xE0 SHR DUP1 PUSH4 0xB85CF54E GT PUSH2 0xBF JUMPI DUP1 PUSH4 0xEB770D0C GT PUSH2 0x79 JUMPI DUP1 PUSH4 0xEB770D0C EQ PUSH2 0x30A JUMPI DUP1 PUSH4 0xF041DF46 EQ PUSH2 0x31D JUMPI DUP1 PUSH4 0xF0F44260 EQ PUSH2 0x326 JUMPI DUP1 PUSH4 0xF1A95842 EQ PUSH2 0x339 JUMPI DUP1 PUSH4 0xF2FDE38B EQ PUSH2 0x34C JUMPI DUP1 PUSH4 0xF7341F0C EQ PUSH2 0x35F JUMPI PUSH0 DUP1 REVERT JUMPDEST DUP1 PUSH4 0xB85CF54E EQ PUSH2 0x252 JUMPI DUP1 PUSH4 0xBF368399 EQ PUSH2 0x25B JUMPI DUP1 PUSH4 0xCDAFBBB6 EQ PUSH2 0x293 JUMPI DUP1 PUSH4 0xD4E355BC EQ PUSH2 0x2E7 JUMPI DUP1 PUSH4 0xD854FB75 EQ PUSH2 0x2FA JUMPI DUP1 PUSH4 0xDB2E21BC EQ PUSH2 0x302 JUMPI PUSH0 DUP1 REVERT JUMPDEST DUP1 PUSH4 0x66666AA9 GT PUSH2 0x110 JUMPI DUP1 PUSH4 0x66666AA9 EQ PUSH2 0x1F6 JUMPI DUP1 PUSH4 0x6898F82B EQ PUSH2 0x1FF JUMPI DUP1 PUSH4 0x6D763A6E EQ PUSH2 0x212 JUMPI DUP1 PUSH4 0x715018A6 EQ PUSH2 0x227 JUMPI DUP1 PUSH4 0x87C9439D EQ PUSH2 0x22F JUMPI DUP1 PUSH4 0x8DA5CB5B EQ PUSH2 0x242 JUMPI PUSH0 DUP1 REVERT JUMPDEST DUP1 PUSH4 0x72EA61C EQ PUSH2 0x14C JUMPI DUP1 PUSH4 0x143BA4F3 EQ PUSH2 0x168 JUMPI DUP1 PUSH4 0x1B3E4DB1 EQ PUSH2 0x17D JUMPI DUP1 PUSH4 0x4FD66EAE EQ PUSH2 0x185 JUMPI DUP1 PUSH4 0x61D027B3 EQ PUSH2 0x1CB JUMPI JUMPDEST PUSH0 DUP1 REVERT JUMPDEST PUSH2 0x155 PUSH1 0x2 SLOAD DUP2 JUMP JUMPDEST PUSH1 0x40 MLOAD SWAP1 DUP2 MSTORE PUSH1 0x20 ADD JUMPDEST PUSH1 0x40 MLOAD DUP1 SWAP2 SUB SWAP1 RETURN JUMPDEST PUSH2 0x17B PUSH2 0x176 CALLDATASIZE PUSH1 0x4 PUSH2 0x145C JUMP JUMPDEST PUSH2 0x386 JUMP JUMPDEST STOP JUMPDEST PUSH1 0x5 SLOAD PUSH2 0x155 JUMP JUMPDEST PUSH2 0x198 PUSH2 0x193 CALLDATASIZE PUSH1 0x4 PUSH2 0x14C3 JUMP JUMPDEST PUSH2 0x660 JUMP JUMPDEST PUSH1 0x40 MLOAD PUSH2 0x15F SWAP2 SWAP1 DUP2 MLOAD DUP2 MSTORE PUSH1 0x20 DUP1 DUP4 ADD MLOAD SWAP1 DUP3 ADD MSTORE PUSH1 0x40 DUP1 DUP4 ADD MLOAD SWAP1 DUP3 ADD MSTORE PUSH1 0x60 SWAP2 DUP3 ADD MLOAD SWAP2 DUP2 ADD SWAP2 SWAP1 SWAP2 MSTORE PUSH1 0x80 ADD SWAP1 JUMP JUMPDEST PUSH1 0x4 SLOAD PUSH2 0x1DE SWAP1 PUSH1 0x1 PUSH1 0x1 PUSH1 0xA0 SHL SUB AND DUP2 JUMP JUMPDEST PUSH1 0x40 MLOAD PUSH1 0x1 PUSH1 0x1 PUSH1 0xA0 SHL SUB SWAP1 SWAP2 AND DUP2 MSTORE PUSH1 0x20 ADD PUSH2 0x15F JUMP JUMPDEST PUSH2 0x155 PUSH1 0x8 SLOAD DUP2 JUMP JUMPDEST PUSH2 0x17B PUSH2 0x20D CALLDATASIZE PUSH1 0x4 PUSH2 0x14F0 JUMP JUMPDEST PUSH2 0x6D4 JUMP JUMPDEST PUSH2 0x21A PUSH2 0x9E8 JUMP JUMPDEST PUSH1 0x40 MLOAD PUSH2 0x15F SWAP2 SWAP1 PUSH2 0x1507 JUMP JUMPDEST PUSH2 0x17B PUSH2 0xA68 JUMP JUMPDEST PUSH2 0x17B PUSH2 0x23D CALLDATASIZE PUSH1 0x4 PUSH2 0x14F0 JUMP JUMPDEST PUSH2 0xA7B JUMP JUMPDEST PUSH0 SLOAD PUSH1 0x1 PUSH1 0x1 PUSH1 0xA0 SHL SUB AND PUSH2 0x1DE JUMP JUMPDEST PUSH2 0x155 PUSH1 0x3 SLOAD DUP2 JUMP JUMPDEST PUSH2 0x26E PUSH2 0x269 CALLDATASIZE PUSH1 0x4 PUSH2 0x14F0 JUMP JUMPDEST PUSH2 0xAD7 JUMP JUMPDEST PUSH1 0x40 DUP1 MLOAD PUSH1 0x1 PUSH1 0x1 PUSH1 0xA0 SHL SUB SWAP1 SWAP5 AND DUP5 MSTORE PUSH1 0x20 DUP5 ADD SWAP3 SWAP1 SWAP3 MSTORE SWAP1 DUP3 ADD MSTORE PUSH1 0x60 ADD PUSH2 0x15F JUMP JUMPDEST PUSH2 0x2C7 PUSH2 0x2A1 CALLDATASIZE PUSH1 0x4 PUSH2 0x14C3 JUMP JUMPDEST PUSH1 0x7 PUSH1 0x20 MSTORE PUSH0 SWAP1 DUP2 MSTORE PUSH1 0x40 SWAP1 KECCAK256 DUP1 SLOAD PUSH1 0x1 DUP3 ADD SLOAD PUSH1 0x2 DUP4 ADD SLOAD PUSH1 0x3 SWAP1 SWAP4 ADD SLOAD SWAP2 SWAP3 SWAP1 SWAP2 DUP5 JUMP JUMPDEST PUSH1 0x40 DUP1 MLOAD SWAP5 DUP6 MSTORE PUSH1 0x20 DUP6 ADD SWAP4 SWAP1 SWAP4 MSTORE SWAP2 DUP4 ADD MSTORE PUSH1 0x60 DUP3 ADD MSTORE PUSH1 0x80 ADD PUSH2 0x15F JUMP JUMPDEST PUSH2 0x21A PUSH2 0x2F5 CALLDATASIZE PUSH1 0x4 PUSH2 0x1568 JUMP JUMPDEST PUSH2 0xB12 JUMP JUMPDEST PUSH1 0x8 SLOAD PUSH2 0x155 JUMP JUMPDEST PUSH2 0x17B PUSH2 0xCB9 JUMP JUMPDEST PUSH2 0x17B PUSH2 0x318 CALLDATASIZE PUSH1 0x4 PUSH2 0x14F0 JUMP JUMPDEST PUSH2 0xE88 JUMP JUMPDEST PUSH2 0x155 PUSH1 0x6 SLOAD DUP2 JUMP JUMPDEST PUSH2 0x17B PUSH2 0x334 CALLDATASIZE PUSH1 0x4 PUSH2 0x14C3 JUMP JUMPDEST PUSH2 0xF1B JUMP JUMPDEST PUSH2 0x17B PUSH2 0x347 CALLDATASIZE PUSH1 0x4 PUSH2 0x14F0 JUMP JUMPDEST PUSH2 0xFC7 JUMP JUMPDEST PUSH2 0x17B PUSH2 0x35A CALLDATASIZE PUSH1 0x4 PUSH2 0x14C3 JUMP JUMPDEST PUSH2 0x1055 JUMP JUMPDEST PUSH2 0x1DE PUSH32 0x0 DUP2 JUMP JUMPDEST PUSH2 0x38E PUSH2 0x108F JUMP JUMPDEST PUSH2 0x396 PUSH2 0x10BB JUMP JUMPDEST DUP3 DUP2 EQ PUSH2 0x3E3 JUMPI PUSH1 0x40 MLOAD PUSH3 0x461BCD PUSH1 0xE5 SHL DUP2 MSTORE PUSH1 0x20 PUSH1 0x4 DUP3 ADD MSTORE PUSH1 0x16 PUSH1 0x24 DUP3 ADD MSTORE PUSH22 0x82E4E4C2F2E640D8CADCCEE8D040DAD2E6DAC2E8C6D PUSH1 0x53 SHL PUSH1 0x44 DUP3 ADD MSTORE PUSH1 0x64 ADD JUMPDEST PUSH1 0x40 MLOAD DUP1 SWAP2 SUB SWAP1 REVERT JUMPDEST PUSH0 DUP1 JUMPDEST DUP3 DUP2 LT ISZERO PUSH2 0x426 JUMPI DUP4 DUP4 DUP3 DUP2 DUP2 LT PUSH2 0x400 JUMPI PUSH2 0x400 PUSH2 0x1588 JUMP JUMPDEST SWAP1 POP PUSH1 0x20 MUL ADD CALLDATALOAD DUP3 PUSH2 0x412 SWAP2 SWAP1 PUSH2 0x15B0 JUMP JUMPDEST SWAP2 POP DUP1 PUSH2 0x41E DUP2 PUSH2 0x15C3 JUMP JUMPDEST SWAP2 POP POP PUSH2 0x3E6 JUMP JUMPDEST POP PUSH1 0x8 SLOAD DUP2 GT ISZERO PUSH2 0x479 JUMPI PUSH1 0x40 MLOAD PUSH3 0x461BCD PUSH1 0xE5 SHL DUP2 MSTORE PUSH1 0x20 PUSH1 0x4 DUP3 ADD MSTORE PUSH1 0x18 PUSH1 0x24 DUP3 ADD MSTORE PUSH32 0x496E73756666696369656E742072657761726420706F6F6C0000000000000000 PUSH1 0x44 DUP3 ADD MSTORE PUSH1 0x64 ADD PUSH2 0x3DA JUMP JUMPDEST DUP1 PUSH1 0x8 PUSH0 DUP3 DUP3 SLOAD PUSH2 0x48A SWAP2 SWAP1 PUSH2 0x15DB JUMP JUMPDEST SWAP1 SWAP2 SSTORE POP PUSH0 SWAP1 POP JUMPDEST DUP5 DUP2 LT ISZERO PUSH2 0x64F JUMPI PUSH32 0x0 PUSH1 0x1 PUSH1 0x1 PUSH1 0xA0 SHL SUB AND PUSH4 0xA9059CBB DUP8 DUP8 DUP5 DUP2 DUP2 LT PUSH2 0x4DB JUMPI PUSH2 0x4DB PUSH2 0x1588 JUMP JUMPDEST SWAP1 POP PUSH1 0x20 MUL ADD PUSH1 0x20 DUP2 ADD SWAP1 PUSH2 0x4F0 SWAP2 SWAP1 PUSH2 0x14C3 JUMP JUMPDEST DUP7 DUP7 DUP6 DUP2 DUP2 LT PUSH2 0x502 JUMPI PUSH2 0x502 PUSH2 0x1588 JUMP JUMPDEST PUSH1 0x40 MLOAD PUSH1 0x1 PUSH1 0x1 PUSH1 0xE0 SHL SUB NOT PUSH1 0xE0 DUP8 SWAP1 SHL AND DUP2 MSTORE PUSH1 0x1 PUSH1 0x1 PUSH1 0xA0 SHL SUB SWAP1 SWAP5 AND PUSH1 0x4 DUP6 ADD MSTORE PUSH1 0x20 MUL SWAP2 SWAP1 SWAP2 ADD CALLDATALOAD PUSH1 0x24 DUP4 ADD MSTORE POP PUSH1 0x44 ADD PUSH1 0x20 PUSH1 0x40 MLOAD DUP1 DUP4 SUB DUP2 PUSH0 DUP8 GAS CALL ISZERO DUP1 ISZERO PUSH2 0x553 JUMPI RETURNDATASIZE PUSH0 DUP1 RETURNDATACOPY RETURNDATASIZE PUSH0 REVERT JUMPDEST POP POP POP POP PUSH1 0x40 MLOAD RETURNDATASIZE PUSH1 0x1F NOT PUSH1 0x1F DUP3 ADD AND DUP3 ADD DUP1 PUSH1 0x40 MSTORE POP DUP2 ADD SWAP1 PUSH2 0x577 SWAP2 SWAP1 PUSH2 0x15EE JUMP JUMPDEST PUSH2 0x5BC JUMPI PUSH1 0x40 MLOAD PUSH3 0x461BCD PUSH1 0xE5 SHL DUP2 MSTORE PUSH1 0x20 PUSH1 0x4 DUP3 ADD MSTORE PUSH1 0x16 PUSH1 0x24 DUP3 ADD MSTORE PUSH22 0x14995DD85C99081D1C985B9CD9995C8819985A5B1959 PUSH1 0x52 SHL PUSH1 0x44 DUP3 ADD MSTORE PUSH1 0x64 ADD PUSH2 0x3DA JUMP JUMPDEST DUP6 DUP6 DUP3 DUP2 DUP2 LT PUSH2 0x5CE JUMPI PUSH2 0x5CE PUSH2 0x1588 JUMP JUMPDEST SWAP1 POP PUSH1 0x20 MUL ADD PUSH1 0x20 DUP2 ADD SWAP1 PUSH2 0x5E3 SWAP2 SWAP1 PUSH2 0x14C3 JUMP JUMPDEST PUSH1 0x1 PUSH1 0x1 PUSH1 0xA0 SHL SUB AND PUSH32 0x106F923F993C2149D49B4255FF723ACAFA1F2D94393F561D3EDA32AE348F7241 DUP6 DUP6 DUP5 DUP2 DUP2 LT PUSH2 0x61F JUMPI PUSH2 0x61F PUSH2 0x1588 JUMP JUMPDEST SWAP1 POP PUSH1 0x20 MUL ADD CALLDATALOAD PUSH1 0x40 MLOAD PUSH2 0x635 SWAP2 DUP2 MSTORE PUSH1 0x20 ADD SWAP1 JUMP JUMPDEST PUSH1 0x40 MLOAD DUP1 SWAP2 SUB SWAP1 LOG2 DUP1 PUSH2 0x647 DUP2 PUSH2 0x15C3 JUMP JUMPDEST SWAP2 POP POP PUSH2 0x492 JUMP JUMPDEST POP POP PUSH2 0x65A PUSH1 0x1 DUP1 SSTORE JUMP JUMPDEST POP POP POP POP JUMP JUMPDEST PUSH2 0x687 PUSH1 0x40 MLOAD DUP1 PUSH1 0x80 ADD PUSH1 0x40 MSTORE DUP1 PUSH0 DUP2 MSTORE PUSH1 0x20 ADD PUSH0 DUP2 MSTORE PUSH1 0x20 ADD PUSH0 DUP2 MSTORE PUSH1 0x20 ADD PUSH0 DUP2 MSTORE POP SWAP1 JUMP JUMPDEST POP PUSH1 0x1 PUSH1 0x1 PUSH1 0xA0 SHL SUB AND PUSH0 SWAP1 DUP2 MSTORE PUSH1 0x7 PUSH1 0x20 SWAP1 DUP2 MSTORE PUSH1 0x40 SWAP2 DUP3 SWAP1 KECCAK256 DUP3 MLOAD PUSH1 0x80 DUP2 ADD DUP5 MSTORE DUP2 SLOAD DUP2 MSTORE PUSH1 0x1 DUP3 ADD SLOAD SWAP3 DUP2 ADD SWAP3 SWAP1 SWAP3 MSTORE PUSH1 0x2 DUP2 ADD SLOAD SWAP3 DUP3 ADD SWAP3 SWAP1 SWAP3 MSTORE PUSH1 0x3 SWAP1 SWAP2 ADD SLOAD PUSH1 0x60 DUP3 ADD MSTORE SWAP1 JUMP JUMPDEST PUSH2 0x6DC PUSH2 0x10BB JUMP JUMPDEST PUSH0 DUP2 GT DUP1 ISZERO PUSH2 0x6ED JUMPI POP PUSH2 0x3A98 DUP2 GT ISZERO JUMPDEST PUSH2 0x72F JUMPI PUSH1 0x40 MLOAD PUSH3 0x461BCD PUSH1 0xE5 SHL DUP2 MSTORE PUSH1 0x20 PUSH1 0x4 DUP3 ADD MSTORE PUSH1 0x13 PUSH1 0x24 DUP3 ADD MSTORE PUSH19 0x496E76616C69642073636F72652072616E6765 PUSH1 0x68 SHL PUSH1 0x44 DUP3 ADD MSTORE PUSH1 0x64 ADD PUSH2 0x3DA JUMP JUMPDEST PUSH1 0x2 SLOAD PUSH1 0x40 MLOAD PUSH4 0x23B872DD PUSH1 0xE0 SHL DUP2 MSTORE CALLER PUSH1 0x4 DUP3 ADD MSTORE ADDRESS PUSH1 0x24 DUP3 ADD MSTORE PUSH1 0x44 DUP2 ADD SWAP2 SWAP1 SWAP2 MSTORE PUSH32 0x0 PUSH1 0x1 PUSH1 0x1 PUSH1 0xA0 SHL SUB AND SWAP1 PUSH4 0x23B872DD SWAP1 PUSH1 0x64 ADD PUSH1 0x20 PUSH1 0x40 MLOAD DUP1 DUP4 SUB DUP2 PUSH0 DUP8 GAS CALL ISZERO DUP1 ISZERO PUSH2 0x7A3 JUMPI RETURNDATASIZE PUSH0 DUP1 RETURNDATACOPY RETURNDATASIZE PUSH0 REVERT JUMPDEST POP POP POP POP PUSH1 0x40 MLOAD RETURNDATASIZE PUSH1 0x1F NOT PUSH1 0x1F DUP3 ADD AND DUP3 ADD DUP1 PUSH1 0x40 MSTORE POP DUP2 ADD SWAP1 PUSH2 0x7C7 SWAP2 SWAP1 PUSH2 0x15EE JUMP JUMPDEST PUSH2 0x813 JUMPI PUSH1 0x40 MLOAD PUSH3 0x461BCD PUSH1 0xE5 SHL DUP2 MSTORE PUSH1 0x20 PUSH1 0x4 DUP3 ADD MSTORE PUSH1 0x19 PUSH1 0x24 DUP3 ADD MSTORE PUSH32 0x456E74727920666565207472616E73666572206661696C656400000000000000 PUSH1 0x44 DUP3 ADD MSTORE PUSH1 0x64 ADD PUSH2 0x3DA JUMP JUMPDEST PUSH0 PUSH1 0x64 PUSH1 0x3 SLOAD PUSH1 0x2 SLOAD PUSH2 0x826 SWAP2 SWAP1 PUSH2 0x160D JUMP JUMPDEST PUSH2 0x830 SWAP2 SWAP1 PUSH2 0x1624 JUMP JUMPDEST SWAP1 POP PUSH0 DUP2 PUSH1 0x2 SLOAD PUSH2 0x841 SWAP2 SWAP1 PUSH2 0x15DB JUMP JUMPDEST SWAP1 POP DUP2 PUSH1 0x8 PUSH0 DUP3 DUP3 SLOAD PUSH2 0x854 SWAP2 SWAP1 PUSH2 0x15B0 JUMP JUMPDEST SWAP1 SWAP2 SSTORE POP POP DUP1 ISZERO PUSH2 0x941 JUMPI PUSH1 0x4 DUP1 SLOAD PUSH1 0x40 MLOAD PUSH4 0xA9059CBB PUSH1 0xE0 SHL DUP2 MSTORE PUSH1 0x1 PUSH1 0x1 PUSH1 0xA0 SHL SUB SWAP2 DUP3 AND SWAP3 DUP2 ADD SWAP3 SWAP1 SWAP3 MSTORE PUSH1 0x24 DUP3 ADD DUP4 SWAP1 MSTORE PUSH32 0x0 AND SWAP1 PUSH4 0xA9059CBB SWAP1 PUSH1 0x44 ADD PUSH1 0x20 PUSH1 0x40 MLOAD DUP1 DUP4 SUB DUP2 PUSH0 DUP8 GAS CALL ISZERO DUP1 ISZERO PUSH2 0x8D1 JUMPI RETURNDATASIZE PUSH0 DUP1 RETURNDATACOPY RETURNDATASIZE PUSH0 REVERT JUMPDEST POP POP POP POP PUSH1 0x40 MLOAD RETURNDATASIZE PUSH1 0x1F NOT PUSH1 0x1F DUP3 ADD AND DUP3 ADD DUP1 PUSH1 0x40 MSTORE POP DUP2 ADD SWAP1 PUSH2 0x8F5 SWAP2 SWAP1 PUSH2 0x15EE JUMP JUMPDEST PUSH2 0x941 JUMPI PUSH1 0x40 MLOAD PUSH3 0x461BCD PUSH1 0xE5 SHL DUP2 MSTORE PUSH1 0x20 PUSH1 0x4 DUP3 ADD MSTORE PUSH1 0x18 PUSH1 0x24 DUP3 ADD MSTORE PUSH32 0x5472656173757279207472616E73666572206661696C65640000000000000000 PUSH1 0x44 DUP3 ADD MSTORE PUSH1 0x64 ADD PUSH2 0x3DA JUMP JUMPDEST CALLER PUSH0 SWAP1 DUP2 MSTORE PUSH1 0x7 PUSH1 0x20 MSTORE PUSH1 0x40 DUP2 KECCAK256 DUP1 SLOAD SWAP1 SWAP2 DUP3 SWAP1 PUSH2 0x95E DUP4 PUSH2 0x15C3 JUMP JUMPDEST SWAP2 SWAP1 POP SSTORE POP DUP4 DUP2 PUSH1 0x2 ADD PUSH0 DUP3 DUP3 SLOAD PUSH2 0x976 SWAP2 SWAP1 PUSH2 0x15B0 JUMP JUMPDEST SWAP1 SWAP2 SSTORE POP POP TIMESTAMP PUSH1 0x3 DUP3 ADD SSTORE PUSH1 0x1 DUP2 ADD SLOAD DUP5 GT ISZERO PUSH2 0x995 JUMPI PUSH1 0x1 DUP2 ADD DUP5 SWAP1 SSTORE JUMPDEST PUSH2 0x99F CALLER DUP6 PUSH2 0x10E5 JUMP JUMPDEST PUSH1 0x40 DUP1 MLOAD DUP6 DUP2 MSTORE TIMESTAMP PUSH1 0x20 DUP3 ADD MSTORE CALLER SWAP2 PUSH32 0x24B31E1DBF1732A12BB700D3D77E5FB96FF3B693374D9FA15CCBC03F42715076 SWAP2 ADD PUSH1 0x40 MLOAD DUP1 SWAP2 SUB SWAP1 LOG2 POP POP POP PUSH2 0x9E5 PUSH1 0x1 DUP1 SSTORE JUMP JUMPDEST POP JUMP JUMPDEST PUSH1 0x60 PUSH1 0x5 DUP1 SLOAD DUP1 PUSH1 0x20 MUL PUSH1 0x20 ADD PUSH1 0x40 MLOAD SWAP1 DUP2 ADD PUSH1 0x40 MSTORE DUP1 SWAP3 SWAP2 SWAP1 DUP2 DUP2 MSTORE PUSH1 0x20 ADD PUSH0 SWAP1 JUMPDEST DUP3 DUP3 LT ISZERO PUSH2 0xA5F JUMPI PUSH0 DUP5 DUP2 MSTORE PUSH1 0x20 SWAP1 DUP2 SWAP1 KECCAK256 PUSH1 0x40 DUP1 MLOAD PUSH1 0x60 DUP2 ADD DUP3 MSTORE PUSH1 0x3 DUP7 MUL SWAP1 SWAP3 ADD DUP1 SLOAD PUSH1 0x1 PUSH1 0x1 PUSH1 0xA0 SHL SUB AND DUP4 MSTORE PUSH1 0x1 DUP1 DUP3 ADD SLOAD DUP5 DUP7 ADD MSTORE PUSH1 0x2 SWAP1 SWAP2 ADD SLOAD SWAP2 DUP4 ADD SWAP2 SWAP1 SWAP2 MSTORE SWAP1 DUP4 MSTORE SWAP1 SWAP3 ADD SWAP2 ADD PUSH2 0xA0B JUMP JUMPDEST POP POP POP POP SWAP1 POP SWAP1 JUMP JUMPDEST PUSH2 0xA70 PUSH2 0x108F JUMP JUMPDEST PUSH2 0xA79 PUSH0 PUSH2 0x13C5 JUMP JUMPDEST JUMP JUMPDEST PUSH2 0xA83 PUSH2 0x108F JUMP JUMPDEST PUSH0 DUP2 GT PUSH2 0xAD2 JUMPI PUSH1 0x40 MLOAD PUSH3 0x461BCD PUSH1 0xE5 SHL DUP2 MSTORE PUSH1 0x20 PUSH1 0x4 DUP3 ADD MSTORE PUSH1 0x1B PUSH1 0x24 DUP3 ADD MSTORE PUSH32 0x53697A65206D7573742062652067726561746572207468616E20300000000000 PUSH1 0x44 DUP3 ADD MSTORE PUSH1 0x64 ADD PUSH2 0x3DA JUMP JUMPDEST PUSH1 0x6 SSTORE JUMP JUMPDEST PUSH1 0x5 DUP2 DUP2 SLOAD DUP2 LT PUSH2 0xAE6 JUMPI PUSH0 DUP1 REVERT JUMPDEST PUSH0 SWAP2 DUP3 MSTORE PUSH1 0x20 SWAP1 SWAP2 KECCAK256 PUSH1 0x3 SWAP1 SWAP2 MUL ADD DUP1 SLOAD PUSH1 0x1 DUP3 ADD SLOAD PUSH1 0x2 SWAP1 SWAP3 ADD SLOAD PUSH1 0x1 PUSH1 0x1 PUSH1 0xA0 SHL SUB SWAP1 SWAP2 AND SWAP3 POP DUP4 JUMP JUMPDEST PUSH1 0x5 SLOAD PUSH1 0x60 SWAP1 DUP4 LT PUSH2 0xB78 JUMPI PUSH1 0x40 DUP1 MLOAD PUSH0 DUP1 DUP3 MSTORE PUSH1 0x20 DUP3 ADD SWAP1 SWAP3 MSTORE SWAP1 PUSH2 0xB70 JUMP JUMPDEST PUSH2 0xB5D PUSH1 0x40 MLOAD DUP1 PUSH1 0x60 ADD PUSH1 0x40 MSTORE DUP1 PUSH0 PUSH1 0x1 PUSH1 0x1 PUSH1 0xA0 SHL SUB AND DUP2 MSTORE PUSH1 0x20 ADD PUSH0 DUP2 MSTORE PUSH1 0x20 ADD PUSH0 DUP2 MSTORE POP SWAP1 JUMP JUMPDEST DUP2 MSTORE PUSH1 0x20 ADD SWAP1 PUSH1 0x1 SWAP1 SUB SWAP1 DUP2 PUSH2 0xB33 JUMPI SWAP1 POP JUMPDEST POP SWAP1 POP PUSH2 0xCB3 JUMP JUMPDEST PUSH0 PUSH2 0xB83 DUP4 DUP6 PUSH2 0x15B0 JUMP JUMPDEST PUSH1 0x5 SLOAD SWAP1 SWAP2 POP DUP2 GT ISZERO PUSH2 0xB95 JUMPI POP PUSH1 0x5 SLOAD JUMPDEST PUSH0 PUSH2 0xBA0 DUP6 DUP4 PUSH2 0x15DB JUMP JUMPDEST PUSH8 0xFFFFFFFFFFFFFFFF DUP2 GT ISZERO PUSH2 0xBB8 JUMPI PUSH2 0xBB8 PUSH2 0x1643 JUMP JUMPDEST PUSH1 0x40 MLOAD SWAP1 DUP1 DUP3 MSTORE DUP1 PUSH1 0x20 MUL PUSH1 0x20 ADD DUP3 ADD PUSH1 0x40 MSTORE DUP1 ISZERO PUSH2 0xC13 JUMPI DUP2 PUSH1 0x20 ADD JUMPDEST PUSH2 0xC00 PUSH1 0x40 MLOAD DUP1 PUSH1 0x60 ADD PUSH1 0x40 MSTORE DUP1 PUSH0 PUSH1 0x1 PUSH1 0x1 PUSH1 0xA0 SHL SUB AND DUP2 MSTORE PUSH1 0x20 ADD PUSH0 DUP2 MSTORE PUSH1 0x20 ADD PUSH0 DUP2 MSTORE POP SWAP1 JUMP JUMPDEST DUP2 MSTORE PUSH1 0x20 ADD SWAP1 PUSH1 0x1 SWAP1 SUB SWAP1 DUP2 PUSH2 0xBD6 JUMPI SWAP1 POP JUMPDEST POP SWAP1 POP DUP5 JUMPDEST DUP3 DUP2 LT ISZERO PUSH2 0xCAE JUMPI PUSH1 0x5 DUP2 DUP2 SLOAD DUP2 LT PUSH2 0xC33 JUMPI PUSH2 0xC33 PUSH2 0x1588 JUMP JUMPDEST PUSH0 SWAP2 DUP3 MSTORE PUSH1 0x20 SWAP2 DUP3 SWAP1 KECCAK256 PUSH1 0x40 DUP1 MLOAD PUSH1 0x60 DUP2 ADD DUP3 MSTORE PUSH1 0x3 SWAP1 SWAP4 MUL SWAP1 SWAP2 ADD DUP1 SLOAD PUSH1 0x1 PUSH1 0x1 PUSH1 0xA0 SHL SUB AND DUP4 MSTORE PUSH1 0x1 DUP2 ADD SLOAD SWAP4 DUP4 ADD SWAP4 SWAP1 SWAP4 MSTORE PUSH1 0x2 SWAP1 SWAP3 ADD SLOAD SWAP2 DUP2 ADD SWAP2 SWAP1 SWAP2 MSTORE DUP3 PUSH2 0xC80 DUP9 DUP5 PUSH2 0x15DB JUMP JUMPDEST DUP2 MLOAD DUP2 LT PUSH2 0xC90 JUMPI PUSH2 0xC90 PUSH2 0x1588 JUMP JUMPDEST PUSH1 0x20 MUL PUSH1 0x20 ADD ADD DUP2 SWAP1 MSTORE POP DUP1 DUP1 PUSH2 0xCA6 SWAP1 PUSH2 0x15C3 JUMP JUMPDEST SWAP2 POP POP PUSH2 0xC18 JUMP JUMPDEST POP SWAP2 POP POP JUMPDEST SWAP3 SWAP2 POP POP JUMP JUMPDEST PUSH2 0xCC1 PUSH2 0x108F JUMP JUMPDEST PUSH1 0x40 MLOAD PUSH4 0x70A08231 PUSH1 0xE0 SHL DUP2 MSTORE ADDRESS PUSH1 0x4 DUP3 ADD MSTORE PUSH0 SWAP1 PUSH32 0x0 PUSH1 0x1 PUSH1 0x1 PUSH1 0xA0 SHL SUB AND SWAP1 PUSH4 0x70A08231 SWAP1 PUSH1 0x24 ADD PUSH1 0x20 PUSH1 0x40 MLOAD DUP1 DUP4 SUB DUP2 DUP7 GAS STATICCALL ISZERO DUP1 ISZERO PUSH2 0xD25 JUMPI RETURNDATASIZE PUSH0 DUP1 RETURNDATACOPY RETURNDATASIZE PUSH0 REVERT JUMPDEST POP POP POP POP PUSH1 0x40 MLOAD RETURNDATASIZE PUSH1 0x1F NOT PUSH1 0x1F DUP3 ADD AND DUP3 ADD DUP1 PUSH1 0x40 MSTORE POP DUP2 ADD SWAP1 PUSH2 0xD49 SWAP2 SWAP1 PUSH2 0x1657 JUMP JUMPDEST SWAP1 POP PUSH0 DUP2 GT PUSH2 0xD93 JUMPI PUSH1 0x40 MLOAD PUSH3 0x461BCD PUSH1 0xE5 SHL DUP2 MSTORE PUSH1 0x20 PUSH1 0x4 DUP3 ADD MSTORE PUSH1 0x16 PUSH1 0x24 DUP3 ADD MSTORE PUSH22 0x4E6F2062616C616E636520746F207769746864726177 PUSH1 0x50 SHL PUSH1 0x44 DUP3 ADD MSTORE PUSH1 0x64 ADD PUSH2 0x3DA JUMP JUMPDEST PUSH32 0x0 PUSH1 0x1 PUSH1 0x1 PUSH1 0xA0 SHL SUB AND PUSH4 0xA9059CBB PUSH2 0xDD3 PUSH0 SLOAD PUSH1 0x1 PUSH1 0x1 PUSH1 0xA0 SHL SUB AND SWAP1 JUMP JUMPDEST PUSH1 0x40 MLOAD PUSH1 0x1 PUSH1 0x1 PUSH1 0xE0 SHL SUB NOT PUSH1 0xE0 DUP5 SWAP1 SHL AND DUP2 MSTORE PUSH1 0x1 PUSH1 0x1 PUSH1 0xA0 SHL SUB SWAP1 SWAP2 AND PUSH1 0x4 DUP3 ADD MSTORE PUSH1 0x24 DUP2 ADD DUP5 SWAP1 MSTORE PUSH1 0x44 ADD PUSH1 0x20 PUSH1 0x40 MLOAD DUP1 DUP4 SUB DUP2 PUSH0 DUP8 GAS CALL ISZERO DUP1 ISZERO PUSH2 0xE1D JUMPI RETURNDATASIZE PUSH0 DUP1 RETURNDATACOPY RETURNDATASIZE PUSH0 REVERT JUMPDEST POP POP POP POP PUSH1 0x40 MLOAD RETURNDATASIZE PUSH1 0x1F NOT PUSH1 0x1F DUP3 ADD AND DUP3 ADD DUP1 PUSH1 0x40 MSTORE POP DUP2 ADD SWAP1 PUSH2 0xE41 SWAP2 SWAP1 PUSH2 0x15EE JUMP JUMPDEST PUSH2 0xE81 JUMPI PUSH1 0x40 MLOAD PUSH3 0x461BCD PUSH1 0xE5 SHL DUP2 MSTORE PUSH1 0x20 PUSH1 0x4 DUP3 ADD MSTORE PUSH1 0x11 PUSH1 0x24 DUP3 ADD MSTORE PUSH17 0x15DA5D1A191C985DD85B0819985A5B1959 PUSH1 0x7A SHL PUSH1 0x44 DUP3 ADD MSTORE PUSH1 0x64 ADD PUSH2 0x3DA JUMP JUMPDEST POP PUSH0 PUSH1 0x8 SSTORE JUMP JUMPDEST PUSH2 0xE90 PUSH2 0x108F JUMP JUMPDEST PUSH0 DUP2 GT PUSH2 0xEDF JUMPI PUSH1 0x40 MLOAD PUSH3 0x461BCD PUSH1 0xE5 SHL DUP2 MSTORE PUSH1 0x20 PUSH1 0x4 DUP3 ADD MSTORE PUSH1 0x1A PUSH1 0x24 DUP3 ADD MSTORE PUSH32 0x466565206D7573742062652067726561746572207468616E2030000000000000 PUSH1 0x44 DUP3 ADD MSTORE PUSH1 0x64 ADD PUSH2 0x3DA JUMP JUMPDEST PUSH1 0x2 DUP2 SWAP1 SSTORE PUSH1 0x40 MLOAD DUP2 DUP2 MSTORE PUSH32 0x24A0B2E591795F2C27BE52FF14A57D0A39AC957304305BC05E8B04BE49E8FE15 SWAP1 PUSH1 0x20 ADD JUMPDEST PUSH1 0x40 MLOAD DUP1 SWAP2 SUB SWAP1 LOG1 POP JUMP JUMPDEST PUSH2 0xF23 PUSH2 0x108F JUMP JUMPDEST PUSH1 0x1 PUSH1 0x1 PUSH1 0xA0 SHL SUB DUP2 AND PUSH2 0xF79 JUMPI PUSH1 0x40 MLOAD PUSH3 0x461BCD PUSH1 0xE5 SHL DUP2 MSTORE PUSH1 0x20 PUSH1 0x4 DUP3 ADD MSTORE PUSH1 0x18 PUSH1 0x24 DUP3 ADD MSTORE PUSH32 0x496E76616C696420747265617375727920616464726573730000000000000000 PUSH1 0x44 DUP3 ADD MSTORE PUSH1 0x64 ADD PUSH2 0x3DA JUMP JUMPDEST PUSH1 0x4 DUP1 SLOAD PUSH1 0x1 PUSH1 0x1 PUSH1 0xA0 SHL SUB NOT AND PUSH1 0x1 PUSH1 0x1 PUSH1 0xA0 SHL SUB DUP4 AND SWAP1 DUP2 OR SWAP1 SWAP2 SSTORE PUSH1 0x40 MLOAD SWAP1 DUP2 MSTORE PUSH32 0x7DAE230F18360D76A040C81F050AA14EB9D6DC7901B20FC5D855E2A20FE814D1 SWAP1 PUSH1 0x20 ADD PUSH2 0xF10 JUMP JUMPDEST PUSH2 0xFCF PUSH2 0x108F JUMP JUMPDEST PUSH1 0x64 DUP2 GT ISZERO PUSH2 0x1020 JUMPI PUSH1 0x40 MLOAD PUSH3 0x461BCD PUSH1 0xE5 SHL DUP2 MSTORE PUSH1 0x20 PUSH1 0x4 DUP3 ADD MSTORE PUSH1 0x1C PUSH1 0x24 DUP3 ADD MSTORE PUSH32 0x50657263656E746167652063616E6E6F74206578636565642031303000000000 PUSH1 0x44 DUP3 ADD MSTORE PUSH1 0x64 ADD PUSH2 0x3DA JUMP JUMPDEST PUSH1 0x3 DUP2 SWAP1 SSTORE PUSH1 0x40 MLOAD DUP2 DUP2 MSTORE PUSH32 0x4C6206D197FB835B6626CB8F20F3796FD7993DEA9493AC4A8D2C799B22F82877 SWAP1 PUSH1 0x20 ADD PUSH2 0xF10 JUMP JUMPDEST PUSH2 0x105D PUSH2 0x108F JUMP JUMPDEST PUSH1 0x1 PUSH1 0x1 PUSH1 0xA0 SHL SUB DUP2 AND PUSH2 0x1086 JUMPI PUSH1 0x40 MLOAD PUSH4 0x1E4FBDF7 PUSH1 0xE0 SHL DUP2 MSTORE PUSH0 PUSH1 0x4 DUP3 ADD MSTORE PUSH1 0x24 ADD PUSH2 0x3DA JUMP JUMPDEST PUSH2 0x9E5 DUP2 PUSH2 0x13C5 JUMP JUMPDEST PUSH0 SLOAD PUSH1 0x1 PUSH1 0x1 PUSH1 0xA0 SHL SUB AND CALLER EQ PUSH2 0xA79 JUMPI PUSH1 0x40 MLOAD PUSH4 0x118CDAA7 PUSH1 0xE0 SHL DUP2 MSTORE CALLER PUSH1 0x4 DUP3 ADD MSTORE PUSH1 0x24 ADD PUSH2 0x3DA JUMP JUMPDEST PUSH1 0x2 PUSH1 0x1 SLOAD SUB PUSH2 0x10DE JUMPI PUSH1 0x40 MLOAD PUSH4 0x3EE5AEB5 PUSH1 0xE0 SHL DUP2 MSTORE PUSH1 0x4 ADD PUSH1 0x40 MLOAD DUP1 SWAP2 SUB SWAP1 REVERT JUMPDEST PUSH1 0x2 PUSH1 0x1 SSTORE JUMP JUMPDEST PUSH1 0x40 DUP1 MLOAD PUSH1 0x60 DUP2 ADD DUP3 MSTORE PUSH1 0x1 PUSH1 0x1 PUSH1 0xA0 SHL SUB DUP5 AND DUP2 MSTORE PUSH1 0x20 DUP2 ADD DUP4 SWAP1 MSTORE TIMESTAMP SWAP2 DUP2 ADD SWAP2 SWAP1 SWAP2 MSTORE PUSH1 0x5 SLOAD PUSH0 JUMPDEST PUSH1 0x5 SLOAD DUP2 LT ISZERO PUSH2 0x115D JUMPI PUSH1 0x5 DUP2 DUP2 SLOAD DUP2 LT PUSH2 0x112C JUMPI PUSH2 0x112C PUSH2 0x1588 JUMP JUMPDEST SWAP1 PUSH0 MSTORE PUSH1 0x20 PUSH0 KECCAK256 SWAP1 PUSH1 0x3 MUL ADD PUSH1 0x1 ADD SLOAD DUP5 GT ISZERO PUSH2 0x114B JUMPI DUP1 SWAP2 POP PUSH2 0x115D JUMP JUMPDEST DUP1 PUSH2 0x1155 DUP2 PUSH2 0x15C3 JUMP JUMPDEST SWAP2 POP POP PUSH2 0x110F JUMP JUMPDEST POP PUSH1 0x6 SLOAD DUP2 LT ISZERO PUSH2 0x65A JUMPI PUSH1 0x6 SLOAD PUSH1 0x5 SLOAD LT ISZERO PUSH2 0x121F JUMPI PUSH1 0x5 DUP1 SLOAD PUSH1 0x1 DUP2 ADD DUP3 SSTORE PUSH0 SWAP2 SWAP1 SWAP2 MSTORE DUP3 MLOAD PUSH32 0x36B6384B5ECA791C62761152D0C79BB0604C104A5FB6F4EB0703F3154BB3DB0 PUSH1 0x3 SWAP1 SWAP3 MUL SWAP2 DUP3 ADD DUP1 SLOAD PUSH1 0x1 PUSH1 0x1 PUSH1 0xA0 SHL SUB NOT AND PUSH1 0x1 PUSH1 0x1 PUSH1 0xA0 SHL SUB SWAP1 SWAP3 AND SWAP2 SWAP1 SWAP2 OR SWAP1 SSTORE PUSH1 0x20 DUP4 ADD MLOAD PUSH32 0x36B6384B5ECA791C62761152D0C79BB0604C104A5FB6F4EB0703F3154BB3DB1 DUP3 ADD SSTORE PUSH1 0x40 DUP4 ADD MLOAD PUSH32 0x36B6384B5ECA791C62761152D0C79BB0604C104A5FB6F4EB0703F3154BB3DB2 SWAP1 SWAP2 ADD SSTORE JUMPDEST PUSH1 0x5 SLOAD PUSH0 SWAP1 PUSH2 0x1230 SWAP1 PUSH1 0x1 SWAP1 PUSH2 0x15DB JUMP JUMPDEST SWAP1 POP JUMPDEST DUP2 DUP2 GT ISZERO PUSH2 0x12CA JUMPI PUSH1 0x5 PUSH2 0x1248 PUSH1 0x1 DUP4 PUSH2 0x15DB JUMP JUMPDEST DUP2 SLOAD DUP2 LT PUSH2 0x1258 JUMPI PUSH2 0x1258 PUSH2 0x1588 JUMP JUMPDEST SWAP1 PUSH0 MSTORE PUSH1 0x20 PUSH0 KECCAK256 SWAP1 PUSH1 0x3 MUL ADD PUSH1 0x5 DUP3 DUP2 SLOAD DUP2 LT PUSH2 0x1277 JUMPI PUSH2 0x1277 PUSH2 0x1588 JUMP JUMPDEST PUSH0 SWAP2 DUP3 MSTORE PUSH1 0x20 SWAP1 SWAP2 KECCAK256 DUP3 SLOAD PUSH1 0x3 SWAP1 SWAP3 MUL ADD DUP1 SLOAD PUSH1 0x1 PUSH1 0x1 PUSH1 0xA0 SHL SUB NOT AND PUSH1 0x1 PUSH1 0x1 PUSH1 0xA0 SHL SUB SWAP1 SWAP3 AND SWAP2 SWAP1 SWAP2 OR DUP2 SSTORE PUSH1 0x1 DUP1 DUP4 ADD SLOAD SWAP1 DUP3 ADD SSTORE PUSH1 0x2 SWAP2 DUP3 ADD SLOAD SWAP2 ADD SSTORE DUP1 PUSH2 0x12C2 DUP2 PUSH2 0x166E JUMP JUMPDEST SWAP2 POP POP PUSH2 0x1233 JUMP JUMPDEST POP DUP2 PUSH1 0x5 DUP3 DUP2 SLOAD DUP2 LT PUSH2 0x12DF JUMPI PUSH2 0x12DF PUSH2 0x1588 JUMP JUMPDEST PUSH0 SWAP2 DUP3 MSTORE PUSH1 0x20 SWAP2 DUP3 SWAP1 KECCAK256 DUP4 MLOAD PUSH1 0x3 SWAP3 SWAP1 SWAP3 MUL ADD DUP1 SLOAD PUSH1 0x1 PUSH1 0x1 PUSH1 0xA0 SHL SUB NOT AND PUSH1 0x1 PUSH1 0x1 PUSH1 0xA0 SHL SUB SWAP1 SWAP3 AND SWAP2 SWAP1 SWAP2 OR DUP2 SSTORE SWAP1 DUP3 ADD MLOAD PUSH1 0x1 DUP3 ADD SSTORE PUSH1 0x40 SWAP1 SWAP2 ADD MLOAD PUSH1 0x2 SWAP1 SWAP2 ADD SSTORE PUSH1 0x6 SLOAD PUSH1 0x5 SLOAD GT ISZERO PUSH2 0x1370 JUMPI PUSH1 0x5 DUP1 SLOAD DUP1 PUSH2 0x1341 JUMPI PUSH2 0x1341 PUSH2 0x1683 JUMP JUMPDEST PUSH0 DUP3 DUP2 MSTORE PUSH1 0x20 DUP2 KECCAK256 PUSH1 0x3 PUSH0 NOT SWAP1 SWAP4 ADD SWAP3 DUP4 MUL ADD DUP1 SLOAD PUSH1 0x1 PUSH1 0x1 PUSH1 0xA0 SHL SUB NOT AND DUP2 SSTORE PUSH1 0x1 DUP2 ADD DUP3 SWAP1 SSTORE PUSH1 0x2 ADD SSTORE SWAP1 SSTORE JUMPDEST PUSH1 0x1 PUSH1 0x1 PUSH1 0xA0 SHL SUB DUP5 AND PUSH32 0x5C874ADF9D1C93AB636130BB7E727993F1D6A3D33D1FFD925556815D0EEC2308 DUP5 PUSH2 0x13A7 DUP5 PUSH1 0x1 PUSH2 0x15B0 JUMP JUMPDEST PUSH1 0x40 DUP1 MLOAD SWAP3 DUP4 MSTORE PUSH1 0x20 DUP4 ADD SWAP2 SWAP1 SWAP2 MSTORE ADD PUSH1 0x40 MLOAD DUP1 SWAP2 SUB SWAP1 LOG2 POP POP POP POP JUMP JUMPDEST PUSH0 DUP1 SLOAD PUSH1 0x1 PUSH1 0x1 PUSH1 0xA0 SHL SUB DUP4 DUP2 AND PUSH1 0x1 PUSH1 0x1 PUSH1 0xA0 SHL SUB NOT DUP4 AND DUP2 OR DUP5 SSTORE PUSH1 0x40 MLOAD SWAP2 SWAP1 SWAP3 AND SWAP3 DUP4 SWAP2 PUSH32 0x8BE0079C531659141344CD1FD0A4F28419497F9722A3DAAFE3B4186F6B6457E0 SWAP2 SWAP1 LOG3 POP POP JUMP JUMPDEST PUSH0 DUP1 DUP4 PUSH1 0x1F DUP5 ADD SLT PUSH2 0x1424 JUMPI PUSH0 DUP1 REVERT JUMPDEST POP DUP2 CALLDATALOAD PUSH8 0xFFFFFFFFFFFFFFFF DUP2 GT ISZERO PUSH2 0x143B JUMPI PUSH0 DUP1 REVERT JUMPDEST PUSH1 0x20 DUP4 ADD SWAP2 POP DUP4 PUSH1 0x20 DUP3 PUSH1 0x5 SHL DUP6 ADD ADD GT ISZERO PUSH2 0x1455 JUMPI PUSH0 DUP1 REVERT JUMPDEST SWAP3 POP SWAP3 SWAP1 POP JUMP JUMPDEST PUSH0 DUP1 PUSH0 DUP1 PUSH1 0x40 DUP6 DUP8 SUB SLT ISZERO PUSH2 0x146F JUMPI PUSH0 DUP1 REVERT JUMPDEST DUP5 CALLDATALOAD PUSH8 0xFFFFFFFFFFFFFFFF DUP1 DUP3 GT ISZERO PUSH2 0x1486 JUMPI PUSH0 DUP1 REVERT JUMPDEST PUSH2 0x1492 DUP9 DUP4 DUP10 ADD PUSH2 0x1414 JUMP JUMPDEST SWAP1 SWAP7 POP SWAP5 POP PUSH1 0x20 DUP8 ADD CALLDATALOAD SWAP2 POP DUP1 DUP3 GT ISZERO PUSH2 0x14AA JUMPI PUSH0 DUP1 REVERT JUMPDEST POP PUSH2 0x14B7 DUP8 DUP3 DUP9 ADD PUSH2 0x1414 JUMP JUMPDEST SWAP6 SWAP9 SWAP5 SWAP8 POP SWAP6 POP POP POP POP JUMP JUMPDEST PUSH0 PUSH1 0x20 DUP3 DUP5 SUB SLT ISZERO PUSH2 0x14D3 JUMPI PUSH0 DUP1 REVERT JUMPDEST DUP2 CALLDATALOAD PUSH1 0x1 PUSH1 0x1 PUSH1 0xA0 SHL SUB DUP2 AND DUP2 EQ PUSH2 0x14E9 JUMPI PUSH0 DUP1 REVERT JUMPDEST SWAP4 SWAP3 POP POP POP JUMP JUMPDEST PUSH0 PUSH1 0x20 DUP3 DUP5 SUB SLT ISZERO PUSH2 0x1500 JUMPI PUSH0 DUP1 REVERT JUMPDEST POP CALLDATALOAD SWAP2 SWAP1 POP JUMP JUMPDEST PUSH1 0x20 DUP1 DUP3 MSTORE DUP3 MLOAD DUP3 DUP3 ADD DUP2 SWAP1 MSTORE PUSH0 SWAP2 SWAP1 PUSH1 0x40 SWAP1 DUP2 DUP6 ADD SWAP1 DUP7 DUP5 ADD DUP6 JUMPDEST DUP3 DUP2 LT ISZERO PUSH2 0x155B JUMPI DUP2 MLOAD DUP1 MLOAD PUSH1 0x1 PUSH1 0x1 PUSH1 0xA0 SHL SUB AND DUP6 MSTORE DUP7 DUP2 ADD MLOAD DUP8 DUP7 ADD MSTORE DUP6 ADD MLOAD DUP6 DUP6 ADD MSTORE PUSH1 0x60 SWAP1 SWAP4 ADD SWAP3 SWAP1 DUP6 ADD SWAP1 PUSH1 0x1 ADD PUSH2 0x1523 JUMP JUMPDEST POP SWAP2 SWAP8 SWAP7 POP POP POP POP POP POP POP JUMP JUMPDEST PUSH0 DUP1 PUSH1 0x40 DUP4 DUP6 SUB SLT ISZERO PUSH2 0x1579 JUMPI PUSH0 DUP1 REVERT JUMPDEST POP POP DUP1 CALLDATALOAD SWAP3 PUSH1 0x20 SWAP1 SWAP2 ADD CALLDATALOAD SWAP2 POP JUMP JUMPDEST PUSH4 0x4E487B71 PUSH1 0xE0 SHL PUSH0 MSTORE PUSH1 0x32 PUSH1 0x4 MSTORE PUSH1 0x24 PUSH0 REVERT JUMPDEST PUSH4 0x4E487B71 PUSH1 0xE0 SHL PUSH0 MSTORE PUSH1 0x11 PUSH1 0x4 MSTORE PUSH1 0x24 PUSH0 REVERT JUMPDEST DUP1 DUP3 ADD DUP1 DUP3 GT ISZERO PUSH2 0xCB3 JUMPI PUSH2 0xCB3 PUSH2 0x159C JUMP JUMPDEST PUSH0 PUSH1 0x1 DUP3 ADD PUSH2 0x15D4 JUMPI PUSH2 0x15D4 PUSH2 0x159C JUMP JUMPDEST POP PUSH1 0x1 ADD SWAP1 JUMP JUMPDEST DUP2 DUP2 SUB DUP2 DUP2 GT ISZERO PUSH2 0xCB3 JUMPI PUSH2 0xCB3 PUSH2 0x159C JUMP JUMPDEST PUSH0 PUSH1 0x20 DUP3 DUP5 SUB SLT ISZERO PUSH2 0x15FE JUMPI PUSH0 DUP1 REVERT JUMPDEST DUP2 MLOAD DUP1 ISZERO ISZERO DUP2 EQ PUSH2 0x14E9 JUMPI PUSH0 DUP1 REVERT JUMPDEST DUP1 DUP3 MUL DUP2 ISZERO DUP3 DUP3 DIV DUP5 EQ OR PUSH2 0xCB3 JUMPI PUSH2 0xCB3 PUSH2 0x159C JUMP JUMPDEST PUSH0 DUP3 PUSH2 0x163E JUMPI PUSH4 0x4E487B71 PUSH1 0xE0 SHL PUSH0 MSTORE PUSH1 0x12 PUSH1 0x4 MSTORE PUSH1 0x24 PUSH0 REVERT JUMPDEST POP DIV SWAP1 JUMP JUMPDEST PUSH4 0x4E487B71 PUSH1 0xE0 SHL PUSH0 MSTORE PUSH1 0x41 PUSH1 0x4 MSTORE PUSH1 0x24 PUSH0 REVERT JUMPDEST PUSH0 PUSH1 0x20 DUP3 DUP5 SUB SLT ISZERO PUSH2 0x1667 JUMPI PUSH0 DUP1 REVERT JUMPDEST POP MLOAD SWAP2 SWAP1 POP JUMP JUMPDEST PUSH0 DUP2 PUSH2 0x167C JUMPI PUSH2 0x167C PUSH2 0x159C JUMP JUMPDEST POP PUSH0 NOT ADD SWAP1 JUMP JUMPDEST PUSH4 0x4E487B71 PUSH1 0xE0 SHL PUSH0 MSTORE PUSH1 0x31 PUSH1 0x4 MSTORE PUSH1 0x24 PUSH0 REVERT INVALID LOG2 PUSH5 0x6970667358 0x22 SLT KECCAK256 0xEB CODESIZE ADDRESS BALANCE 0xBC 0xCB 0xE7 CREATE2 0xB6 0xB3 0xA5 0xBD SSTORE PUSH10 0xA2241D0E4EEF68163533 0xCC 0x29 0x5E LOG4 PC PUSH6 0x22A564736F6C PUSH4 0x43000814 STOP CALLER "
		},
		"gasEstimates": {
			"creation": {
				"codeDepositCost": "1167400",
				"executionCost": "infinite",
				"totalCost": "infinite"
			},
			"external": {
				"distributeRewards(address[],uint256[])": "infinite",
				"emergencyWithdraw()": "infinite",
				"entryFee()": "2307",
				"getLeaderboard()": "infinite",
				"getLeaderboardPaginated(uint256,uint256)": "infinite",
				"getLeaderboardSize()": "2348",
				"getPlayerStats(address)": "9255",
				"getRewardPoolBalance()": "2391",
				"gmmcToken()": "infinite",
				"leaderboard(uint256)": "8942",
				"maxLeaderboardSize()": "2327",
				"owner()": "2462",
				"play(uint256)": "infinite",
				"playerStats(address)": "8950",
				"renounceOwnership()": "infinite",
				"rewardPool()": "2306",
				"rewardPoolPercentage()": "2306",
				"setEntryFee(uint256)": "25595",
				"setMaxLeaderboardSize(uint256)": "24618",
				"setRewardPoolPercentage(uint256)": "25676",
				"setTreasury(address)": "27863",
				"transferOwnership(address)": "28404",
				"treasury()": "2448"
			},
			"internal": {
				"_updateLeaderboard(address,uint256)": "infinite"
			}
		},
		"methodIdentifiers": {
			"distributeRewards(address[],uint256[])": "143ba4f3",
			"emergencyWithdraw()": "db2e21bc",
			"entryFee()": "072ea61c",
			"getLeaderboard()": "6d763a6e",
			"getLeaderboardPaginated(uint256,uint256)": "d4e355bc",
			"getLeaderboardSize()": "1b3e4db1",
			"getPlayerStats(address)": "4fd66eae",
			"getRewardPoolBalance()": "d854fb75",
			"gmmcToken()": "f7341f0c",
			"leaderboard(uint256)": "bf368399",
			"maxLeaderboardSize()": "f041df46",
			"owner()": "8da5cb5b",
			"play(uint256)": "6898f82b",
			"playerStats(address)": "cdafbbb6",
			"renounceOwnership()": "715018a6",
			"rewardPool()": "66666aa9",
			"rewardPoolPercentage()": "b85cf54e",
			"setEntryFee(uint256)": "eb770d0c",
			"setMaxLeaderboardSize(uint256)": "87c9439d",
			"setRewardPoolPercentage(uint256)": "f1a95842",
			"setTreasury(address)": "f0f44260",
			"transferOwnership(address)": "f2fde38b",
			"treasury()": "61d027b3"
		}
	},
	"abi": [
		{
			"inputs": [
				{
					"internalType": "address",
					"name": "_gmmcToken",
					"type": "address"
				},
				{
					"internalType": "address",
					"name": "_treasury",
					"type": "address"
				}
			],
			"stateMutability": "nonpayable",
			"type": "constructor"
		},
		{
			"inputs": [
				{
					"internalType": "address",
					"name": "owner",
					"type": "address"
				}
			],
			"name": "OwnableInvalidOwner",
			"type": "error"
		},
		{
			"inputs": [
				{
					"internalType": "address",
					"name": "account",
					"type": "address"
				}
			],
			"name": "OwnableUnauthorizedAccount",
			"type": "error"
		},
		{
			"inputs": [],
			"name": "ReentrancyGuardReentrantCall",
			"type": "error"
		},
		{
			"anonymous": false,
			"inputs": [
				{
					"indexed": false,
					"internalType": "uint256",
					"name": "newFee",
					"type": "uint256"
				}
			],
			"name": "EntryFeeUpdated",
			"type": "event"
		},
		{
			"anonymous": false,
			"inputs": [
				{
					"indexed": true,
					"internalType": "address",
					"name": "player",
					"type": "address"
				},
				{
					"indexed": false,
					"internalType": "uint256",
					"name": "score",
					"type": "uint256"
				},
				{
					"indexed": false,
					"internalType": "uint256",
					"name": "timestamp",
					"type": "uint256"
				}
			],
			"name": "GamePlayed",
			"type": "event"
		},
		{
			"anonymous": false,
			"inputs": [
				{
					"indexed": true,
					"internalType": "address",
					"name": "player",
					"type": "address"
				},
				{
					"indexed": false,
					"internalType": "uint256",
					"name": "score",
					"type": "uint256"
				},
				{
					"indexed": false,
					"internalType": "uint256",
					"name": "rank",
					"type": "uint256"
				}
			],
			"name": "LeaderboardUpdated",
			"type": "event"
		},
		{
			"anonymous": false,
			"inputs": [
				{
					"indexed": true,
					"internalType": "address",
					"name": "previousOwner",
					"type": "address"
				},
				{
					"indexed": true,
					"internalType": "address",
					"name": "newOwner",
					"type": "address"
				}
			],
			"name": "OwnershipTransferred",
			"type": "event"
		},
		{
			"anonymous": false,
			"inputs": [
				{
					"indexed": true,
					"internalType": "address",
					"name": "player",
					"type": "address"
				},
				{
					"indexed": false,
					"internalType": "uint256",
					"name": "amount",
					"type": "uint256"
				}
			],
			"name": "RewardClaimed",
			"type": "event"
		},
		{
			"anonymous": false,
			"inputs": [
				{
					"indexed": false,
					"internalType": "uint256",
					"name": "newPercentage",
					"type": "uint256"
				}
			],
			"name": "RewardPoolPercentageUpdated",
			"type": "event"
		},
		{
			"anonymous": false,
			"inputs": [
				{
					"indexed": false,
					"internalType": "address",
					"name": "newTreasury",
					"type": "address"
				}
			],
			"name": "TreasuryUpdated",
			"type": "event"
		},
		{
			"inputs": [
				{
					"internalType": "address[]",
					"name": "recipients",
					"type": "address[]"
				},
				{
					"internalType": "uint256[]",
					"name": "amounts",
					"type": "uint256[]"
				}
			],
			"name": "distributeRewards",
			"outputs": [],
			"stateMutability": "nonpayable",
			"type": "function"
		},
		{
			"inputs": [],
			"name": "emergencyWithdraw",
			"outputs": [],
			"stateMutability": "nonpayable",
			"type": "function"
		},
		{
			"inputs": [],
			"name": "entryFee",
			"outputs": [
				{
					"internalType": "uint256",
					"name": "",
					"type": "uint256"
				}
			],
			"stateMutability": "view",
			"type": "function"
		},
		{
			"inputs": [],
			"name": "getLeaderboard",
			"outputs": [
				{
					"components": [
						{
							"internalType": "address",
							"name": "player",
							"type": "address"
						},
						{
							"internalType": "uint256",
							"name": "score",
							"type": "uint256"
						},
						{
							"internalType": "uint256",
							"name": "timestamp",
							"type": "uint256"
						}
					],
					"internalType": "struct GMMCArcade.LeaderboardEntry[]",
					"name": "",
					"type": "tuple[]"
				}
			],
			"stateMutability": "view",
			"type": "function"
		},
		{
			"inputs": [
				{
					"internalType": "uint256",
					"name": "offset",
					"type": "uint256"
				},
				{
					"internalType": "uint256",
					"name": "limit",
					"type": "uint256"
				}
			],
			"name": "getLeaderboardPaginated",
			"outputs": [
				{
					"components": [
						{
							"internalType": "address",
							"name": "player",
							"type": "address"
						},
						{
							"internalType": "uint256",
							"name": "score",
							"type": "uint256"
						},
						{
							"internalType": "uint256",
							"name": "timestamp",
							"type": "uint256"
						}
					],
					"internalType": "struct GMMCArcade.LeaderboardEntry[]",
					"name": "",
					"type": "tuple[]"
				}
			],
			"stateMutability": "view",
			"type": "function"
		},
		{
			"inputs": [],
			"name": "getLeaderboardSize",
			"outputs": [
				{
					"internalType": "uint256",
					"name": "",
					"type": "uint256"
				}
			],
			"stateMutability": "view",
			"type": "function"
		},
		{
			"inputs": [
				{
					"internalType": "address",
					"name": "player",
					"type": "address"
				}
			],
			"name": "getPlayerStats",
			"outputs": [
				{
					"components": [
						{
							"internalType": "uint256",
							"name": "gamesPlayed",
							"type": "uint256"
						},
						{
							"internalType": "uint256",
							"name": "highestScore",
							"type": "uint256"
						},
						{
							"internalType": "uint256",
							"name": "totalScore",
							"type": "uint256"
						},
						{
							"internalType": "uint256",
							"name": "lastPlayedAt",
							"type": "uint256"
						}
					],
					"internalType": "struct GMMCArcade.PlayerStats",
					"name": "",
					"type": "tuple"
				}
			],
			"stateMutability": "view",
			"type": "function"
		},
		{
			"inputs": [],
			"name": "getRewardPoolBalance",
			"outputs": [
				{
					"internalType": "uint256",
					"name": "",
					"type": "uint256"
				}
			],
			"stateMutability": "view",
			"type": "function"
		},
		{
			"inputs": [],
			"name": "gmmcToken",
			"outputs": [
				{
					"internalType": "contract IERC20",
					"name": "",
					"type": "address"
				}
			],
			"stateMutability": "view",
			"type": "function"
		},
		{
			"inputs": [
				{
					"internalType": "uint256",
					"name": "",
					"type": "uint256"
				}
			],
			"name": "leaderboard",
			"outputs": [
				{
					"internalType": "address",
					"name": "player",
					"type": "address"
				},
				{
					"internalType": "uint256",
					"name": "score",
					"type": "uint256"
				},
				{
					"internalType": "uint256",
					"name": "timestamp",
					"type": "uint256"
				}
			],
			"stateMutability": "view",
			"type": "function"
		},
		{
			"inputs": [],
			"name": "maxLeaderboardSize",
			"outputs": [
				{
					"internalType": "uint256",
					"name": "",
					"type": "uint256"
				}
			],
			"stateMutability": "view",
			"type": "function"
		},
		{
			"inputs": [],
			"name": "owner",
			"outputs": [
				{
					"internalType": "address",
					"name": "",
					"type": "address"
				}
			],
			"stateMutability": "view",
			"type": "function"
		},
		{
			"inputs": [
				{
					"internalType": "uint256",
					"name": "score",
					"type": "uint256"
				}
			],
			"name": "play",
			"outputs": [],
			"stateMutability": "nonpayable",
			"type": "function"
		},
		{
			"inputs": [
				{
					"internalType": "address",
					"name": "",
					"type": "address"
				}
			],
			"name": "playerStats",
			"outputs": [
				{
					"internalType": "uint256",
					"name": "gamesPlayed",
					"type": "uint256"
				},
				{
					"internalType": "uint256",
					"name": "highestScore",
					"type": "uint256"
				},
				{
					"internalType": "uint256",
					"name": "totalScore",
					"type": "uint256"
				},
				{
					"internalType": "uint256",
					"name": "lastPlayedAt",
					"type": "uint256"
				}
			],
			"stateMutability": "view",
			"type": "function"
		},
		{
			"inputs": [],
			"name": "renounceOwnership",
			"outputs": [],
			"stateMutability": "nonpayable",
			"type": "function"
		},
		{
			"inputs": [],
			"name": "rewardPool",
			"outputs": [
				{
					"internalType": "uint256",
					"name": "",
					"type": "uint256"
				}
			],
			"stateMutability": "view",
			"type": "function"
		},
		{
			"inputs": [],
			"name": "rewardPoolPercentage",
			"outputs": [
				{
					"internalType": "uint256",
					"name": "",
					"type": "uint256"
				}
			],
			"stateMutability": "view",
			"type": "function"
		},
		{
			"inputs": [
				{
					"internalType": "uint256",
					"name": "_newFee",
					"type": "uint256"
				}
			],
			"name": "setEntryFee",
			"outputs": [],
			"stateMutability": "nonpayable",
			"type": "function"
		},
		{
			"inputs": [
				{
					"internalType": "uint256",
					"name": "_size",
					"type": "uint256"
				}
			],
			"name": "setMaxLeaderboardSize",
			"outputs": [],
			"stateMutability": "nonpayable",
			"type": "function"
		},
		{
			"inputs": [
				{
					"internalType": "uint256",
					"name": "_percentage",
					"type": "uint256"
				}
			],
			"name": "setRewardPoolPercentage",
			"outputs": [],
			"stateMutability": "nonpayable",
			"type": "function"
		},
		{
			"inputs": [
				{
					"internalType": "address",
					"name": "_treasury",
					"type": "address"
				}
			],
			"name": "setTreasury",
			"outputs": [],
			"stateMutability": "nonpayable",
			"type": "function"
		},
		{
			"inputs": [
				{
					"internalType": "address",
					"name": "newOwner",
					"type": "address"
				}
			],
			"name": "transferOwnership",
			"outputs": [],
			"stateMutability": "nonpayable",
			"type": "function"
		},
		{
			"inputs": [],
			"name": "treasury",
			"outputs": [
				{
					"internalType": "address",
					"name": "",
					"type": "address"
				}
			],
			"stateMutability": "view",
			"type": "function"
		}
	]
}